:10159A000A2A2A2020202020475245454E564954DF
:1015AA005920434F4D4D554E49434154494F4E538F
:1015BA0020494E4320202020202020202A2A000AC9
:1015CA002A2A202020202020204849202D20524548
:1015DA004C20426F6F74206C6F61646572205634C0
:1015EA002E302020202020202020202A2A000A0A0B
:1015FA0020232323232320446F776E6C6F6164209A
:10160A00636F64652066726F6D2055415254207471
:10161A006F204352414D202D2042414E4B2D253003
:10162A0032582023232323230A000A202D2D3E206B
:10163A0046696E69736865642064756D70696E6762
:10164A002053464C415348000A0A202D2D3E205073
:10165A0072657373207265736574206F722068698E
:10166A00742027732720746F207265626F6F74204D
:0B167A007468652073797374656D005F
:100E0D00E4F59F121B50121B13C2AFE4784AF69003
:100E1D00210E120D4E000000007BFF7A15799A12FB
:100E2D00055C7BFF7A1579C912055C784AE6120DCF
:100E3D007F0F00010ED7310EF1420ED2450EB7468F
:100E4D000EBC4A0EC2500F4A530E78550EF65A0E6E
:100E5D00F1620ED2650EB7660EBC6A0EC2700F4AF5
:100E6D00730E78750EF67A00000F11121B3DE478A3
:100E7D004AF6784AE6FFC36480948850227BFF7A55
:100E8D001579F8EF3395E0F50D8F0E12055C784A64
:100E9D00E6F59F7F707D64120036784A0680D31286
:100EAD001B5075816F0221008081120B1D803D75D5
:100EBD00816F0221007F011214AE7BFF7A16793407
:100ECD0012055C80271211A280227BFF7A167952BF
:100EDD0012055C90210E120D4E00000000784A762E
:100EED0001020E38120F508003121079784A7631B4
:100EFD00020E38784A309807A699C298020E3876B5
:100F0D0001020E38309806784AA699C29890210EA3
:100F1D00120D1EEF2401FFE43EFEE43DFDE43CFC1A
:100F2D0090210E120D427F807E387D017C00902134
:100F3D000E120D2AC3120CDB5003020E381213BC15
:030F4D00020E3859
:101B1300758921758DF2758780C289759850D28E2B
:051B2300C299C29822E6
:101AFC00BF0A0AC29975990D3099FDC299C2998F86
:071B0C00993099FDC29922F6
:0F1B8600E47863F63098FD7863A699C298E6FF7D
:011B9500222D
:10000000021B28022103000000000002210B000057
:10001000000000022113000000000002211B00006C
:10002000000000022123000000000002212B00003C
:0600300000000002213374
:101B280078FFE4F6D8FD78007FFFE4F208DFFC7563
:051B3800812B020E0DDF
:101B3D00759F0075F10075F22075F3FF75F4FF7553
:031B4D00F800227B
:101B5000759F0075F10075F22075F3FF75F4FF7540
:031B6000F8012267
:1012B8000A202D2D3E2057616974696E6720666F7C
:1012C8007220496E74656C2D6865782066696C6556
:1012D800202E0066000A202D2D3E20436F646520D5
:1012E800446F776E6C6F61642053756D6D617279B0
:1012F8000A00202E5375636365737366756C6C7989
:1013080020646F776E6C6F616465642062797465C0
:101318002873293A2025750A00202E466F756E64B9
:10132800206C696E652873293A2025750A00202EDD
:1013380046616C7365206C696E652873293A2025AF
:10134800750A00202E5265636F7264207479706587
:10135800206572726F722873293A2025750A002059
:101368002E4E6F6E206173636969206469676974C2
:101378002873293A2025750A00202E4572726F724B
:1013880020646F776E6C6F61646564206279746540
:101398002873293A2025750A00202E4661696C6554
:1013A8006420636865636B73756D652873293A20DB
:0413B80025750A008D
:100036008F088D09E4785BF608F67853F608F678AB
:100046004CF608F67850F67859F608F6784CF60825
:10005600F6784CE6FE08E6FFC39408EE94005015C9
:10006600A808EF25E028F8E4F608F6784D06E61825
:1000760070DF0680DCE4784CF608F6784CE6FE087D
:10008600E6FFC39406EE94005015A809EF25E02874
:10009600F8E4F608F6784D06E61870DF0680DC7B95
:1000A600FF7A1279B812055C7859E6FE08E6FFEE8B
:1000B60060030204EDEF120D7F00EA00014001012A
:1000C6005D0201BD0301ED04028D0502BE0602C0FC
:1000D6000702CA0803AD1303FD14043015045016B5
:1000E600000004ED121B867850EFF6BF1B030202D8
:1000F600B77850E6FFB43A16E47853F67859F6081E
:100106007601A8090806E6187001060204ED121A1F
:100116007350030204ED7850E6640A70030204ED9E
:10012600E5082405F8E62401FF18E436FEE5082470
:0A01360004F8A60608A6070204ED6F
:100140001218B87E007857EEF608EFF6702978544A
:10015000E608F6785976000876020204ED1218B81F
:100160007E007857EEF608EFF67854E6FD78517683
:100170000008A605EF60030203A31218B87E0078FA
:1001800057EEF608EFF6600280437852E67F0018DB
:10019000F6FE08EFF67854E6FDEDFF7851EEF6FE38
:1001A00008EFF6FF7C00785C18ECF608F6EE18F61F
:1001B000EF08F6785976000876030204ED7F5612B0
:1001C00018BA7E007857EEF608EFF66004080203CE
:1001D000A57856E6FFD3940540030202C0EF24043D
:1001E000785AF6E43318F6E4784C02044A1218B848
:1001F0007857760008A607785516785BE6FC08E67F
:10020000FDC3902105E09D902104E09C5005ECF099
:10021000A3EDF07F54121B637E007857EEF608EFD3
:10022000F6785C06E618700106EF4E7032C3784F20
:10023000E694C818E69400400BC29975992EE478AC
:100240004EF608F6784F06E618700106E509240513
:10025000F8E62401FF18E436FEE5092404801A7B41
:10026000FF7A1279DB12055CE5082407F8E6240121
:10027000FF18E436FEE5082406F8A60608A6077867
:1002800055E660030204ED7859F602039D1218B892
:100290007E007857EEF608EFF6701C7853E670177C
:1002A000E5092409F8E62401FF18E436FEE50924EF
:1002B00008F8A60608A6077859760002040B800005
:1002C000785976000876150204ED784DE6184670E8
:1002D000397851F608F61218B87E007857EEF6080D
:1002E000EFF6785516701518E6FFE47851F608A673
:1002F00007E6F8E47952F7E819F7800778597600AD
:05030000087614784CA2
:10030500760002042A1218B87E007857EEF608EF38
:10031500F678551660030203A318E6FFE4FCFDC05A
:1003250004A905AA06AB077851E6FE08E6FFE4D066
:1003350000120CCE7851EEF608EFF6C394FBEE945E
:10034500004016D3E694FE18E69400500C08740697
:1003550026F61874FF36F6801EE508240BF8E62409
:1003650001FF18E436FEE508240AF8A60608A607E4
:10037500785176000876017851E6FE08E67810C3D4
:1003850033CE33CED8F9FF7851EEF608EFF6785B29
:10039500A60608F6785976000876130204ED785912
:1003A50076000876140204ED1218B87E007857EE30
:1003B500F608EFF670267853E670217855E6701C3E
:1003C500E5092409F8E62401FF18E436FEE50924C9
:1003D50008F8A60608A607E478598069E5082409FF
:0103E500F81F
:1003E600E62401FF18E436FEE5082408F8A6060808
:1003F600A607E47859804D7857E6FE08E6FF6401C3
:100406004E700808F60876160204EDEF64034E7087
:10041600047859802FEF64024E60030204ED78538E
:10042600F67859F60876010204EDE5082403F8E6A5
:100436002401FF18E436FEE5082402F8A60608A6FD
:1004460007E47859F608F60204ED7BFF7A1279DDA7
:1004560012055C7BFF7A1279FAE5092404F8E6F5C1
:100466000D08E6F50E12055C7BFF7A137921A809C3
:10047600E6F50D08E6F50E12055C7BFF7A13793674
:10048600A808E6F50D08E6F50E12055C7BFF7A1363
:10049600794BE5082402F8E6F50D08E6F50E120597
:1004A6005C7BFF7A137967E5082404F8E6F50D0806
:1004B600E6F50E12055C7BFF7A137981E5082406C2
:1004C600F8E6F50D08E6F50E12055C7BFF7A137962
:0904D600A1E5082408F8E6F50D83
:1004DF0008E6F50E12055C78597600087617785AFB
:0B04EF00E66417184660030200AE220E
:1018B8007F547D53AB088F0A8D0B8B0CE47860F650
:1018C800785DF67F5DAD0C121701785FEFF624FDA9
:1018D80060F1240370257860E6700D785DE6C454E5
:1018E800F008F678600680DB785EE6795D47F6E614
:1018F800FFA80AF6A80BEF26F68000785FE6FF221D
:101701008F0D8D0EA807E4F67861F608F6121B8698
:101711007862A607E6FF24C6600A241F7015786167
:1017210076018049A80E0806E618700106786176F0
:1017310002803A121A73500F7F62121ABEA80DA6C8
:1017410007E47861F680267862E6B40A0518760423
:10175100801BE50E2405F8E62401FF18E436FEE5BA
:101761000E2404F8A60608A607786176037861E6D8
:02177100FF2255
:101ABE00A807E6FF121B757863EFF6D3943950062C
:101ACE0074D026F68006786374C926F67863E6FF2E
:011ADE0022E5
:101B63008D828C83A807E6F0E06660037F01227F05
:021B730000224E
:100856000A202D2D3E2053797374656D206973200F
:10086600626F6F74696E6720757020002E000A2013
:100876002D2D3E2052756E6E696E67206669726D0B
:10088600776172650A0A000A202D2D3E2044756D97
:10089600702073666C617368000A307825303458AE
:1008A6003A002025303258000A0A202D2D3E2042DB
:1008B600616E6B20253032580A000A202D2D3E200D
:1008C60044756D70206261636B757020636F64653B
:1008D600000A202D2D3E2050726F6772616D2053E5
:1008E600464C41534820592F4E3F203A000A202DAE
:1008F6002D3E2044656C6574652063757272656E65
:100906007420636F646520592F4E3F203A000A0A0F
:1009160020232323232320446F776E6C6F6164208A
:10092600636F646520666F72202D2042414E4B2D09
:10093600253032582023232323230A000A202D2D75
:100946003E2057726974696E6720746F2073666CF7
:1009560061736820000A0A202A2A2A2053464C413D
:1009660053482070726F6772616D6D696E6720659E
:1009760072726F722040203078253032582530341C
:1009860058202D2074727920616761696E0A0A0009
:100996000A202A2A2A204552524F5220646F776E27
:1009A6006C6F6164696E672066726F6D2055415287
:1009B6005420746F2052414D000A202A2A2A2050C2
:1009C600726F6772616D6D696E672073666C6173B5
:1009D6006820646F6E65210A000A202D2D3E204294
:1009E60061636B757020636F646520696D6167650F
:1009F60020592F4E3F3A000A202D2D3E2044656C8B
:100A0600657465206F6C64206261636B7570206924
:100A16006D61676520592F4E3F3A000A0A202D2D39
:100A26003E204261636B696E6720757020636F6458
:100A36006520696D61676520000A202A2A2A2042FE
:100A460061636B7570206572726F7220402030781A
:100A560025303458253034580A0A000A202D2D3EF8
:100A6600204261636B757020636F646520646F6EEE
:100A76006521000A202D2D3E205265636F76657232
:100A860020636F646520696D61676520592F4E3F4D
:100A96003A000A202D2D3E2044656C65746520635E
:100AA6006F646520696D61676520592F4E3F3A0076
:100AB6000A202D2D3E20526573746F72696E672071
:100AC600636F646520696D61676520000A202A2AC4
:100AD6002A20436F646520726573746F72696E674E
:100AE600206572726F722040203078253034582588
:100AF6003034580A0A000A202D2D3E2052657374A0
:100B06006F72696E6720636F646520696D616765E2
:070B160020646F6E652100F1
:1013BC007BFF7A08795612055C121B3D784D76201E
:1013CC00087600E47851F608F6F59F784FF608F6A3
:1013DC00784DE6FE08E6FFF5828E83E493784BF6B3
:1013EC008F828E83F0784E06E618700106785206CE
:1013FC00E6187001067851B6131308B6880F7BFFF8
:10140C007A08797212055CE47851F608F678500681
:10141C00E618700106C3784FE694E040B3E47851C7
:10142C00F608F6784C7601784CE6FFC39408505FCA
:10143C008F9F0876A0087600E408F608F6784DE64B
:10144C00FE08E6FFF5828E83E493784BF68F828E4E
:10145C0083F0784E06E618700106785206E618708E
:10146C0001067851B6131308B6880F7BFF7A0879FA
:10147C007212055CE47851F608F6785006E618709E
:10148C000106C3784FE6946040B3784C06809812FE
:04149C001B507BFF67
:0E14A0007A08797412055C75816F02210022B2
:1014AE00BF010C121B3D7BFF7A08798D12055C780B
:1014BE004B7620087600E408F608F6784BE6FE0830
:1014CE00E6FF5407700D7BFF7A08799F8E0D8F0E05
:1014DE0012055C784BE6FE08E6F5828E83E493FFF8
:1014EE00784FF6784C06E6187001067BFF7A08797D
:1014FE00A8750D008F0E12055C784E06E618700169
:10150E0006C3784DE694E040B2785076017850E606
:10151E00FFC3940850727BFF7A0879AE750D008F69
:10152E000E12055C7850E6F59F784B76A008760093
:10153E00E408F608F6784BE6FE08E6FF5407700D51
:10154E007BFF7A08799F8E0D8F0E12055C784BE625
:10155E00FE08E6F5828E83E493FF784FF6784C060C
:10156E00E6187001067BFF7A0879A8750D008F0EBC
:10157E0012055C784E06E618700106C3784DE694A7
:0C158E006040B27850068085121B50228D
:1011A200902106120D4E000500007BFF7A0879C0DF
:1011B20012055CE4784DF608F6784DE6FE08E6FF87
:1011C200C3EE94E05058EF540770127BFF7A08790F
:1011D2009F26F50E18E63420F50D12055C902106C7
:1011E200120D1E121A99784FA607902106120D1E93
:1011F200EF2401FFE43EFEE43DFDE43CFC902106C9
:10120200120D427BFF7A0879A8784FE6750D00F53A
:101212000E12055C784E06E618709E06809B78508A
:1012220076017850E6FFC3940840030212B77BFFB1
:101232007A0879AE750D008F0E12055C784B76A098
:10124200087600E408F608F6784BE6FE08E6FF5456
:1012520007700D7BFF7A08799F8E0D8F0E12055C49
:10126200784C06E618700106902106120D1E121A1D
:1012720099784FA607902106120D1EEF2401FFE474
:101282003EFEE43DFDE43CFC902106120D427BFF54
:101292007A0879A8784FE6750D00F50E12055C788C
:0712A2004E06E6187001067C
:0F12A900C3784DE69460409978500602122422D3
:101773008F188E178D168C15E4FFE4FDFC78081284
:101783000CFFC004C005C006C007E518FFE4FEFD5A
:10179300FC7818120CFFD003D002D001D000120C39
:1017A300CEC004C005C006C007E4FFFEE516FDE495
:1017B300FC7808120CECD003D002D001D000120C3C
:1017C300CEC004C005C006C007E4FFFEFDE515FC5E
:1017D3007818120CECD003D002D001D000120CCE3A
:0117E30022E3
:1019F4009021047421F0A3E4F0902104E0FCA3E01E
:101A0400FDF5828C83EFF0C3ED94FFEC94FF500C52
:0D1A1400902104E475F001120CB880DD2271
:100B1D007BFF7A0879D712055C121B86784BEFF6AE
:100B2D0064596003763122E4784BF67BFF7A0879BD
:100B3D00F312055C121B86784BEFF6645960037651
:100B4D003122121B3D7F01121A211217E4E4784B5A
:100B5D00F67FFF1219F47BFF7A097914784BE6754D
:100B6D000D00F50E12055C784BE6F59FE49021041F
:100B7D00F0A3F07F707D64120036784BE6FB7011A8
:100B8D00902106120D4E000001009021007421806D
:100B9D0030EBFF7E007C007D06120CA6EF2408FFD3
:100BAD00E43EFEE4FD902106120D42902106120D49
:100BBD001E780C120CFF902106120D42902100742C
:100BCD00A0F0A3E4F07879E618466003020C817B6F
:100BDD00FF7A09794212055C902106120D1E9021B3
:100BED0000E0FAA3E0F5828A83E0F50C1219C390B8
:100BFD002106120D1E121A99902100E0FCA3E0F5BA
:100C0D00828C83E06F60237BFF7A09795B902106EC
:100C1D00120D1E7810120CECE4F50D8F0E902106BE
:100C2D00120D1EE48E0F8F108063902101E070096C
:060C3D007BFF7A087972CA
:100C430012055C902104E0FEA3E0FFC3902101E0C4
:100C53009F902100E09E502E902106120D1EEF243E
:100C630001FFE43EFEE43DFDE43CFC902106120D51
:100C730042902100E475F001120CB8020BE57BFFF2
:100C83007A0979968011784B06E664086003020BB3
:100C93005E7BFF7A0979BF12055CE4FF121A211209
:030CA3001B5022C1
:100F5000902106120D4E0000000090210A120D4E45
:100F6000000500007BFF7A0979DF12055C121B8601
:100F7000784BEFF6C299F599EF645960037F002230
:100F80007BFF7A0979FD12055C121B86784BEFF620
:100F9000C299F599EF645960037F002212184E7BC5
:100FA000FF7A0A7921021062902106120D1E121A90
:100FB00099784BEFF6FB90210A120D1E8B0C12193B
:100FC000C390210A120D1E121A99784BE66F602CFD
:100FD0007BFF7A0A793F90210A120D1E7810120CBD
:100FE000ECE48E0D8F0E90210A120D1EE48E0F8FF1
:100FF0001012055CE4FF121A217F01227FFF7EFFA1
:101000007D087C0090210A120D2AC3120CDB505877
:10101000902106120D1EEF2401FFE43EFEE43DFD8B
:10102000E43CFC902106120D4290210A120D1EEFA5
:101030002401FFE43EFEE43DFDE43CFC90210A1265
:101040000D4290210A120D1EEE5401FEE4FDFCFB40
:10105000FAF9F8C3120CDB6003020FA87BFF7A08D1
:10106000797212055C020FA87BFF7A0A796112057A
:091070005CE4FF121A217F00224A
:10107900902106120D4E0000000090210A120D4E1B
:10108900000500007BFF7A0A797912055C121B863C
:10109900784BEFF6C299F599EF645960037F002206
:1010A9007BFF7A0A799812055C121B86784BEFF65A
:1010B900C299F599EF645960037F00221217E47B06
:1010C900FF7A0A79B602118B90210A120D1E121AA3
:1010D90099784BEFF6FB902106120D1E8B0C121915
:1010E900C3902106120D1E121A99784BE66F602CD7
:1010F9007BFF7A0A79D2902106120D1E7810120C04
:10110900ECE48E0D8F0E902106120D1EE48E0F8FCA
:101119001012055CE4FF121A217F01227FFF7EFF76
:101129007D087C0090210A120D2AC3120CDB50584D
:10113900902106120D1EEF2401FFE43EFEE43DFD61
:10114900E43CFC902106120D4290210A120D1EEF7B
:101159002401FFE43EFEE43DFDE43CFC90210A123B
:101169000D4290210A120D1EEE5401FEE4FDFCFB16
:10117900FAF9F8C3120CDB60030210D17BFF7A087D
:10118900797212055C0210D17BFF7A0A79FC12058B
:091199005CE4FF121A217F002220
:101949000A202D2D3E2044656C6574696E672063FD
:101959006F646520696D61676520002E000A202D7E
:101969002D3E2044656C6574696E67206261636B06
:0F197900757020636F646520696D61676520007C
:0F1685008F128E118D10F50FE4F513F5147F04FD
:021694008F0EB7
:10169600AF12AE11AD10AC0F1217737852120D3691
:1016A6007852120D1290030C120D42900307E513A7
:1016B600F0900306E50EF0E514602190030874052A
:1016C600F0900300E07851F67851E6600790030049
:1016D600E0F680F49003087403F080069003087423
:1016E60005F0900300E07851F67851E66007900324
:0A16F60000E0F680F4900308E4F031
:0117000022C6
:101ADF00BF0106E47512068004E4751204F511F5D2
:0D1AEF0010F50FF513F5147F011216942267
:101A21008F0D7F01121ADFE50DB40105E4F5128077
:101A310004E47512BC751101F510F50FF513F514D9
:091A41007F02121694121988228A
:101988009003067401F090030C7405F0900308F0BE
:10199800900300E0784DF670F79003087403F09018
:1019A8000300E0784DF670F790030CE05401784D91
:0A19B800F6640160CB900308E4F030
:0119C2002202
:09190800E6FFE4FCFDFE750C0194
:101911008F0B8E0A8D098C087F01121A217F01120B
:101921001ADFE50CAF0BAE0AAD09AC08B4010A78B9
:1019310010120CFFEC44D88008780F120CFFEC4415
:081941005212168512198822CA
:1017E4007BFF7A19794912055CE4784CF67BFF7A21
:1017F40019796412055C784C121908784C06E6C312
:10180400940440E9E4784CF67BFF7A197964120574
:101814005C784CE6FFE4FCFDFEF50C121911784CE3
:1018240006E6C3940840E1E4784CF6784CE6FFC33E
:1018340094405015E4FCFDFE121A4A7BFF7A197994
:091844006412055C784C0680E298
:01184D002278
:10184E007BFF7A19796612055C784C76047BFF7AF9
:10185E0019796412055C784C121908784C06E6C3A7
:10186E00940840E9784C76087BFF7A197964120562
:10187E005C784CE6FFE4FCFDFEF50C121911784C79
:10188E0006E6C3941040E1784C7640784CE6FFC3F0
:10189E0094805015E4FCFDFE121A4A7BFF7A1979EA
:0918AE006412055C784C0680E22E
:0118B700220E
:1019C3008F0B8E0A8D098C087F01121ADFE50BFF3E
:1019D300E50AFEE509FDE50844028F128E118D101C
:1019E300F50F850C13E4F5147F051216941219886C
:0119F30022D1
:101A99008F0B8E0A8D098C08E50844038F128E116D
:101AA9008D10F50FE4F5137514017F041216949047
:051AB900030CE0FF2218
:101A4A008F0B8E0A8D098C087F01121A217F0112D1
:101A5A001ADFAF0BAE0AAD09AC08780C120CFFEC1A
:091A6A004420121685121988228D
:100CA600EF8DF0A4A8F0CF8CF0A428CE8DF0A42E62
:020CB600FE221C
:100CB800C5F0F8A3E028F0C5F0F8E58215827002C7
:060CC8001583E038F02264
:0D0CCE00EF4BFFEE4AFEED49FDEC48FC2225
:100CDB00EB9FF5F0EA9E42F0E99D42F0E89C45F06F
:010CEB0022E6
:100CEC00E8600FECC313FCED13FDEE13FEEF13FFE6
:030CFC00D8F1220A
:100CFF00E8600FEFC333FFEE33FEED33FDEC33FC53
:030D0F00D8F122F6
:0C0D1200E6FC08E6FD08E6FE08E6FF220D
:0C0D1E00E0FCA3E0FDA3E0FEA3E0FF2248
:0C0D2A00E0F8A3E0F9A3E0FAA3E0FB224C
:0C0D3600ECF608EDF608EEF608EFF622E9
:0C0D4200ECF0A3EDF0A3EEF0A3EFF02224
:100D4E00A8828583F0D083D082120D65120D6512B4
:100D5E000D65120D65E473E493A3C583C5F0C583D9
:100D6E00C8C582C8F0A3C583C5F0C583C8C582C8EF
:010D7E002252
:100D7F00D083D082F8E4937012740193700DA3A303
:100D8F0093F8740193F5828883E473740293686017
:060D9F00EFA3A3A380DF17
:1004FA00E519240DF8E6051922780A300702780D65
:10050A00E475F001120DFD020DA52000EB7F2ED23D
:10051A00008018EF540F2490D43440D4FF30040BD9
:10052A00EF24BFB41A0050032461FFE51A600215D4
:10053A001A051DE51D7002051C30070D780AE475C1
:10054A00F001120DFDEF020DEB021AFC7403D20743
:10055A008003E4C207F5198B0A8A0B890CE4F51AA1
:10056A00F51CF51DE51A60077F2012053580F57523
:10057A001BFFC201C200C202C203C205C206C208F0
:10058A00120503FF700D3007057F00120546AF1DE7
:10059A00AE1C22B4255FC2D5C204120503FF24D0C3
:1005AA00B40A00501A75F00A781A30D50508B6FF51
:1005BA000106C6A426F620D5047002D20380D924E7
:1005CA00CFB41A00EF5004C2E5D204020746D201A2
:1005DA0080C6D20080C0D20280BCD2D580BAD205F1
:1005EA0080B47F201205352002077401B51A004035
:1005FA00F11204FAFF12053502056ED208D20680FE
:10060A00951204FAFB1204FAFA1204FAF94A4B7028
:10061A000679177A087BFF20022EE51A602A7E00E7
:10062A008E82758300120DBE60060EEE651B70F099
:10063A00C2D5EBC0E0EAC0E0E9C0E0EE12078DD017
:10064A00E0F9D0E0FAD0E0FB120DA5FF60AAEBC0FA
:10065A00E0EAC0E0E9C0E0120535D0E02401F9D0B3
:10066A00E03400FAD0E0FBE51B0460DCD51BD9803E
:10067A00877BFF7A077989D202809C791080027978
:10068A0008C206C2088008D2D5790A8004790AC24B
:10069A00D5E51B047002F51BE4FAFDFEFF1204FA0D
:1006AA00FC7B082001131204FAFD7B1030000A12A9
:1006BA0004FAFE1204FAFF7B20EC3382D592D5505D
:1006CA0013C3E43000069FFFE49EFEE42001039D6D
:1006DA00FDE49CFCE4CBF8C201EC700CCFCECDCC8F
:1006EA00E824F8F870F38017C3EF33FFEE33FEED1A
:1006FA0033FDEC33FCEB33FB994002FB0FD8E9EBFB
:10070A00300105F8D0E0C448B201C0E00AEC4D4E11
:10071A004F78207B0070C2EAB51B0040BCC0E012D3
:10072A00078FD0F0D0E0200104C4C0E0C4B201C0F9
:10073A00F012051ED0F0D5F0EB02056E120D7F0601
:10074A000B5306855805DC4C05D84206894F06919D
:0F075A004406914905F143069755067B46067BF9
:1007690045067B4708375005E02D05E42E06072B83
:1007790005E82306052008202A05A048000005FFF2
:100789003F3F3F00790AA2D5200314300509B9106B
:10079900020404B9080104A2D5200602500104206C
:1007A90002689202B51A005034C0E07F2030031964
:1007B9007F30A20272067205500F1207E6C202C20A
:1007C90006C205C2087F30800F300503E9C0E01278
:1007D9000535300503D0E0F9D0E0B51ACC3005175E
:1007E9007F30B9100C1205357F583004077F7880A7
:1007F90003B908031205353002057F2D0205357F3F
:10080900202008F87F2B2006F322920280CF286E41
:10081900756C6C2900D2011204FA3001F8C2017812
:100829001A30D50108F60205A02D50434958120483
:10083900FA2403B405004001E49008329312052616
:0D084900743A120526D203751A04020685C2
:101A7300EFC394414005EF94474016EFC394614090
:101A830005EF9467400BEFC394304008EF943A504E
:061A930003D38001C32211
:101B7500EFC39461400AEF947B5005EF24E0FF2208
:011B8500223D
:100DA500BB010689828A83E0225002E722BBFE024C
:090DB500E32289828A83E493227F
:100DBE00BB010CE58229F582E5833AF583E02250EA
:100DCE0006E92582F8E622BBFE06E92582F8E22234
:0D0DDE00E58229F582E5833AF583E493224E
:100DEB00BB010689828A83F0225002F722BBFE01E7
:020DFB00F322E1
:100DFD00FAE6FB0808E6F925F0F618E6CA3AF622F7
:00000001FF
