:1016BF000A2A2A2A2A2A2A2A2A2A2A2A2A2A2A2A9B
:1016CF002A2A2A2A2A2A2A2A2A2A2A2A2A2A2A2A6B
:1016DF002A2A2A2A2A2A2A2A2A2A2A2A2A2A000AA5
:1016EF002A2A2020202020475245454E564954593A
:1016FF0020434F4D4D554E49434154494F4E532072
:10170F00494E4320202020202020202A2A000A2A68
:10171F002A202020202020204849202D2052454CCF
:10172F0020426F6F74206C6F616465722056342E87
:10173F00302020202020202020202A2A000A0A20C2
:10174F00232323232320446F776E6C6F6164206300
:10175F006F64652066726F6D205541525420746F0F
:10176F00204352414D202D2042414E4B2D253032EA
:10177F00582023232323230A000A202D2D3E204601
:10178F00696E69736865642064756D70696E672032
:10179F0053464C415348000A0A202D2D3E205072CB
:1017AF00657373207265736574206F722068697436
:1017BF002027732720746F207265626F6F742074F7
:0A17CF0068652073797374656D007E
:10144000E4F59F121F94121F6CC2AFE4784AF69025
:101450002022121381000000007BFF7A1679BF1250
:1014600007ED7BFF7A1679EE1207ED7BFF7A17798D
:101470001D1207ED784AE61213B2154901151C3109
:1014800015364215124514F54614FC4A150250153E
:10149000935314B455153D5A15366215176514F15A
:1014A0006614FC6A15027015937314B475153D7AB1
:1014B0000000155A121F81E4784AF6784AE6FFC305
:1014C0006480948850207BFF7A17794CEF3395E045
:1014D000F50D8F0E1207ED784AE6F59F7F6D12002D
:1014E00036784A0680D5121F9475816F02210080DC
:1014F000837F018002E4FF120D66804675816F02D2
:1015000021007F011218EF7BFF7A1779881207ED0F
:101510008030121C39802B1217D980267BFF7A1756
:1015200079A61207ED9020221213810000000078A6
:101530004A7601021474E4FF1215998005E4FF1243
:101540000FDF784A7631021474784A309807A699EA
:10155000C2980214747601021474309806784AA670
:1015600099C29890202212132BEF2401FFE43EFE33
:10157000E43DFDE43CFC90202212135C7F807E3829
:101580007D017C00902022121344C31212E8500304
:09159000021474120AE70214743B
:101F6C00758921758DF2758780C289759850D28ECE
:051F7C00C299C2982289
:101F5500BF0A0AC29975990D3099FDC299C2998F28
:071F6500993099FDC2992299
:0F1FCA00E4786BF63098FD786BA699C298E6FF25
:011FD90022E5
:100000000219DB022103000000000002210B0000A6
:10001000000000022113000000000002211B00006C
:10002000000000022123000000000002212B00003C
:0600300000000002213374
:1019DB0078FFE4F6D8FD78007FFFE4F208DFFC75B2
:0519EB00812B021A2B04
:101F8100759F0075F10075F22075F3FF75F4FF750B
:031F9100F8002233
:101F9400759F0075F10075F22075F3FF75F4FF75F8
:031FA400F801221F
:101CF3000A202D2D3E2057616974696E6720666F37
:101D03007220496E74656C2D6865782066696C6510
:101D1300202E0066000A202042616E6B20436F6410
:101D23006520446F776E6C6F616420446F6E650A43
:011D330000AF
:031FDA00011E00E5
:100036008F09E47863F608F6785BF608F67854F6E6
:1000460008F67858F67861F608F67854F608F678E1
:1000560054E6FE08E6FFC39408EE94005015A8097E
:10006600EF25E028F8E4F608F6785506E61870DF7E
:100076000680DC7BFF7A1C79F31207ED7861E6FED9
:1000860008E6FFEE60030203D7EF1213B200BE00CC
:1000960001040101210201810301B10402400502AC
:1000A6005006025207025C08033F1303771403A5A8
:1000B6001503C416000003D7121FCA7858EFF6BFFF
:1000C6001B05786102024B7858E6FFB43A04E40255
:1000D600039A121ECC50030203D77858E6640A70BE
:1000E600030203D7E5092405F8E62401FF18E436E0
:1000F600FEE5092404F8A60608A6070203D7121C83
:10010600A37E00785FEEF608EFF67029785CE608C5
:10011600F6786176000876020203D7121CA37E00E9
:10012600785FEEF608EFF6785CE6FD78597600081B
:10013600A605EF6003020335121CA37E00785FEE6E
:06014600F608EFF660026E
:10014C008043785AE67F0018F6FE08EFF6785CE6F6
:10015C00FDEDFF7859EEF6FE08EFF6FF7C007864B3
:10016C0018ECF608F6EE18F6EF08F678617600084B
:10017C0076030203D77F5E121CA57E00785FEEF635
:10018C0008EFF6600408020337785EE6FFD39405A7
:10019C004003020252EF24047862F6E43318F6E4CA
:1001AC0078540203BF121CA3785F760008A6077868
:1001BC005D167863E6FC08E6FDC3902019E09D907F
:1001CC002018E09C5005ECF0A3EDF07F5C121FA70B
:1001DC007E00785FEEF608EFF6786406E61870019C
:1001EC0006EF4E7021C37857E694C818E694004089
:1001FC000BC29975992EE47856F608F6785706E6F0
:10020C001870230680207BFF7A1D79161207EDE506
:0B021C00092407F8E62401FF18E4366F
:10022700FEE5092406F8A60608A607785DE660033A
:100237000203D77861F602032F121CA3785F7600BA
:1002470008A6070876000203858000786176000813
:1002570076150203D77855E6184670397859F608A7
:10026700F6121CA37E00785FEEF608EFF6785D16AF
:10027700701518E6FFE47859F608A607E6F8E4795A
:100287005AF7E819F78007786176000876147854EA
:1002970076000203A0121CA37E00785FEEF608EF3B
:1002A700F6785D16600302033518E6FFE4FCFDC02F
:1002B70004A905AA06AB077859E6FE08E6FFE4D0CD
:1002C700001212DB7859EEF608EFF6C394FBEE94B2
:1002D700004016D3E694FE18E69400500C08740606
:1002E70026F61874FF36F6801EE509240BF8E62477
:1002F70001FF18E436FEE509240AF8A60608A60752
:070307007859760008760129
:10030E007859E6FE08E67810C333CE33CED8F9FF1F
:10031E007859EEF608EFF67863A60608F678617659
:10032E00000876130203D77861760008761402036C
:10033E00D7121CA37E00785FEEF608EFF6700E78EB
:10034E005BE67009785DE6700478618064E50924E7
:10035E0009F8E62401FF18E436FEE5092408F8A69C
:10036E000608A607E478618048785FE6FE08E6FF97
:10037E0064014E700708F6087616804DEF64034E42
:10038E0070047861802BEF64024E703D785BF678D6
:10039E0061F60876018032E5092403F8E62401FFB0
:1003AE0018E436FEE5092402F8A60608A607E47846
:1003BE0061F608F680137BFF7A1D79181207ED7827
:1003CE001E06786176000876177862E6641718467E
:0603DE0060030200822210
:101CA3007F5C7D5BAB098F0A8D0B8B0CE47868F648
:101CB3007865F67F65AD0C121AEC7867EFF624FDB4
:101CC30060F1240370257868E6700D7865E6C454E6
:101CD300F008F678680680DB7866E6796547F6E60D
:101CE300FFA80AF6A80BEF26F680007867E6FF2226
:101AEC008F0D8D0EA807E4F67869F608F6121FCA5A
:101AFC00786AA607E6FF24C6600A241F7015786969
:101B0C0076018049A80E0806E618700106786976F9
:101B1C0002803A121ECC500F7F6A121F17A80DA616
:101B2C0007E47869F68026786AE6B40A0518760424
:101B3C00801BE50E2405F8E62401FF18E436FEE5CB
:101B4C000E2404F8A60608A607786976037869E6D9
:021B5C00FF2266
:101F1700A807E6FF121FB9786BEFF6D3943950067E
:101F270074D026F68006786B74C926F6786BE6FFC0
:011F37002287
:101FA7008D828C83A807E6F0E06660037F01227FBD
:021FB700002206
:1003E4000A202D2D3E2053797374656D2069732086
:1003F400626F6F74696E6720757020002E000A4367
:1004040052432052656164000A202530326278002C
:100414000A636F6D6D6F6E20637263206D61746328
:100424006820253034780A000A636F6D6D6F6E2082
:10043400637263206661696C20253034782C6C6F9C
:100444002025303262782C68692025303262780A9F
:100454000042616E6B2025627520637263206D61BA
:1004640074636820253034780A000A42616E6B2078
:1004740025627520637263206661696C20253034BF
:10048400782C6C6F2025303262782C6869202530F6
:100494003262780A000A202D2D3E2052756E6E6954
:1004A4006E67206669726D776172650A0A000A20B8
:1004B4002D2D3E2044756D702073666C6173680049
:1004C4000A3078253034583A002025303258000A52
:1004D4000A202D2D3E2042616E6B20253032580AB1
:1004E400000A202D2D3E2044756D70206261636BDF
:1004F400757020636F6465000A202D2D3E205072B4
:100504006F6772616D2053464C41534820592F4EFA
:100514003F203A000A202D2D3E2044656C65746509
:100524002063757272656E7420636F646520592F41
:100534004E3F203A000A0A20232323232320446F1A
:10054400776E6C6F616420636F646520666F7220E0
:100554002D2042414E4B2D25303258202323232376
:10056400230A000A202D2D3E2057726974696E6794
:1005740020746F2073666C61736820000A0A202A55
:100584002A2A2053464C4153482070726F67726187
:100594006D6D696E67206572726F722040203078CD
:1005A4002530386C58202D20747279206167616978
:1005B4006E0A0A000A202A2A2A204552524F522043
:1005C400646F776E6C6F6164696E672066726F6DBD
:1005D400205541525420746F2052414D000A435219
:1005E400432042616E6B20256275203D20257800F2
:1005F4000A202A2A2A2050726F6772616D6D696E13
:10060400672073666C61736820646F6E65210A00ED
:100614000A202D2D3E204261636B757020636F6448
:100624006520696D61676520592F4E3F3A000A20A5
:100634002D2D3E2044656C657465206F6C642062CA
:1006440061636B757020696D61676520592F4E3F3A
:100654003A000A0A202D2D3E204261636B696E67C1
:1006640020757020636F646520696D616765200083
:100674000A202A2A2A20436F646520726573746FE6
:1006840072696E67206572726F722040203078251F
:1006940030386C580A0A000A202D2D3E204261632E
:1006A4006B757020636F646520646F6E6521000A4A
:1006B40020436865636B696E6720696E7465677251
:1006C400697479206F66204261636B7570202E2EE9
:1006D4002E000A42616E6B204944202562752C432A
:1006E40052432025303458000A202D2D3E205265D7
:1006F400636F76657220636F646520696D616765F9
:1007040020592F4E3F3A000A202D2D3E2044656C7F
:1007140065746520636F646520696D616765205940
:100724002F4E3F3A000A202D2D3E20526573746FE0
:1007340072696E6720636F646520696D6167652007
:10074400000A202D2D3E20526573746F72696E6706
:0D07540020636F646520696D616765206436
:100761006F6E6521000A4261636B757020696E745A
:10077100656772697479206661696C65642E0A2007
:0A0781004350552052657365740063
:101E2000AA06EF6205EDC454F06205EDF583EAFF02
:101E3000E583FEEDC4540FFBEEFAEF6BFBAF05EF4D
:0D1E400075F008A4FFE5F06AFEEF6BFF22CD
:100AE700E47855F67BFF7A0379E41207ED121F814C
:100AF700784D7620087600E47851F608F6F59F08D9
:100B0700F608F6784FF608F6784DE6FE08E6FFF5A4
:100B1700828E83E493784BF68F828E83F0C3784F6F
:100B2700E6940140157853E6FE08E6FF784BE6FDAC
:100B3700121E207853A60608A607784E06E61870F8
:100B47000106785206E6187001067851B6131308A5
:100B5700B6880F7BFF7A0479001207EDE47851F627
:100B670008F6785006E618700106C3784FE694E059
:100B770040967BFF7A0479021207ED784D762008BC
:100B87007600E408F608F67BFF7A04790C784DE6E0
:100B9700FE08E6F5828E83E0F50D1207ED784E0626
:100BA700E618700106785006E618700106C37850FB
:100BB700E6941118E6940040CE7853E6FE08E6FF67
:010BC700FD30
:100BC800902000E0FBEDB5031CEEFFA3E0FDEFB5C0
:100BD80005137BFF7A04791418E6F50D08E6F50E7F
:100BE8001207ED80207BFF7A04792C7853E6F50D07
:100BF80008E6F50E902000E0F50FA3E0F5101207C7
:100C0800ED785576017855E664017003020D57E4D6
:100C18007851F608F6784C7601784CE6FFC39408CC
:100C28004003020D3E8F9F0876A0087600E47853B3
:100C3800F608F6784FF608F6784DE6FE08E6FFF572
:100C4800828E83E493784BF6E6FD8F828E83F0786C
:100C580053E6FE08E6FF121E2018A60608A6077827
:100C68004E06E618700106785206E61870010678F6
:100C780051B6131308B6880F7BFF7A047900120760
:100C8800EDE47851F608F6785006E618700106C3C8
:100C9800784FE6946040A1784CE6F975F002A424F8
:0B0CA80000FFE5F034208F82F583E0B0
:100CB300FF7853E6FC08E6FD6F7001E4702FE975D9
:100CC300F002A42401FFE5F034208F82F583E0FBDA
:100CD300ECB503197BFF7A047955784CE6F50D786A
:100CE30053E6F50E08E6F50F1207ED80417BFF7A18
:100CF30004796E784CE6FFF50D7853E6F50E08E6B9
:100D0300F50FEF75F002A4FFAEF02400FDEE3420E2
:100D13008D82F583E0F510EF2401FFEE34208F82FE
:100D2300F583E0F5111207ED78557601800D7855BE
:100D3300E664016006784C06020C21121F94785574
:100D4300E66401600F7BFF7A0479991207ED7581E0
:100D53006F022100121F947F01120FDF9000347481
:030D630001F0227A
:1018EF00BF010C121F817BFF7A0479B21207ED78CA
:1018FF004B7620087600E408F608F6784BE6FE08EB
:10190F00E6FF5407700D7BFF7A0479C48E0D8F0E9E
:10191F001207ED784BE6FE08E6F5828E83E493FF1F
:10192F00784FF6784C06E6187001067BFF7A04793B
:10193F00CD750D008F0E1207ED784E06E61870016B
:10194F0006C3784DE694E040B2785076017850E6C1
:10195F00FFC3940850727BFF7A0479D3750D008F03
:10196F000E1207ED7850E6F59F784B76A0087600BB
:10197F00E408F608F6784BE6FE08E6FF5407700D0C
:10198F007BFF7A0479C48E0D8F0E1207ED784BE62C
:10199F00FE08E6F5828E83E493FF784FF6784C06C7
:1019AF00E6187001067BFF7A0479CD750D008F0E56
:1019BF001207ED784E06E618700106C3784DE694CF
:0C19CF006040B27850068085121F942200
:1017D90090201A121381000500007BFF7A0479E535
:1017E9001207EDE4784DF608F6784DE6FE08E6FFB7
:1017F900C3EE94E05058EF540770127BFF7A0479D6
:10180900C426F50E18E63420F50D1207ED90201ABE
:1018190012132B121EF2784FA60790201A12132BBF
:10182900EF2401FFE43EFEE43DFDE43CFC90201A78
:1018390012135C7BFF7A0479CD784FE6750D00F5BC
:101849000E1207ED784E06E618709E06809B7850BA
:1018590076017850E6FFC3940840030218EE7BFF37
:101869007A0479D3750D008F0E1207ED784B76A0A7
:10187900087600E408F608F6784BE6FE08E6FF5419
:1018890007700D7BFF7A0479C48E0D8F0E1207ED58
:10189900784C06E61870010690201A12132B121EB6
:1018A900F2784FA60790201A12132BEF2401FFE4B8
:1018B9003EFEE43DFDE43CFC90201A12135C7BFFE4
:1018C9007A0479CD784FE6750D00F50E1207ED789B
:0718D9004E06E6187001063F
:0F18E000C3784DE69460409978500602185B2259
:101B5E008F198E188D178C16E4FFE4FDFC78081291
:101B6E00130CC004C005C006C007E519FFE4FEFD56
:101B7E00FC781812130CD003D002D001D000121230
:101B8E00DBC004C005C006C007E4FFFEE517FDE498
:101B9E00FC78081212F9D003D002D001D000121234
:101BAE00DBC004C005C006C007E4FFFEFDE516FC61
:101BBE0078181212F9D003D002D001D0001212DB25
:011BCE0022F4
:101E4D009020187421F0A3E4F0902018E0FCA3E09A
:101E5D00FDF5828C83EFF0C3ED94FFEC94FF500CF5
:0D1E6D00902018E475F00112126980DD224A
:100D66008F08E4784CF608F608F608F67853F67B12
:100D7600FF7A0479FC1207ED121FCA784BEFF6646E
:100D8600596003763122E4784BF67BFF7A057918B1
:100D96001207ED121FCA784BEFF6645960037631DD
:100DA600227F01121E7A121BCF121F81E4784BF6A6
:100DB6007BFF7A057939784BE6750D00F50E12073B
:100DC600ED784BE6F59F7FFF121E4DE4902018F05C
:100DD600A3F07F6D120036784BE6FB701190201A57
:100DE6001213810000010090201474218030EBFF63
:100DF6007E007C007D06121257EF2408FFE43EFEBB
:100E0600E4FD90201A12135C90201A12132B780C12
:100E160012130C90201A12135C90201474A0F0A3E5
:100E2600E4F07876E618466003020F25784BE678FC
:100E360050700676DF08F680057660087600E4785E
:100E46004CF608F608F608F6784EE6FC08E6FDC30A
:100E5600785196EC1896502B784CE6FE08E6FF90F3
:020E6600201555
:100E6800E02DFD902014E03C8D82F583E0FD121EFC
:100E78002018A60608A607784F06E61870C8068048
:100E8800C57BFF7A0579671207ED90201A12132B9C
:100E9800902014E0FAA3E0F5828A83E0F50D121D94
:100EA800EF90201A12132B121EF27852EFF69020B0
:100EB80014E0FCA3E0F5828C83E06F60167BFF7A78
:100EC80005798090201A12132B8F108E0F8D0E8C9F
:100ED8000D8050902015E070097BFF7A047900128C
:100EE80007ED902018E0FEA3E0FFC3902015E09FD7
:100EF800902014E09E503190201A12132BEF2401F9
:100F0800FFE43EFEE43DFDE43CFC90201A12135C35
:100F1800902014E475F001121269020E927BFF7A98
:100F28000579B81207ED8067784BE675F002A4FFE3
:100F3800AEF0E4FCFD784DE6F50D121DEF784BE6BA
:100F480075F002A4FFAEF0E4FCFD121EF2784DE647
:100F58006F7001E460028037784BE675F002A424D4
:060F680001FFE435F0FE7C
:100F6E00E4FCFD08E6F50D121DEF784BE675F00278
:100F7E00A42401FFE435F0FEE4FCFD121EF2EFFDA9
:100F8E00784CE66D7001E4600678537601802A7B1A
:100F9E00FF7A0579E1784BE6F50D08E6F50E08E6E1
:100FAE00F50F1207ED784B06E664086003020DB6E6
:100FBE007BFF7A0579F41207ED121F94E4FF121EDF
:100FCE007AE508B4010A7853E670057F0112159987
:010FDE0022F0
:10159900AB0790201A1213810000000090201E1240
:1015A900138100050000EB70387BFF7A067914126D
:1015B90007ED121FCA7854EFF6C299F599EF6459ED
:1015C90060037F00227BFF7A0679321207ED121F32
:1015D900CA7854EFF6C299F599EF645960037F0010
:1015E900227F01121E7A121C397BFF7A0679560274
:1015F90016A890201A12132B121EF27854EFF6FB3C
:1016090090201E12132B8B0D121DEF90201E12130A
:101619002B121EF27854E66F601F7BFF7A067974ED
:1016290090201A12132B8F108E0F8D0E8C0D12070E
:10163900EDE4FF121E7A7F01227FFF7E7F7D087C09
:101649000090201E121344C31212E8505890201A19
:1016590012132BEF2401FFE43EFEE43DFDE43CFCC4
:1016690090201A12135C90201E12132BEF2401FFF5
:10167900E43EFEE43DFDE43CFC90201E12135C9028
:10168900201E12132BEE5401FEE4FDFCFBFAF9F8BF
:10169900C31212E860030215FB7BFF7A047900127A
:1016A90007ED0215FB7BFF7A06799B1207EDE4FF34
:0616B900121E7A7F0022E0
:100FDF008F08E47857F608F608121368000000002F
:100FEF00E47861F608F67BFF7A0679B31207EDE431
:100FFF007861F67861E6FFC394084003021122EF8F
:10100F00786370121213680000DF00785D121368A6
:10101F0000050100802F121368000060007861E660
:10102F0024FFFFE434FFFEE4FCFD78631213371254
:10103F00128CE42FFFEE34E0FEED3405FDE43CFCB2
:10104F00785D121350E47857F608F690201E1213AD
:10105F008100000000786312131F90201E121344AA
:10106F00C31212E8504090201E12132B785D1213FA
:10107F003712127F121EF27856EFF6FD08E6FE08C1
:10108F00E6FF121E2018A60608A60790201E1213B0
:10109F002BEF2401FFE43EFEE43DFDE43CFC9020F9
:1010AF001E12135C80AF7BFF7A0679D67861E6F566
:1010BF000D7857E6F50E08E6F50F1207ED7861E6A5
:1010CF0075F002A4FFE42FFFE435F0FEE43405FDD4
:0C10DF00E433FC121EF27858E66F70013A
:1010EB00E4600280257861E675F002A4FFEF24012D
:1010FB00FFE435F0FEE43405FDE433FC121EF2EFA1
:10110B00FD7857E66D7001E4600778627601021294
:10111B003A78610602100290201A12138100000027
:10112B000090201E12138100050000E50870387B2B
:10113B00FF7A0679EC1207ED121FCA7856EFF6C24A
:10114B0099F599EF645960037F00227BFF7A077949
:10115B000B1207ED121FCA7856EFF6C299F599EFED
:10116B00645960037F0022121BCF7BFF7A0779291A
:10117B0002122B90201E12132B121EF27856EFF632
:10118B00FB90201A12132B8B0D121DEF90201A12AD
:10119B00132B121EF27856E66F601F7BFF7A0679CF
:1011AB007490201A12132B8F108E0F8D0E8C0D1224
:1011BB0007EDE4FF121E7A7F01227FFF7E7F7D0801
:1011CB007C0090201E121344C31212E8505890203A
:1011DB001A12132BEF2401FFE43EFEE43DFDE43C29
:1011EB00FC90201A12135C90201E12132BEF24017B
:1011FB00FFE43EFEE43DFDE43CFC90201E12135C3C
:10120B0090201E12132BEE5401FEE4FDFCFBFAF9A9
:10121B00F8C31212E8600302117E7BFF7A04790097
:10122B001207ED02117E7BFF7A0779451207EDE479
:10123B00FF121E7A7862E6B4010F7BFF7A0779669C
:0C124B001207ED9000347401F07F0022C7
:101D75000A202D2D3E2044656C6574696E672063CD
:101D85006F646520696D61676520002E000A202D4E
:101D95002D3E2044656C6574696E67206261636BD6
:0F1DA500757020636F646520696D61676520004C
:0F1A70008F138E128D11F510E4F514F5157F0408
:021A7F008F0FC7
:101A8100AF13AE12AD11AC10121B5E786912135078
:101A9100786912131F90030C12135C900307E5146D
:101AA100F0900306E50FF0E5156021900308740539
:101AB100F0900300E07868F67868E660079003002C
:101AC100E0F680F49003087403F080069003087434
:101AD10005F0900300E07868F67868E66007900307
:0A1AE10000E0F680F4900308E4F042
:011AEB0022D8
:101F3800BF0106E47513068004E4751304F512F571
:0D1F480011F510F514F5157F01121A7F2216
:101E7A008F0E7F01121F38E50EB40105E4F51380B9
:101E8A0004E47513BC751201F511F510F514F51576
:091E9A007F02121A7F121DB4220E
:101DB4009003067401F090030C7405F0900308F08E
:101DC400900300E07868F670F79003087403F090CD
:101DD4000300E07868F670F790030CE0540178682B
:0A1DE400F6640160CB900308E4F000
:011DEE0022D2
:091D3400E6FFE4FCFDFE750D0163
:101D3D008F0C8E0B8D0A8C097F01121E7A7F01127A
:101D4D001F38E50DAF0CAE0BAD0AAC09B4010A7826
:101D5D001012130CEC44D88008780F12130CEC44BD
:081D6D0052121A70121DB4227B
:101BCF007BFF7A1D79751207EDE47867F67BFF7A54
:101BDF001D79901207ED7867121D34786706E6C3FA
:101BEF00940440E9E47867F67BFF7A1D7990120739
:101BFF00ED7867E6FFE4FCFDFEF50D121D3D7867FD
:101C0F0006E6C3940840E1E47867F67867E6FFC319
:101C1F0094405015E4FCFDFE121EA37BFF7A1D7944
:091C2F00901207ED78670680E2CF
:011C38002289
:101C39007BFF7A1D79921207ED785576047BFF7A3E
:101C49001D79901207ED7855121D34785506E6C3B3
:101C5900940940E9785576087BFF7A1D7990120737
:101C6900ED7855E6FFE4FCFDFEF50D121D3D7855B6
:101C790006E6C3941240E1785576407855E6FFC3ED
:101C890094905015E4FCFDFE121EA37BFF7A1D798A
:091C9900901207ED78550680E277
:011CA200221F
:101DEF008F0C8E0B8D0A8C097F01121F38E50CFFAB
:101DFF00E50BFEE50AFDE50944028F138E128D11E6
:101E0F00F510850D14E4F5157F05121A7F121DB418
:011E1F0022A0
:101EF2008F0C8E0B8D0A8C09E50944038F138E1209
:101F02008D11F510E4F5147515017F04121A7F90F6
:051F1200030CE0FF22BA
:101EA3008F0C8E0B8D0A8C097F01121E7A7F011213
:101EB3001F38AF0CAE0BAD0AAC09780C12130CEC47
:091EC3004420121A70121DB42211
:1019F000021440E493A3F8E493A34003F68001F2B9
:101A000008DFF48029E493A3F85407240CC8C333F7
:101A1000C4540F4420C8834004F456800146F6DFC6
:101A2000E4800B0102040810204080901FDAE47E5D
:101A3000019360BCA3FF543F30E509541FFEE493BB
:101A4000A360010ECF54C025E060A840B8E493A382
:101A5000FAE493A3F8E493A3C8C582C8CAC583CAAD
:101A6000F0A3C8C582C8CAC583CADFE9DEE780BE65
:011FDD000003
:10125700EF8DF0A4A8F0CF8CF0A428CE8DF0A42EAB
:02126700FE2265
:10126900C5F0F8A3E028F0C5F0F8E5821582700210
:061279001583E038F022AD
:0D127F00EF2BFFEE3AFEED39FDEC38FC22BE
:10128C00E88FF0A4CC8BF0A42CFCE98EF0A42CFC01
:10129C008AF0EDA42CFCEA8EF0A4CDA8F08BF0A47F
:1012AC002DCC3825F0FDE98FF0A42CCD35F0FCEBDE
:1012BC008EF0A4FEA9F0EB8FF0A4CFC5F02ECD39A3
:0F12CC00FEE43CFCEAA42DCE35F0FDE43CFC2210
:0D12DB00EF4BFFEE4AFEED49FDEC48FC2212
:1012E800EB9FF5F0EA9E42F0E99D42F0E89C45F05C
:0112F80022D3
:1012F900E8600FECC313FCED13FDEE13FEEF13FFD3
:03130900D8F122F6
:10130C00E8600FEFC333FFEE33FEED33FDEC33FC3F
:03131C00D8F122E3
:0C131F00E6FC08E6FD08E6FE08E6FF22FA
:0C132B00E0FCA3E0FDA3E0FEA3E0FF2235
:0D133700E6FB08E6F908E6FA08E6CBF82226
:0C134400E0F8A3E0F9A3E0FAA3E0FB222C
:0C135000ECF608EDF608EEF608EFF622C9
:0C135C00ECF0A3EDF0A3EEF0A3EFF02204
:10136800D083D082E493F608740193F6087402934C
:09137800F608740393F674047383
:10138100A8828583F0D083D0821213981213981209
:101391001398121398E473E493A3C583C5F0C5832E
:1013A100C8C582C8F0A3C583C5F0C583C8C582C8B6
:0113B1002219
:1013B200D083D082F8E4937012740193700DA3A3CA
:1013C20093F8740193F5828883E4737402936860DE
:0613D200EFA3A3A380DFDE
:10078B00E519240DF8E6051922780A300702780DD1
:10079B00E475F0011214300213D82000EB7F2ED237
:1007AB00008018EF540F2490D43440D4FF30040B46
:1007BB00EF24BFB41A0050032461FFE51A60021541
:1007CB001A051DE51D7002051C30070D780AE4752E
:1007DB00F001121430EF02141E021F557403D207DE
:1007EB008003E4C207F5198B0A8A0B890CE4F51A0E
:1007FB00F51CF51DE51A60077F201207C680F575FD
:10080B001BFFC201C200C202C203C205C206C2085C
:10081B00120794FF700D3007057F001207D7AF1D2D
:10082B00AE1C22B4255FC2D5C204120794FF24D09C
:10083B00B40A00501A75F00A781A30D50508B6FFBD
:10084B000106C6A426F620D5047002D20380D92453
:10085B00CFB41A00EF5004C2E5D2040209D7D2017B
:10086B0080C6D20080C0D20280BCD2D580BAD2055D
:10087B0080B47F201207C62002077401B51A00400E
:10088B00F112078BFF1207C60207FFD208D20680B0
:10089B009512078BFB12078BFA12078BF94A4B70D9
:1008AB000679A87A0A7BFF20022EE51A602A7E00C1
:1008BB008E827583001213F160060EEE651B70F0CD
:1008CB00C2D5EBC0E0EAC0E0E9C0E0EE120A1ED0F0
:1008DB00E0F9D0E0FAD0E0FB1213D8FF60AAEBC02E
:1008EB00E0EAC0E0E9C0E01207C6D0E02401F9D08D
:1008FB00E03400FAD0E0FBE51B0460DCD51BD980AB
:10090B00877BFF7A0A791AD202809C791080027950
:10091B0008C206C2088008D2D5790A8004790AC2B7
:10092B00D5E51B047002F51BE4FAFDFEFF12078BE5
:10093B00FC7B0820011312078BFD7B1030000A1281
:10094B00078BFE12078BFF7B20EC3382D592D550A1
:10095B0013C3E43000069FFFE49EFEE42001039DD9
:10096B00FDE49CFCE4CBF8C201EC700CCFCECDCCFB
:10097B00E824F8F870F38017C3EF33FFEE33FEED86
:10098B0033FDEC33FCEB33FB994002FB0FD8E9EB67
:10099B00300105F8D0E0C448B201C0E00AEC4D4E7E
:1009AB004F78207B0070C2EAB51B0040BCC0E01240
:1009BB000A20D0F0D0E0200104C4C0E0C4B201C0D2
:1009CB00F01207AFD0F0D5F0EB0207FF1213B2080D
:1009DB009C53091658086D4C086942091A4F092295
:0F09EB0044092249088243092855090C46090C82
:1009FA0045090C470AC85008712D08752E08982B0E
:100A0A000879230896200AB12A083148000008907C
:100A1A003F3F3F00790AA2D5200314300509B910D7
:100A2A00020404B9080104A2D520060250010420D8
:100A3A0002689202B51A005034C0E07F20300319D0
:100A4A007F30A20272067205500F120A77C202C2E2
:100A5A0006C205C2087F30800F300503E9C0E012E4
:100A6A0007C6300503D0E0F9D0E0B51ACC30051737
:100A7A007F30B9100C1207C67F583004077F788080
:100A8A0003B908031207C63002057F2D0207C67F85
:100A9A00202008F87F2B2006F322920280CF286EAE
:100AAA00756C6C2900D20112078B3001F8C20178EB
:100ABA001A30D50108F60208312D50434958120759
:100ACA008B2403B405004001E4900AC3931207B7CC
:0D0ADA00743A1207B7D203751A0402091608
:101ECC00EFC394414005EF94474016EFC394614033
:101EDC0005EF9467400BEFC394304008EF943A50F1
:061EEC0003D38001C322B4
:101FB900EFC39461400AEF947B5005EF24E0FF22C0
:011FC90022F5
:1013D800BB010689828A83E0225002E722BBFE0213
:0913E800E32289828A83E4932246
:1013F100BB010CE58229F582E5833AF583E02250B1
:1014010006E92582F8E622BBFE06E92582F8E222FA
:0D141100E58229F582E5833AF583E4932214
:10141E00BB010689828A83F0225002F722BBFE01AD
:02142E00F322A7
:10143000FAE6FB0808E6F925F0F618E6CA3AF622BD
:00000001FF
