:100D33000A2A2A2A2A2A2A2A2A2A2A2A2A2A2A2A30
:100D43002A2A2A2A2A2A2A2A2A2A2A2A2A2A2A2A00
:100D53002A2A2A2A2A2A2A2A2A2A2A2A2A2A000A3A
:100D63002A2A2020202020475245454E56495459CF
:100D730020434F4D4D554E49434154494F4E532007
:100D8300494E4320202020202020202A2A000A2AFE
:100D93002A20202020202020202020426F6F742032
:100DA3006C6F616465722056322E30202020202023
:100DB300202020202020202020202A2A000A2A2A3E
:100DC3002A2A2A2A2A2A2A2A2A2A2A2A2A2A2A2A80
:100DD3002A2A2A2A2A2A2A2A2A2A2A2A2A2A2A2A70
:100DE3002A2A2A2A2A2A2A2A2A2A2A0A0A000A0A0A
:100DF300202323232320446F776E6C6F6164206369
:100E03006F64652066726F6D205541525420746F74
:100E1300204352414D202D2042414E4B2D2530324F
:100E23005820232323230A000A0A202D2D3E20467F
:100E3300696E69736865642074657374696E67208D
:100E43004352414D0A000A0A202D2D3E2046696E69
:100E530069736865642064756D70696E67204352B9
:100E6300414D0A000A0A202D2D3E2046696E697302
:100E73006865642064756D70696E672053464C41E4
:100E830053480A000A0A202D2D3E2046696E6973D5
:100E93006865642064756D70696E67204552414DC5
:100EA3000A000A0A202D2D3E2050726573732072AA
:100EB30065736574206F7220686974202773272017
:100EC300746F207265626F6F742074686520737924
:070ED3007374656D0A0A004B
:100EDA00E4F59F121FA7121F6AC2AFE4784EF67894
:100EEA004A1216A5000000007BFF7A0D793312051D
:100EFA005E7BFF7A0D796212055E7BFF7A0D79912E
:100F0A0012055E7BFF7A0D79C012055E784EE612F5
:100F1A0016EF101E010FF631100F420FC1440FF1E8
:100F2A00450FA8460FBB4A0FD1500FE15210655327
:100F3A000FAD540F685510145A100F620FC1640F89
:100F4A00F1650FA8660FBB6A0FD1700FE1721065C9
:100F5A00730FAD740F687510147A0000102F121FEA
:100F6A0094E4784EF6784EE6FFC364809488502263
:100F7A007BFF7A0D79F1EF3395E0F50D8F0E1205AF
:100F8A005E784EE6F59F7F747D68120036784E06CD
:100F9A0080D3121FA775816F022100020F16120B50
:100FAA0078806A12106B7BFF7A0E792B12055E80AD
:100FBA005C75816F022100E4FF1214C67BFF7A0E72
:100FCA00794912055E80467F011214C67BFF7A0EAC
:100FDA00796712055E80367F021214C67BFF7A0E8D
:100FEA00798712055E802612177D80217BFF7A0E93
:100FFA0079A512055E784A1216A500000000784EFF
:10100A007601020F161211F6800312135E784E76DD
:10101A0031020F16784E309807A699C298020F1619
:10102A007601020F16309806784EA699C298784A29
:10103A00121674EF2401FFE43EFEE43DFDE43CFC9D
:10104A00784A12168D7F807E387D017C00784A129C
:0E105A001680C312163D5003020F161219B372
:03106800020F165E
:101F6A00758921758DF2758780C289759850D28ED0
:051F7A00C299C298228B
:101F5300BF0A0AC29975990D3099FDC299C2998F2A
:071F6300993099FDC299229B
:0F1FDD00E47867F63098FD7867A699C298E6FF1A
:011FEC0022D2
:10000000021F7F022103000000000002210B0000FC
:10001000000000022113000000000002211B00006C
:10002000000000022123000000000002212B00003C
:0600300000000002213374
:101F7F0078FFE4F6D8FD78007FFFE4F208DFFC7508
:051F8F00812B020EDAB7
:101F9400759F0075F10075F22075F3FF75F4FF75F8
:031FA400F8002220
:101FA700759F0075F10075F22075F3FF75F4FF75E5
:031FB700F801220C
:1018AF000A202D2D3E2057616974696E6720666F7F
:1018BF007220496E74656C2D6865782066696C6559
:1018CF00202E0066000A202D2D3E20436F646520D8
:1018DF00446F776E6C6F61642053756D6D617279B3
:1018EF000A00202E5375636365737366756C6C798C
:1018FF0020646F776E6C6F616465642062797465C4
:10190F002873293A2025750A00202E466F756E64BC
:10191F00206C696E652873293A2025750A00202EE0
:10192F0046616C7365206C696E652873293A2025B2
:10193F00750A00202E5265636F726420747970658A
:10194F00206572726F722873293A2025750A00205C
:10195F002E4E6F6E206173636969206469676974C5
:10196F002873293A2025750A00202E4572726F724E
:10197F0020646F776E6C6F61646564206279746543
:10198F002873293A2025750A00202E4661696C6557
:10199F006420636865636B73756D652873293A20DE
:0419AF0025750A0090
:100036008F088D09E4785FF608F67857F608F678A3
:1000460050F608F67854F6785DF608F67850F60815
:10005600F67850E6FE08E6FFC39408EE94005015C5
:10006600A808EF25E028F8E4F608F6785106E61821
:1000760070DF0680DCE47850F608F67850E6FE0875
:10008600E6FFC39406EE94005015A809EF25E02874
:10009600F8E4F608F6785106E61870DF0680DC7B91
:1000A600FF7A1879AF12055E785DE6FE08E6FFEE88
:1000B60060030204EFEF1216EF00EA0001400101AF
:1000C6005D0201BD0301ED04028D0502BE0602C0FC
:1000D6000702CA0803AF1303FF14043215045216AD
:1000E600000004EF121FDD7854EFF6BF1B03020277
:1000F600B77854E6FFB43A16E47857F6785DF60812
:100106007601A8090806E6187001060204EF121E19
:10011600EF50030204EF7854E6640A70030204EF1A
:10012600E5082405F8E62401FF18E436FEE5082470
:0A01360004F8A60608A6070204EF6D
:10014000121D407E00785BEEF608EFF670297858B5
:10015000E608F6785D76000876020204EF121D408C
:100160007E00785BEEF608EFF67858E6FD78557677
:100170000008A605EF60030203A5121D407E00786B
:100180005BEEF608EFF6600280437856E67F0018D3
:10019000F6FE08EFF67858E6FDEDFF7855EEF6FE30
:1001A00008EFF6FF7C00786018ECF608F6EE18F61B
:1001B000EF08F6785D76000876030204EF7F5A12A6
:1001C0001D427E00785BEEF608EFF660040802033D
:1001D000A7785AE6FFD3940540030202C0EF240437
:1001E000785EF6E43318F6E4785002044C121D40B1
:1001F000785B760008A607785916785FE6FC08E673
:10020000FDC3902105E09D902104E09C5005ECF099
:10021000A3EDF07F58121FBA7E00785BEEF608EF70
:10022000F6786006E618700106EF4E7032C3785318
:10023000E694C818E69400400BC29975992EE478AC
:1002400052F608F6785306E618700106E50924050B
:10025000F8E62401FF18E436FEE5092404801A7B41
:10026000FF7A1879D212055EE5082407F8E6240122
:10027000FF18E436FEE5082406F8A60608A6077867
:1002800059E660030204EF785DF602039F121D40F9
:100290007E00785BEEF608EFF6701C7857E6701774
:1002A000E5092409F8E62401FF18E436FEE50924EF
:1002B00008F8A60608A607785D760002040D8000FF
:1002C000785D76000876150204EF7851E6184670DE
:1002D000397855F608F6121D407E00785BEEF60878
:1002E000EFF6785916701518E6FFE47855F608A66B
:1002F00007E6F8E47956F7E819F78007785D7600A5
:0503000008761478509E
:10030500760002042C121D407E00785BEEF608EFA5
:10031500F678591660030203A518E6FFE4FCFDC054
:1003250004A905AA06AB077855E6FE08E6FFD00046
:10033500EF4BFFEE4AFE7855EEF608EFF6C394FB59
:10034500EE94004016D3E694FE18E69400500C088F
:10035500740626F61874FF36F6801EE508240BF899
:10036500E62401FF18E436FEE508240AF8A6060887
:10037500A607785576000876017855E6FE08E678F2
:1003850010C333CE33CED8F9FF7855EEF608EFF625
:10039500785FA60608F6785D76000876130204EF06
:1003A500785D76000876140204EF121D407E007811
:1003B5005BEEF608EFF670267857E670217859E679
:1003C500701CE5092409F8E62401FF18E436FEE56A
:0C03D500092408F8A60608A607E4785DD5
:1003E1008069E5082409F8E62401FF18E436FEE5F2
:1003F100082408F8A60608A607E4785D804D785B16
:10040100E6FE08E6FF64014E700808F6087616025B
:1004110004EFEF64034E7004785D802FEF64024EA9
:1004210060030204EF7857F6785DF608760102045E
:10043100EFE5082403F8E62401FF18E436FEE50899
:100441002402F8A60608A607E4785DF608F6020479
:10045100EF7BFF7A1879D412055E7BFF7A1879F168
:10046100E5092404F8E6F50D08E6F50E12055E7BB4
:10047100FF7A197918A809E6F50D08E6F50E1205B7
:100481005E7BFF7A19792DA808E6F50D08E6F50ED1
:1004910012055E7BFF7A197942E5082402F8E6F538
:1004A1000D08E6F50E12055E7BFF7A19795EE50807
:1004B1002404F8E6F50D08E6F50E12055E7BFF7AD9
:1004C100197978E5082406F8E6F50D08E6F50E1227
:0A04D100055E7BFF7A197998E508B3
:1004DB002408F8E6F50D08E6F50E12055E785D7654
:1004EB0000087617785EE66417184660030200AEC4
:0104FB0022DE
:101D40007F587D57AB088F0A8D0B8B0CE47864F6B7
:101D50007861F67F61AD0C121BA77863EFF624FD66
:101D600060F1240370257864E6700D7861E6C45450
:101D7000F008F678640680DB7862E6796147F6E67B
:101D8000FFA80AF6A80BEF26F680007863E6FF228C
:101BA7008F0D8D0EA807E4F67865F608F6121FDD8F
:101BB7007866A607E6FF24C6600A241F70157865B5
:101BC70076018049A80E0806E61870010678657642
:101BD70002803A121EEF500F7F66121F15A80DA63E
:101BE70007E47865F680267866E6B40A0518760471
:101BF700801BE50E2405F8E62401FF18E436FEE510
:101C07000E2404F8A60608A607786576037865E625
:021C1700FF22AA
:101F1500A807E6FF121FCC7867EFF6D39439500671
:101F250074D026F68006786774C926F67867E6FFCA
:011F35002289
:101FBA008D828C83A807E6F0E06660037F01227FAA
:021FCA000022F3
:100858000A202D2D3E2054657374696E67206372DB
:10086800616D0A002E000A4661696C6564204020AB
:1008780042616E6B25783A204164643A25303458D9
:1008880020446174613A25303258000A202D2D3EEB
:100898002053797374656D20697320626F6F746972
:1008A8006E6720757020000A202D2D3E2052756E2F
:1008B8006E696E67206669726D776172650A0A00F3
:1008C8000A202D2D3E2044756D70204352414D0065
:1008D8000A202D2D3E2044756D702073666C61735F
:1008E80068000A202D2D3E2044756D702036344B4B
:1008F800204552414D000A3078253034583A0020BE
:1009080025303258000A0A202D2D3E2042616E6B98
:1009180020253032580A000A202D2D3E2044756DBE
:1009280070206261636B757020636F6465000A20D4
:100938002D2D3E2050726F6772616D2053464C41D9
:10094800534820592F4E3F203A000A202D2D3E2093
:1009580044656C6574652063757272656E74206396
:100968006F646520592F4E3F203A000A0A2023233E
:1009780023232320446F776E6C6F616420636F6458
:100988006520666F72202D2042414E4B2D25303256
:10099800582023232323230A000A202D2D3E2057E5
:1009A800726974696E6720746F2073666C6173680E
:1009B80020000A0A202A2A2A2053464C415348205C
:1009C80070726F6772616D6D696E67206572726FA4
:1009D8007220402030782530325825303458202D68
:1009E8002074727920616761696E0A0A000A202AF8
:1009F8002A2A204552524F5220646F776E6C6F61DD
:100A080064696E672066726F6D2055415254207478
:100A18006F2052414D000A202A2A2A2050726F67FF
:100A280072616D6D696E672073666C6173682064AE
:100A38006F6E65210A000A202D2D3E204261636BEE
:100A4800757020636F646520696D61676520592F33
:100A58004E3F3A000A202D2D3E2044656C65746592
:100A6800206261636B757020696D61676520592F1D
:100A78004E3F3A000A0A202D2D3E204261636B69E1
:100A88006E6720757020636F646520696D616765A6
:100A980020000A202A2A2A204261636B757020658B
:100AA80072726F72204020307825303458253034E7
:100AB800580A0A000A202D2D3E204261636B75708A
:100AC80020636F646520646F6E6521000A202D2DF8
:100AD8003E205265636F76657220636F6465206996
:100AE8006D61676520592F4E3F3A000A202D2D3E33
:100AF8002044656C65746520636F646520696D6169
:100B0800676520592F4E3F3A000A202D2D3E20526E
:100B18006573746F72696E6720636F646520696DB1
:100B280061676520000A202A2A2A20436F6465200D
:100B3800726573746F72696E67206572726F722066
:100B48004020307825303458253034580A0A000AB5
:100B5800202D2D3E20526573746F72696E67206375
:100B68006F646520696D61676520646F6E6521003B
:10106B00121F947BFF7A08795812055EE4F59F787E
:10107B0051762008F608F608F67851E6FE08E6FFEA
:10108B00FD7850F68F828E83F0785206E618700149
:10109B0006785406E6187001067854E6B400DA18A0
:1010AB00E6B480D5E47855F608F67855E6FE08E602
:1010BB00FFC39408EE94005047785176A008760051
:1010CB008F9FE408F608F67856E6FF7851E6FC08A1
:1010DB00E6FD2F7850F68D828C83F0785206E61859
:1010EB00700106785406E6187001067854E6B400D1
:1010FB00D618E6B460D1785606E61870AD0680AA0D
:10110B00121FA7E4F59F7851762008F608F608F62B
:10111B007851E6FE08E6FFF5828E83E493FD784F67
:10112B00F608EFF6FFED6F60030211D27852E6700E
:07113B00097BFF7A08796CC3
:1011420012055E785206E618700106785406E61813
:10115200700106C37853E6948040BEE47855F608E1
:10116200F67855E6FE08E6FFC39408EE94004003C5
:101172000211F5785176A00876008F9FE408F608F0
:10118200F67851E6FE08E6FFF5828E83E493FD7859
:101192004FF67856E62FFF7850F6ED6F60028030FA
:1011A2007852E670097BFF7A08796C12055E7852F4
:1011B20006E618700106785406E618700106C37830
:1011C20053E6946040BB785606E618709406809108
:1011D2007BFF7A08796E7855E6F50D08E6F50E780C
:1011E20051E6F50F08E6F510784FE6751100F51295
:0411F20012055E2262
:1019B3007BFF7A08799312055E121F947851762083
:1019C300087600E47855F608F6F59F7853F608F69E
:1019D3007851E6FE08E6FFF5828E83E493784FF6AE
:1019E3008F828E83F0785206E618700106785606C9
:1019F300E6187001067855B6131308B6880F7BFFF7
:101A03007A08796C12055EE47855F608F678540680
:101A1300E618700106C37853E694E040B3E47855C2
:101A2300F608F6785076017850E6FFC39408505FC5
:101A33008F9F0876A0087600E408F608F67851E64A
:101A4300FE08E6FFF5828E83E493784FF68F828E4D
:101A530083F0785206E618700106785606E6187089
:101A630001067855B6131308B6880F7BFF7A0879F9
:101A73006C12055EE47855F608F6785406E618709D
:101A83000106C37853E6946040B3785006809812F9
:041A93001FA77BFF0F
:0E1A97007A0879AF12055E75816F0221002278
:1014C6008F08E508700E7BFF7A0879C812055E1250
:1014D6001FA78024E508B4010E121F947BFF7A082B
:1014E60079D812055E8011E508B4020C7BFF7A08F4
:1014F60079EA12055E0215DA784F7620087600E45E
:1015060008F608F6784FE6FE08E6FF5407700D7BEE
:10151600FF7A0879FE8E0D8F0E12055E784FE6FE75
:1015260008E6F5828E83E493FF7853F6785006E654
:10153600187001067BFF7A097907750D008F0E1268
:10154600055E785206E618700106C37851E694E007
:1015560040B2785476017854E6FFC3940850727B03
:10156600FF7A09790D750D008F0E12055E7854E627
:10157600F59F784F76A0087600E408F608F6784FCF
:10158600E6FE08E6FF5407700D7BFF7A0879FE8EAB
:101596000D8F0E12055E784FE6FE08E6F5828E8305
:1015A600E493FF7853F6785006E6187001067BFF41
:1015B6007A097907750D008F0E12055E785206E6D8
:1015C60018700106C37851E6946040B278540680DC
:1015D60085021FA7784F7620087600784FE6FE082A
:1015E600E6FF5407700D7BFF7A0879FE8E0D8F0E8D
:1015F60012055E784FE6FE08E6F5828E83E07853A4
:10160600F67BFF7A097907750D00F50E12055E78EF
:1016160050E6F4700318E6F4600A785006E618708F
:05162600010680B7225F
:10177D009021061216BE000500007BFF7A09791F25
:10178D0012055EE47851F608F67851E6FE08E6FF9C
:10179D00C3EE94E05066EF540770127BFF7A087920
:1017AD00FE26F50E18E63420F50D12055E90210685
:1017BD00E0FCA3E0FDA3E0FEA3E0FF121E9B785327
:1017CD00A607902106E0FCA3E0FDA3E0FEA3E02424
:1017DD0001FFE43EFEE43DFDE43CFC9021061216C3
:1017ED00997BFF7A0979077853E6750D00F50E128E
:1017FD00055E785206E618709006808D7854760155
:10180D007854E6FFC3940840030218AE7BFF7A09B3
:10181D00790D750D008F0E12055E784F76A0087646
:10182D0000E408F608F6784FE6FE08E6FF54077068
:10183D000D7BFF7A0879FE8E0D8F0E12055E7850A6
:10184D0006E618700106902106E0FCA3E0FDA3E07A
:0F185D00FEA3E0FF121E9B7853A607902106E022
:10186C00FCA3E0FDA3E0FEA3E02401FFE43EFEE4C4
:10187C003DFDE43CFC9021061216997BFF7A097918
:10188C00077853E6750D00F50E12055E785206E6E4
:10189C0018700106C37851E69460408B78540602A8
:0318AC00180D22F2
:101AA5008F188E178D168C15E4FFE4FDFC7808124F
:101AB5001661C004C005C006C007E518FFE4FEFDB9
:101AC500FC7818121661D003D002D001D000EF4B7C
:101AD500FFEE4AFEED49FDEC48FCC004C005C0061A
:101AE500C007E4FFFEE516FDE4FC780812164ED0AB
:101AF50003D002D001D000EF4BFFEE4AFEED49FDC9
:101B0500EC48FCC004C005C006C007E4FFFEFDE5C7
:101B150015FC781812164ED003D002D001D000EF74
:0C1B25004BFFEE4AFEED49FDEC48FC22AF
:101E3C009021047421F0A3E4F0902104E0FCA3E0D1
:101E4C00FDF5828C83EFF0C3ED94FFEC94FF501002
:101E5C00902105E004F070E1902104E004F080D9B9
:011E6C002253
:100B78007BFF7A09793612055E121FDD784FEFF692
:100B880064596003763122E4784FF67BFF7A09795D
:100B98005212055E121FDD784FEFF6645960037636
:100BA8003122121F947F01121EC6121C19E4784FBD
:100BB800F67FFF121E3C7BFF7A097973784FE67542
:100BC8000D00F50E12055E784FE6F59FE4902104BE
:100BD800F0A3F07F747D68120036784FE6FB701141
:100BE8009021061216BE0000010090210074218099
:100BF80038EBFF7E007C007D0612162BEF2408FFE1
:100C0800E43EFEE4FD902106121699902106E0FCD0
:100C1800A3E0FDA3E0FEA3E0FF780C12166190218B
:100C28000612169990210074A0F0A3E4F0787DE6EE
:100C380018466003020D0E7BFF7A0979A112055E42
:100C4800902106E0FCA3E0FDA3E0FEA3E0FF9021D5
:100C580000E0FAA3E0F5828A83E0F50C121E6D909D
:100C68002106E0FCA3E0FDA3E0FEA3E0FF121E9B2B
:040C7800902100E0E7
:100C7C00FCA3E0F5828C83E06F60337BFF7A09790B
:100C8C00BA902106E0FCA3E0FDA3E0FEA3E0FF7810
:100C9C001012164EE4F50D8F0E902106E0FCA3E029
:100CAC00FDA3E0FEA3E0FFE48E0F8F10806D90217A
:100CBC0001E070097BFF7A08796C12055E902104C3
:100CCC00E0FEA3E0FFC3902101E09F902100E09E95
:100CDC005038902106E0FCA3E0FDA3E0FEA3E02445
:100CEC0001FFE43EFEE43DFDE43CFC9021061216BF
:100CFC0099902101E004F07006902100E004F002CC
:100D0C000C487BFF7A0979F58011784F06E6640868
:100D1C006003020BB97BFF7A0A791E12055EE4FFB1
:070D2C00121EC6121FA722D0
:1011F6009021061216BE0000000090210A1216BEAB
:10120600000500007BFF7A0A793E12055E121FDD9B
:10121600784FEFF6C299F599EF645960037F002283
:101226007BFF7A0A795C12055E121FDD784FEFF6B6
:10123600C299F599EF645960037F0022121C837BE3
:10124600FF7A0A797C021347902106E0FCA3E0FDB1
:10125600A3E0FEA3E0FF121E9B784FEFF6FB902162
:101266000AE0FCA3E0FDA3E0FEA3E0FF8B0C121E48
:101276006D90210AE0FCA3E0FDA3E0FEA3E0FF12CF
:101286001E9B784FE66F603B7BFF7A0A799A902126
:101296000AE0FCA3E0FDA3E0FEA3E0FF781012162F
:1012A6004E8E0D8F0E90210AE0FCA3E0FDA3E0FE1A
:1012B600A3E0FFE48E0F8F1012055EE4FF121EC638
:1012C6007F01227FFF7EFF7D087C0090210AE0F8E7
:1012D600A3E0F9A3E0FAA3E0FBC312163D50689021
:0412E6002106E0FC01
:1012EA00A3E0FDA3E0FEA3E02401FFE43EFEE43D0B
:1012FA00FDE43CFC90210612169990210AE0FCA319
:10130A00E0FDA3E0FEA3E02401FFE43EFEE43DFD90
:10131A00E43CFC90210A12169990210AA3A3E0FE4C
:10132A00A3E0FFEE5401FEE4FDFCFBFAF9F8C31258
:10133A00163D600302124E7BFF7A08796C12055E35
:10134A0002124E7BFF7A0A79BC12055EE4FF121E76
:04135A00C67F002228
:10135E009021061216BE0000000090210A1216BE41
:10136E00000500007BFF7A0A79D412055E121FDD9C
:10137E00784FEFF6C299F599EF645960037F00221A
:10138E007BFF7A0A79F312055E121FDD784FEFF6B6
:10139E00C299F599EF645960037F0022121C197BE4
:1013AE00FF7A0B79110214AF90210AE0FCA3E0FD45
:1013BE00A3E0FEA3E0FF121E9B784FEFF6FB9021F9
:1013CE0006E0FCA3E0FDA3E0FEA3E0FF8B0C121EE3
:1013DE006D902106E0FCA3E0FDA3E0FEA3E0FF126A
:1013EE001E9B784FE66F603B7BFF7A0B792D902129
:1013FE0006E0FCA3E0FDA3E0FEA3E0FF78101216CA
:10140E004E8E0D8F0E902106E0FCA3E0FDA3E0FEB4
:10141E00A3E0FFE48E0F8F1012055EE4FF121EC6CE
:10142E007F01227FFF7EFF7D087C0090210AE0F87D
:10143E00A3E0F9A3E0FAA3E0FBC312163D506890B7
:04144E002106E0FC97
:10145200A3E0FDA3E0FEA3E02401FFE43EFEE43DA1
:10146200FDE43CFC90210612169990210AE0FCA3AF
:10147200E0FDA3E0FEA3E02401FFE43EFEE43DFD27
:10148200E43CFC90210A12169990210AA3A3E0FEE3
:10149200A3E0FFEE5401FEE4FDFCFBFAF9F8C312EF
:1014A200163D60030213B67BFF7A08796C12055E63
:1014B2000213B67BFF7A0B795712055EE4FF121E08
:0414C200C67F0022BF
:101D90000A202D2D3E2044656C6574696E672063B2
:101DA0006F646520696D61676520002E000A202D33
:101DB0002D3E2044656C6574696E67206261636BBB
:0F1DC000757020636F646520696D616765200031
:091B3100F50FE4F513F5147F042F
:021B3A008F0E0C
:101B3C00AF12AE11AD10AC0F121AA5785612168D4D
:101B4C00785612167490030C121699900307E5132D
:101B5C00F0900306E50EF0E514602190030874057F
:101B6C00F0900300E07855F67855E6600790030096
:101B7C00E0F680F49003087403F080069003087478
:101B8C0005F0900300E07855F67855E66007900371
:0A1B9C0000E0F680F4900308E4F086
:011BA600221C
:101F3600BF0106E47512068004E4751204F511F576
:0D1F460010F50FF513F5147F01121B3A2260
:101EC6008F0D7F01121F36E50DB40105E4F5128072
:101ED60004E47512BC751101F510F50FF513F51430
:091EE6007F02121B3A121DCF22EB
:101DCF009003067401F090030C7405F0900308F073
:101DDF00900300E07851F670F79003087403F090C9
:101DEF000300E07851F670F790030CE0540178513E
:0A1DFF00F6640160CB900308E4F0E5
:011E090022B6
:091CED00E6FFE4FCFDFE750C01AC
:101CF6008F0B8E0A8D098C087F01121EC67F01127A
:101D06001F36E50CAF0BAE0AAD09AC08B40113786B
:101D160010121661EFF512EEF511EDF510EC44D840
:101D26008011780F121661EFF512EEF511EDF51030
:0A1D3600EC4452121B31121DCF22A3
:101C19007BFF7A1D799012055EE47850F67BFF7A96
:101C29001D79AB12055E7850121CED785006E6C39B
:101C3900940440E9E47850F67BFF7A1D79AB1205EC
:101C49005E7850E6FFE4FCFDFEF50C121CF67850B8
:101C590006E6C3940840E1E47850F67850E6FFC3FD
:101C690094405015E4FCFDFE121E0A7BFF7A1D7993
:091C7900AB12055E78500680E212
:011C8200223F
:101C83007BFF7A1D79AD12055E785076047BFF7A6F
:101C93001D79AB12055E7850121CED785006E6C331
:101CA300940840E9785076087BFF7A1D79AB1205DA
:101CB3005E7850E6FFE4FCFDFEF50C121CF678504E
:101CC30006E6C3941040E1785076407850E6FFC3AF
:101CD30094805015E4FCFDFE121E0A7BFF7A1D79E9
:091CE300AB12055E78500680E2A8
:011CEC0022D5
:101E6D008F0B8E0A8D098C087F01121F36E50BF53D
:101E7D0012E50AF511E509F510E5084402F50F859F
:0E1E8D000C13E4F5147F05121B3A121DCF2230
:101E9B008F0B8E0A8D098C08E50BF512E50AF511EF
:101EAB00E509F510E5084403F50FE4F51375140186
:0B1EBB007F04121B3A90030CE0FF2292
:101E0A008F0B8E0A8D098C087F01121EC67F011264
:101E1A001F36AF0BAE0AAD09AC08780C121661EF8B
:101E2A00F512EEF511EDF510EC4420121B31121DDE
:021E3A00CF22B5
:10162B00EF8DF0A4A8F0CF8CF0A428CE8DF0A42ED3
:02163B00FE228D
:10163D00EB9FF5F0EA9E42F0E99D42F0E89C45F003
:01164D00227A
:10164E00E8600FECC313FCED13FDEE13FEEF13FF7A
:03165E00D8F1229E
:10166100E8600FEFC333FFEE33FEED33FDEC33FCE7
:03167100D8F1228B
:0C167400E6FC08E6FD08E6FE08E6FF22A2
:0D168000E6FB08E6F908E6FA08E6CBF822DA
:0C168D00ECF608EDF608EEF608EFF62289
:0C169900ECF0A3EDF0A3EEF0A3EFF022C4
:1016A500D083D082E493F608740193F6087402930C
:0916B500F608740393F674047343
:1016BE00A8828583F0D083D0821216D51216D51249
:1016CE0016D51216D5E473E493A3C583C5F0C5836E
:1016DE00C8C582C8F0A3C583C5F0C583C8C582C876
:0116EE0022D9
:1016EF00D083D082F8E4937012740193700DA3A38A
:1016FF0093F8740193F5828883E47374029368609E
:06170F00EFA3A3A380DF9D
:1004FC00E519240DF8E6051922780A300702780D63
:10050C00E475F00112176D0217152000EB7F2ED247
:10051C00008018EF540F2490D43440D4FF30040BD7
:10052C00EF24BFB41A0050032461FFE51A600215D2
:10053C001A051DE51D7002051C30070D780AE475BF
:10054C00F00112176DEF02175B021F537403D207F1
:10055C008003E4C207F5198B0A8A0B890CE4F51A9F
:10056C00F51CF51DE51A60077F2012053780F5751F
:10057C001BFFC201C200C202C203C205C206C208EE
:10058C00120505FF700D3007057F00120548AF1DE1
:10059C00AE1C22B4255FC2D5C204120505FF24D0BF
:1005AC00B40A00501A75F00A781A30D50508B6FF4F
:1005BC000106C6A426F620D5047002D20380D924E5
:1005CC00CFB41A00EF5004C2E5D204020748D2019E
:1005DC0080C6D20080C0D20280BCD2D580BAD205EF
:1005EC0080B47F201205372002077401B51A004031
:1005FC00F11204FCFF120537020570D208D20680F6
:10060C00951204FCFB1204FCFA1204FCF94A4B7020
:10061C000679197A087BFF20022EE51A602A7E00E3
:10062C008E8275830012172E60060EEE651B70F01D
:10063C00C2D5EBC0E0EAC0E0E9C0E0EE12078FD013
:10064C00E0F9D0E0FAD0E0FB121715FF60AAEBC07E
:10065C00E0EAC0E0E9C0E0120537D0E02401F9D0AF
:10066C00E03400FAD0E0FBE51B0460DCD51BD9803C
:10067C00877BFF7A07798BD202809C791080027974
:10068C0008C206C2088008D2D5790A8004790AC249
:10069C00D5E51B047002F51BE4FAFDFEFF1204FC09
:1006AC00FC7B082001131204FCFD7B1030000A12A5
:1006BC0004FCFE1204FCFF7B20EC3382D592D55057
:1006CC0013C3E43000069FFFE49EFEE42001039D6B
:1006DC00FDE49CFCE4CBF8C201EC700CCFCECDCC8D
:1006EC00E824F8F870F38017C3EF33FFEE33FEED18
:1006FC0033FDEC33FCEB33FB994002FB0FD8E9EBF9
:10070C00300105F8D0E0C448B201C0E00AEC4D4E0F
:10071C004F78207B0070C2EAB51B0040BCC0E012D1
:10072C000791D0F0D0E0200104C4C0E0C4B201C0F5
:10073C00F0120520D0F0D5F0EB0205701216EF0682
:10074C000D5306875805DE4C05DA42068B4F06938F
:0F075C004406934905F343069955067D46067DED
:10076B0045067D4708395005E22D05E62E06092B77
:10077B0005EA2306072008222A05A24800000601E5
:10078B003F3F3F00790AA2D5200314300509B91069
:10079B00020404B9080104A2D5200602500104206A
:1007AB0002689202B51A005034C0E07F2030031962
:1007BB007F30A20272067205500F1207E8C202C206
:1007CB0006C205C2087F30800F300503E9C0E01276
:1007DB000537300503D0E0F9D0E0B51ACC3005175A
:1007EB007F30B9100C1205377F583004077F7880A3
:1007FB0003B908031205373002057F2D0205377F39
:10080B00202008F87F2B2006F322920280CF286E3F
:10081B00756C6C2900D2011204FC3001F8C201780E
:10082B001A30D50108F60205A22D5043495812047F
:10083B00FC2403B405004001E4900834931205280E
:0D084B00743A120528D203751A04020687BC
:101EEF00EFC394414005EF94474016EFC394614010
:101EFF0005EF9467400BEFC394304008EF943A50CE
:061F0F0003D38001C32290
:101FCC00EFC39461400AEF947B5005EF24E0FF22AD
:011FDC0022E2
:10171500BB010689828A83E0225002E722BBFE02D2
:09172500E32289828A83E4932205
:10172E00BB010CE58229F582E5833AF583E0225070
:10173E0006E92582F8E622BBFE06E92582F8E222BA
:0D174E00E58229F582E5833AF583E49322D4
:10175B00BB010689828A83F0225002F722BBFE016D
:02176B00F32267
:10176D00FAE6FB0808E6F925F0F618E6CA3AF6227D
:00000001FF
