:100EE3000A2A2A2A2A2A2A2A2A2A2A2A2A2A2A2A7F
:100EF3002A2A2A2A2A2A2A2A2A2A2A2A2A2A2A2A4F
:100F03002A2A2A2A2A2A2A2A2A2A2A2A2A2A000A88
:100F13002A2A2020202020475245454E564954591D
:100F230020434F4D4D554E49434154494F4E532055
:100F3300494E4320202020202020202A2A000A2A4C
:100F43002A20202020202020202020426F6F742080
:100F53006C6F616465722056322E30202020202071
:100F6300202020202020202020202A2A000A2A2A8C
:100F73002A2A2A2A2A2A2A2A2A2A2A2A2A2A2A2ACE
:100F83002A2A2A2A2A2A2A2A2A2A2A2A2A2A2A2ABE
:100F93002A2A2A2A2A2A2A2A2A2A2A0A0A000A0A58
:100FA30020232323232320446F776E6C6F616420F7
:100FB300636F64652066726F6D20554152542074CF
:100FC3006F204352414D202D2042414E4B2D253061
:100FD30032582023232323230A000A202D2D3E20C9
:100FE30046696E69736865642074657374696E67B6
:100FF300204352414D000A202D2D3E2046696E6943
:10100300736865642064756D70696E67204352412F
:101013004D000A202D2D3E2046696E697368656474
:101023002064756D70696E672053464C41534800C8
:101033000A202D2D3E2046696E697368656420641D
:10104300756D70696E67206572616D73000A0A20A1
:101053002D2D3E2050726573732072657365742065
:101063006F72206869742027732720746F2072655C
:10107300626F6F74207468652073797374656D0093
:10108300E4F59F121FB6121F79C2AFE4784EF678CB
:101093004A1216B5000000007BFF7A0E79E31205B1
:1010A300527BFF7A0F79121205527BFF7A0F794137
:1010B3001205527BFF7A0F7970120552784EE612B1
:1010C30016FF11C401119E3111B6421169441199E1
:1010D3004511504611634A11795011895212085330
:1010E30011555411115511BB5A11B662116964118E
:1010F300996511506611636A11797011897212082A
:101103007311557411117511BB7A000011D3121F9D
:10111300A3E4784EF6784EE6FFC3648094885022A9
:101123007BFF7A0F79A1EF3395E0F50D8F0E120552
:1011330052784EE6F59F7F747D68120036784E062E
:1011430080D3121FB675816F02210001BF120B827B
:101153008069120D3A7BFF7A0F79DD120552805BAD
:1011630075816F022100E4FF1214D77BFF7A0F7998
:10117300F912055280457F011214D77BFF7A10794B
:101183001512055280357F021214D77BFF7A10792E
:1011930033120552802512180080207BFF7A1079C4
:1011A30050120552784A1216B500000000784E76A8
:1011B3000101BF12120D8003121372784E763101B2
:1011C300BF784E309806A699C29801BF760101BF39
:1011D300309806784EA699C298784A121684EF245E
:1011E30001FFE43EFEE43DFDE43CFC784A12169D1B
:1011F3007F807E387D017C00784A121690C31216D8
:081203004D500201BF121A3424
:02120B0001BF21
:101F7900758921758DF2758780C289759850D28EC1
:051F8900C299C298227C
:101F6200BF0A0AC29975990D3099FDC299C2998F1B
:071F7200993099FDC299228C
:0F1FEC00E47867F63098FD7867A699C298E6FF0B
:011FFB0022C3
:10000000021F8E022103000000000002210B0000ED
:10001000000000022113000000000002211B00006C
:10002000000000022123000000000002212B00003C
:0600300000000002213374
:101F8E0078FFE4F6D8FD78007FFFE4F208DFFC75F9
:051F9E00812B021083FD
:101FA300759F0075F10075F22075F3FF75F4FF75E9
:031FB300F8002211
:101FB600759F0075F10075F22075F3FF75F4FF75D6
:031FC600F80122FD
:101930000A202D2D3E2057616974696E6720666FFD
:101940007220496E74656C2D6865782066696C65D7
:10195000202E0066000A202D2D3E20436F64652056
:10196000446F776E6C6F61642053756D6D61727931
:101970000A00202E5375636365737366756C6C790A
:1019800020646F776E6C6F61646564206279746542
:101990002873293A2025750A00202E466F756E643B
:1019A000206C696E652873293A2025750A00202E5F
:1019B00046616C7365206C696E652873293A202531
:1019C000750A00202E5265636F7264207479706509
:1019D000206572726F722873293A2025750A0020DB
:1019E0002E4E6F6E20617363696920646967697444
:1019F0002873293A2025750A00202E4572726F72CD
:101A000020646F776E6C6F616465642062797465C1
:101A10002873293A2025750A00202E4661696C65D5
:101A20006420636865636B73756D652873293A205C
:041A300025750A000E
:100036008F088D09E4785FF608F67857F608F678A3
:1000460050F608F67854F6785DF608F67850F60815
:10005600F67850E6FE08E6FFC39408EE94005015C5
:10006600A808EF25E028F8E4F608F6785106E61821
:1000760070DF0680DCE47850F608F67850E6FE0875
:10008600E6FFC39406EE94005015A809EF25E02874
:10009600F8E4F608F6785106E61870DF0680DC7B91
:1000A600FF7A197930120552785DE6FE08E6FFEE12
:1000B600600281E4EFB41700400281E49000C82595
:1000C600E07301F62147216321C121EE418C41BC39
:1000D60041BE41C781E481E481E481E481E481E4B5
:1000E60081E481E481E481E461A861F881288147A3
:1000F600121FEC7854EFF6BF1B0241B67854E6FFA8
:10010600B43A15E47857F6785DF6087601A809083A
:0301160006E618E2
:1001190070010681E4121EFE500281E47854E664FF
:100129000A700281E4E5082405F8E62401FF18E4D1
:1001390036FEE5082404F8A60608A60781E4121D80
:100149004F7E00785BEEF608EFF670287858E608DF
:10015900F6785D760008760281E4121D4F7E0078FC
:100169005BEEF608EFF67858E6FD7855760008A6B6
:1001790005EF6002619F121D4F7E00785BEEF60865
:10018900EFF6600280427856E67F0018F6FE08EF27
:10019900F67858E6FDEDFF7855EEF6FE08EFF6FF26
:1001A9007C00786018ECF608F6EE18F6EF08F67899
:1001B9005D760008760381E47F5A121D517E00782E
:1001C9005BEEF608EFF660030861A1785AE6FFD303
:1001D9009405400241BEEF2404785EF6E43318F634
:1001E900E478508142121D4F785B760008A60778A3
:0101F90059AC
:1001FA0016785FE6FC08E6FDC390201AE09D902081
:10020A0019E09C5005ECF0A3EDF07F58121FC97E4F
:10021A0000785BEEF608EFF6786006E618700106DD
:10022A00EF4E7032C37853E694C818E69400400B38
:10023A00C29975992EE47852F608F6785306E618AC
:10024A00700106E5092405F8E62401FF18E436FEE4
:10025A00E5092404801A7BFF7A197953120552E5BD
:10026A00082407F8E62401FF18E436FEE508240608
:10027A00F8A60608A6077859E6600281E4785DF6D2
:10028A00619A121D4F7E00785BEEF608EFF6701C3D
:10029A007857E67017E5092409F8E62401FF18E4FF
:1002AA0036FEE5092408F8A60608A607785D760052
:1002BA0081068000785D760008761581E47851E63B
:1002CA00184670387855F608F6121D4F7E00785B8E
:0202DA00EEF63E
:1002DC0008EFF6785916701518E6FFE47855F6080D
:1002EC00A607E6F8E47956F7E819F78007785D7603
:1002FC0000087614785076008123121D4F7E00780A
:10030C005BEEF608EFF67859166002619F18E6FF6F
:10031C00E4FCFDC004A905AA06AB077855E6FE0867
:10032C00E6FFD000EF4BFFEE4AFE7855EEF608EFF5
:10033C00F6C394FBEE94004016D3E694FE18E694B4
:10034C0000500C08740626F61874FF36F6801EE56D
:10035C0008240BF8E62401FF18E436FEE508240A0D
:10036C00F8A60608A607785576000876017855E6B3
:10037C00FE08E67810C333CE33CED8F9FF7855EEAD
:10038C00F608EFF6785FA60608F6785D7600087634
:10039C001381E4785D760008761481E4121D4F7E9B
:0503AC0000785BEEF695
:1003B10008EFF670267857E670217859E6701CE54B
:1003C100092409F8E62401FF18E436FEE5092408AA
:1003D100F8A60608A607E4785D8066E5082409F812
:1003E100E62401FF18E436FEE5082408F8A606080D
:1003F100A607E4785D804A785BE6FE08E6FF6401C3
:100401004E700708F608761681E4EF64034E700417
:10041100785D802DEF64024E600281E47857F678B2
:100421005DF608760181E4E5082403F8E62401FF7E
:1004310018E436FEE5082402F8A60608A607E478C3
:100441005DF608F681E47BFF7A1979551205527B36
:10045100FF7A197972E5092404F8E6F50D08E6F545
:100461000E1205527BFF7A197999A809E6F50D0854
:10047100E6F50E1205527BFF7A1979AEA808E6F56A
:100481000D08E6F50E1205527BFF7A1979C3E508CE
:0D0491002402F8E6F50D08E6F50E120552FE
:10049E007BFF7A1979DFE5082404F8E6F50D08E606
:1004AE00F50E1205527BFF7A1979F9E5082406F844
:1004BE00E6F50D08E6F50E1205527BFF7A1A79194C
:1004CE00E5082408F8E6F50D08E6F50E1205527853
:1004DE005D7600087617785EE664171846600201AE
:0204EE00AE223C
:101D4F007F587D57AB088F0A8D0B8B0CE47864F6A8
:101D5F007861F67F61AD0C12178D7863EFF624FD75
:101D6F0060F1240370257864E6700D7861E6C45441
:101D7F00F008F678640680DB7862E6796147F6E66C
:101D8F00FFA80AF6A80BEF26F680007863E6FF227D
:10178D008F0D8D0EA807E4F67865F608F6121FEC9E
:10179D007866A607E6FF24C6600A241F70157865D3
:1017AD0076018049A80E0806E61870010678657660
:1017BD0002803A121EFE500F7F66121F24A80DA63E
:1017CD0007E47865F680267866E6B40A051876048F
:1017DD00801BE50E2405F8E62401FF18E436FEE52E
:1017ED000E2404F8A60608A607786576037865E644
:0217FD00FF22C9
:101F2400A807E6FF121FDB7867EFF6D39439500653
:101F340074D026F68006786774C926F67867E6FFBB
:011F4400227A
:101FC9008D828C83A807E6F0E06660037F01227F9B
:021FD9000022E4
:10084C000A202D2D3E2053746172742074657374CC
:10085C00696E67206372616D0A000A463A2530346E
:10086C00582025303258002025303458000A464292
:10087C0025783A253034582025303258002042252E
:10088C00783A25303458000A202D2D3E20537973A8
:10089C0074656D20697320626F6F74696E67207563
:1008AC007020002E000A202D2D3E2052756E6E6990
:1008BC006E67206669726D776172650A0A000A209C
:1008CC002D2D3E2044756D7020636F646520524160
:1008DC004D000A202D2D3E2044756D702073666CE2
:1008EC00617368000A202D2D3E2044756D702036F2
:1008FC00344B206572616D000A3078253034583ADB
:10090C00002025303258000A0A202D2D3E2042614D
:10091C006E6B20253032580A000A202D2D3E2044C3
:10092C00756D70206261636B757020636F64650018
:10093C000A202D2D3E2050726F6772616D20534638
:10094C004C41534820592F4E3F203A000A202D2D60
:10095C003E2044656C6574652063757272656E74B7
:10096C0020636F646520592F4E3F203A000A0A20FD
:10097C00232323232320446F776E6C6F61642063E1
:10098C006F646520666F72202D2042414E4B2D25E1
:10099C003032582023232323230A000A202D2D3EF6
:1009AC002057726974696E6720746F2073666C616E
:1009BC00736820000A0A202A2A2A2053464C4153E5
:1009CC00482070726F6772616D6D696E6720657219
:1009DC00726F7220402030782530325825303458D0
:1009EC00202D2074727920616761696E0A0A000AF1
:1009FC00202A2A2A204552524F5220646F776E6C5F
:100A0C006F6164696E672066726F6D205541525438
:100A1C0020746F2052414D000A202A2A2A2050723D
:100A2C006F6772616D6D696E672073666C61736858
:100A3C0020646F6E65210A000A202D2D3E20426134
:100A4C00636B757020636F646520696D61676520E9
:100A5C00592F4E3F3A000A202D2D3E2044656C65DF
:100A6C007465206F6C64206261636B757020696DB6
:100A7C0061676520592F4E3F3A000A0A202D2D3E02
:100A8C00204261636B696E6720757020636F6465CB
:100A9C0020696D61676520000A202A2A2A2042619C
:100AAC00636B7570206572726F72204020307825F0
:100ABC00303458253034580A0A000A202D2D3E2097
:100ACC004261636B757020636F646520646F6E6543
:100ADC0021000A202D2D3E205265636F7665722011
:100AEC00636F646520696D61676520592F4E3F3ACD
:100AFC00000A202D2D3E2044656C65746520636FC3
:100B0C00646520696D61676520592F4E3F3A000A74
:100B1C00202D2D3E20526573746F72696E672063B1
:100B2C006F646520696D61676520000A202A2A2A96
:100B3C0020436F646520726573746F72696E6720F1
:100B4C006572726F72204020307825303458253011
:100B5C0034580A0A000A202D2D3E20526573746FFA
:100B6C0072696E6720636F646520696D61676520CB
:060B7C00646F6E652100AC
:100D3A00121FA37BFF7A08794C120552E4F59F78BB
:100D4A0051762008F608F608F67851E6FE08E6FF1E
:100D5A00FD7850F68F828E83F0785206E61870017D
:100D6A0006785406E6187001067854E6B400DA18D4
:100D7A00E6B480D5E47855F608F67855E6FE08E636
:100D8A00FFC39408EE94005047785176A008760085
:100D9A008F9FE408F608F67856E6FF7851E6FC08D5
:100DAA00E6FD2F7850F68D828C83F0785206E6188D
:100DBA00700106785406E6187001067854E6B40005
:100DCA00D618E6B460D1785606E61870AD0680AA41
:100DDA00121FB6E4F59F7851762008F608F608F651
:100DEA007851E6FE08E6FFF5828E83E493FD784F9C
:100DFA00F608EFF6FFED6F7BFF60167A0879660852
:040E0A00E6F50D08F4
:100E0E00E6F50E784FE6750F00F510800D7A08792D
:100E1E00737851E6F50D08E6F50E12055278520676
:100E2E00E618700106785406E618700106C378536A
:100E3E00E6948040A7E47855F608F67855E6FE0865
:100E4E00E6FFC39408EE94004002C1E2785176A00A
:100E5E000876008F9FE408F608F67851E6FE08E65D
:100E6E00FFF5828E83E493FD784FF67856E62FFFDA
:100E7E007850F6ED6F7BFF60207A0879797855E629
:100E8E00F50D08E6F50E7851E6F50F08E6F5107843
:100E9E004FE6751100F51280167A0879897855E6B5
:100EAE00F50D08E6F50E7851E6F50F08E6F5101289
:100EBE000552785206E618700106785406E6187048
:100ECE000106C37853E694604090785606E6187093
:050EDE000106C14922DC
:101A34007BFF7A087993120552121FA378517620FE
:101A4400087600E47855F608F6F59F7853F608F61C
:101A54007851E6FE08E6FFF5828E83E493784FF62C
:101A64008F828E83F0785206E61870010678560647
:101A7400E6187001067855B6131308B6880F7BFF75
:101A84007A0879AF120552E47855F608F6785406C8
:101A9400E618700106C37853E694E040B3E4785541
:101AA400F608F6785076017850E6FFC39408505F44
:101AB4008F9F0876A0087600E408F608F67851E6C9
:101AC400FE08E6FFF5828E83E493784FF68F828ECC
:101AD40083F0785206E618700106785606E6187008
:101AE40001067855B6131308B6880F7BFF7A087978
:101AF400AF120552E47855F608F6785406E61870E5
:101B04000106C37853E6946040B378500680981277
:041B14001FB67BFF7E
:0E1B18007A0879B112055275816F0221002200
:1014D7008F08E508700E7BFF7A0879CA1205521249
:1014E7001FB68023E508B4010E121FA37BFF7A08FD
:1014F70079DE1205528010E508B4020B7BFF7A08EB
:1015070079F0120552A1EA784F7620087600E408B0
:10151700F608F6784FE6FE08E6FF5407700D7BFFE6
:101527007A0979048E0D8F0E120552784FE6FE0860
:10153700E6F5828E83E493FF7853F6785006E61833
:101547007001067BFF7A09790D750D008F0E120564
:1015570052785206E618700106C37851E694E040C7
:10156700B2785476017854E6FFC3940850727BFF33
:101577007A097913750D008F0E1205527854E6F526
:101587009F784F76A0087600E408F608F6784FE6CD
:10159700FE08E6FF5407700D7BFF7A0979048E0D6C
:1015A7008F0E120552784FE6FE08E6F5828E83E429
:1015B70093FF7853F6785006E6187001067BFF7A9A
:0F15C70009790D750D008F0E120552785206E648
:1015D60018700106C37851E6946040B278540680CC
:1015E60085021FB6784F7620087600784FE6FE080B
:1015F600E6FF5407700D7BFF7A0979048E0D8F0E76
:10160600120552784FE6FE08E6F5828E83E078539F
:10161600F67BFF7A09790D750D00F50E12055278E5
:1016260050E6F4700318E6F4600A785006E618707F
:05163600010680B7224F
:1018000090201B1216CE000500007BFF7A09792577
:10181000120552E47851F608F67851E6FE08E6FF24
:10182000C3EE94E05066EF540770127BFF7A09799B
:101830000426F50E18E63420F50D12055290201BF3
:10184000E0FCA3E0FDA3E0FEA3E0FF121EAA785394
:10185000A60790201BE0FCA3E0FDA3E0FEA3E0248C
:1018600001FFE43EFEE43DFDE43CFC90201B12162B
:10187000A97BFF7A09790D7853E6750D00F50E12F4
:101880000552785206E618709006808D78547601DD
:101890007854E6FFC394084002212F7BFF7A097930
:1018A00013750D008F0E120552784F76A008760042
:1018B000E408F608F6784FE6FE08E6FF5407700DD8
:1018C0007BFF7A0979048E0D8F0E1205527850062F
:1018D000E61870010690201BE0FCA3E0FDA3E0FEEB
:0E18E000A3E0FF121EAA7853A60790201BE07B
:1018EE00FCA3E0FDA3E0FEA3E02401FFE43EFEE442
:1018FE003DFDE43CFC90201B1216A97BFF7A097972
:10190E000D7853E6750D00F50E120552785206E667
:10191E0018700106C37851E69460408B7854060126
:02192E00902205
:101B26008F188E178D168C15E4FFE4FDFC780812CD
:101B36001671C004C005C006C007E518FFE4FEFD27
:101B4600FC7818121671D003D002D001D000EF4BEA
:101B5600FFEE4AFEED49FDEC48FCC004C005C00698
:101B6600C007E4FFFEE516FDE4FC780812165ED019
:101B760003D002D001D000EF4BFFEE4AFEED49FD47
:101B8600EC48FCC004C005C006C007E4FFFEFDE546
:101B960015FC781812165ED003D002D001D000EFE3
:0C1BA6004BFFEE4AFEED49FDEC48FC222E
:101E4B009020197421F0A3E4F0902019E0FCA3E09A
:101E5B00FDF5828C83EFF0C3ED94FFEC94FF5010F3
:101E6B0090201AE004F070E1902019E004F080D982
:011E7B002244
:100B82007BFF7A09793C120552121FEC784FEFF67F
:100B920064596003763122E4784FF67BFF7A097953
:100BA20058120552121FEC784FEFF6645960037623
:100BB2003122121FA37F01121ED5121C28E4784F86
:100BC200F67FFF121E4B7BFF7A097979784FE67523
:100BD2000D00F50E120552784FE6F59FE4902019AC
:100BE200F0A3F07F747D68120036784FE6FB701137
:100BF20090201B1216CE0000010090201574218057
:100C020038EBFF7E007C007D0612163BEF2408FFC6
:100C1200E43EFEE4FD90201B1216A990201BE0FC8E
:100C2200A3E0FDA3E0FEA3E0FF780C121671902072
:100C32001B1216A990201574A0F0A3E4F0787DE6AB
:100C420018466002A1167BFF7A0979A71205529015
:100C5200201BE0FCA3E0FDA3E0FEA3E0FF90201533
:100C6200E0FAA3E0F5828A83E0F50C121E7C902064
:100C72001BE0FCA3E0FDA3E0FEA3E0FF121EAA908E
:030C82002015E05A
:100C8500FCA3E0F5828C83E06F60337BFF7A097902
:100C9500C090201BE0FCA3E0FDA3E0FEA3E0FF78ED
:100CA5001012165EE4F50D8F0E90201BE0FCA3E0FC
:100CB500FDA3E0FEA3E0FFE48E0F8F10806B902074
:100CC50016E070097BFF7A0879AF1205529020195A
:100CD500E0FEA3E0FFC3902016E09F902015E09E64
:100CE500503790201BE0FCA3E0FDA3E0FEA3E02429
:100CF50001FFE43EFEE43DFDE43CFC90201B1216A2
:100D0500A9902016E004F07006902015E004F0810B
:100D1500517BFF7A0979FB8010784F06E6640860FD
:100D25000261C37BFF7A0A7924120552E4FF121E81
:050D3500D5121FB622DB
:10120D0090201B1216CE0000000090201F1216CE4B
:10121D00000500007BFF7A0A7944120552121FEC7B
:10122D00784FEFF6C299F599EF645960037F00226C
:10123D007BFF7A0A7962120552121FEC784FEFF696
:10124D00C299F599EF645960037F0022121C927BBD
:10125D00FF7A0A7986615C90201BE0FCA3E0FDA378
:10126D00E0FEA3E0FF121EAA784FEFF6FB90201FC1
:10127D00E0FCA3E0FDA3E0FEA3E0FF8B0C121E7CBF
:10128D0090201FE0FCA3E0FDA3E0FEA3E0FF121EF3
:10129D00AA784FE66F603B7BFF7A0A79A490201FF6
:1012AD00E0FCA3E0FDA3E0FEA3E0FF781012165EC4
:1012BD008E0D8F0E90201FE0FCA3E0FDA3E0FEA39A
:1012CD00E0FFE48E0F8F10120552E4FF121ED57F42
:1012DD0001227FFF7EFF7D087C0090201FE0F8A398
:1012ED00E0F9A3E0FAA3E0FBC312164D506690207F
:0312FD001BE0FCF7
:10130000A3E0FDA3E0FEA3E02401FFE43EFEE43DF4
:10131000FDE43CFC90201B1216A990201FE0FCA3CA
:10132000E0FDA3E0FEA3E02401FFE43EFEE43DFD7A
:10133000E43CFC90201F1216A990201FA3A3E0FEFE
:10134000A3E0FFEE5401FEE4FDFCFBFAF9F8C31242
:10135000164D600241647BFF7A0879AF1205524155
:10136000647BFF7A0A79C6120552E4FF121ED57F0C
:02137000002259
:1013720090201B1216CE0000000090201F1216CEE5
:10138200000500007BFF7A0A79DE120552121FEC7B
:10139200784FEFF6C299F599EF645960037F002206
:1013A2007BFF7A0A79FD120552121FEC784FEFF695
:1013B200C299F599EF645960037F0022121C287BC1
:1013C200FF7A0B791B81C190201FE0FCA3E0FDA3F3
:1013D200E0FEA3E0FF121EAA784FEFF6FB90201B5F
:1013E200E0FCA3E0FDA3E0FEA3E0FF8B0C121E7C59
:1013F20090201BE0FCA3E0FDA3E0FEA3E0FF121E91
:10140200AA784FE66F603B7BFF7A0B793790201BFF
:10141200E0FCA3E0FDA3E0FEA3E0FF781012165E5D
:101422008E0D8F0E90201BE0FCA3E0FDA3E0FEA337
:10143200E0FFE48E0F8F10120552E4FF121ED57FDB
:1014420001227FFF7EFF7D087C0090201FE0F8A331
:10145200E0F9A3E0FAA3E0FBC312164D5066902018
:031462001BE0FC90
:10146500A3E0FDA3E0FEA3E02401FFE43EFEE43D8E
:10147500FDE43CFC90201B1216A990201FE0FCA364
:10148500E0FDA3E0FEA3E02401FFE43EFEE43DFD14
:10149500E43CFC90201F1216A990201FA3A3E0FE98
:1014A500A3E0FFEE5401FEE4FDFCFBFAF9F8C312DC
:1014B500164D600261C97BFF7A0879AF120552614A
:1014C500C97BFF7A0B7961120552E4FF121ED57FA5
:0214D5000022F3
:101D9F000A202D2D3E2044656C6574696E672063A3
:101DAF006F646520696D61676520002E000A202D24
:101DBF002D3E2044656C6574696E67206261636BAC
:0F1DCF00757020636F646520696D616765200022
:091BB200F50FE4F513F5147F04AE
:021BBB008F0E8B
:101BBD00AF12AE11AD10AC0F121B26785612169D3A
:101BCD00785612168490030C1216A9900307E5138C
:101BDD00F0900306E50EF0E51460219003087405FE
:101BED00F0900300E07855F67855E6600790030015
:101BFD00E0F680F49003087403F0800690030874F7
:101C0D0005F0900300E07855F67855E660079003EF
:0A1C1D0000E0F680F4900308E4F004
:011C2700229A
:101F4500BF0106E47512068004E4751204F511F567
:0D1F550010F50FF513F5147F01121BBB22D0
:101ED5008F0D7F01121F45E50DB40105E4F5128054
:101EE50004E47512BC751101F510F50FF513F51421
:091EF5007F02121BBB121DDE224C
:101DDE009003067401F090030C7405F0900308F064
:101DEE00900300E07851F670F79003087403F090BA
:101DFE000300E07851F670F790030CE0540178512F
:0A1E0E00F6640160CB900308E4F0D5
:011E180022A7
:091CFC00E6FFE4FCFDFE750C019D
:101D05008F0B8E0A8D098C087F01121ED57F01125B
:101D15001F45E50CAF0BAE0AAD09AC08B40113784D
:101D250010121671EFF512EEF511EDF510EC44D821
:101D35008011780F121671EFF512EEF511EDF51011
:0A1D4500EC4452121BB2121DDE2204
:101C28007BFF7A1D799F120552E47850F67BFF7A84
:101C38001D79BA1205527850121CFC785006E6C37A
:101C4800940440E9E47850F67BFF7A1D79BA1205CE
:101C5800527850E6FFE4FCFDFEF50C121D057850A5
:101C680006E6C3940840E1E47850F67850E6FFC3EE
:101C780094405015E4FCFDFE121E197BFF7A1D7975
:091C8800BA12055278500680E200
:011C91002230
:101C92007BFF7A1D79BC120552785076047BFF7A5D
:101CA2001D79BA1205527850121CFC785006E6C310
:101CB200940840E9785076087BFF7A1D79BA1205BC
:101CC200527850E6FFE4FCFDFEF50C121D0578503B
:101CD20006E6C3941040E1785076407850E6FFC3A0
:101CE20094805015E4FCFDFE121E197BFF7A1D79CB
:091CF200BA12055278500680E296
:011CFB0022C6
:101E7C008F0B8E0A8D098C087F01121F45E50BF51F
:101E8C0012E50AF511E509F510E5084402F50F8590
:0E1E9C000C13E4F5147F05121BBB121DDE2291
:101EAA008F0B8E0A8D098C08E50BF512E50AF511E0
:101EBA00E509F510E5084403F50FE4F51375140177
:0B1ECA007F04121BBB90030CE0FF2202
:101E19008F0B8E0A8D098C087F01121ED57F011246
:101E29001F45AF0BAE0AAD09AC08780C121671EF5D
:101E3900F512EEF511EDF510EC4420121BB2121D4E
:021E4900DE2297
:10163B00EF8DF0A4A8F0CF8CF0A428CE8DF0A42EC3
:02164B00FE227D
:10164D00EB9FF5F0EA9E42F0E99D42F0E89C45F0F3
:01165D00226A
:10165E00E8600FECC313FCED13FDEE13FEEF13FF6A
:03166E00D8F1228E
:10167100E8600FEFC333FFEE33FEED33FDEC33FCD7
:03168100D8F1227B
:0C168400E6FC08E6FD08E6FE08E6FF2292
:0D169000E6FB08E6F908E6FA08E6CBF822CA
:0C169D00ECF608EDF608EEF608EFF62279
:0C16A900ECF0A3EDF0A3EEF0A3EFF022B4
:1016B500D083D082E493F608740193F608740293FC
:0916C500F608740393F674047333
:1016CE00A8828583F0D083D0821216E51216E51219
:1016DE0016E51216E5E473E493A3C583C5F0C5833E
:1016EE00C8C582C8F0A3C583C5F0C583C8C582C866
:0116FE0022C9
:1016FF00D083D082F8E4937012740193700DA3A37A
:10170F0093F8740193F5828883E47374029368608D
:06171F00EFA3A3A380DF8D
:1004F000E519240DF8E6051922780A300702780D6F
:10050000E475F00112177D0217252000EB7F2ED233
:10051000008018EF540F2490D43440D4FF30040BE3
:10052000EF24BFB41A0050032461FFE51A600215DE
:100530001A051DE51D7002051C30070D780AE475CB
:10054000F00112177DEF02176B021F627403D207CE
:100550008003E4C207F5198B0A8A0B890CE4F51AAB
:10056000F51CF51DE51A60077F2012052B80F57537
:100570001BFFC201C200C202C203C205C206C208FA
:100580001204F9FF700D3007057F0012053CAF1D06
:10059000AE1C22B4255FC2D5C2041204F9FF24D0D8
:1005A000B40A00501A75F00A781A30D50508B6FF5B
:1005B0000106C6A426F620D5047002D20380D924F1
:1005C000CFB41A00EF5004C2E5D20402073CD201B6
:1005D00080C6D20080C0D20280BCD2D580BAD205FB
:1005E00080B47F2012052B2002077401B51A004049
:1005F000F11204F0FF12052B020564D208D2068026
:10060000951204F0FB1204F0FA1204F0F94A4B7050
:1006100006790D7A087BFF20022EE51A602A7E00FB
:100620008E8275830012173E60060EEE651B70F019
:10063000C2D5EBC0E0EAC0E0E9C0E0EE120783D02B
:10064000E0F9D0E0FAD0E0FB121725FF60AAEBC07A
:10065000E0EAC0E0E9C0E012052BD0E02401F9D0C7
:10066000E03400FAD0E0FBE51B0460DCD51BD98048
:10067000877BFF7A07797FD202809C79108002798C
:1006800008C206C2088008D2D5790A8004790AC255
:10069000D5E51B047002F51BE4FAFDFEFF1204F021
:1006A000FC7B082001131204F0FD7B1030000A12BD
:1006B00004F0FE1204F0FF7B20EC3382D592D5507B
:1006C00013C3E43000069FFFE49EFEE42001039D77
:1006D000FDE49CFCE4CBF8C201EC700CCFCECDCC99
:1006E000E824F8F870F38017C3EF33FFEE33FEED24
:1006F00033FDEC33FCEB33FB994002FB0FD8E9EB05
:10070000300105F8D0E0C448B201C0E00AEC4D4E1B
:100710004F78207B0070C2EAB51B0040BCC0E012DD
:100720000785D0F0D0E0200104C4C0E0C4B201C00D
:10073000F0120514D0F0D5F0EB0205641216FF0696
:100740000153067B5805D24C05CE42067F4F0687E3
:0F0750004406874905E743068D55067146067135
:10075F0045067147082D5005D62D05DA2E05FD2BC0
:10076F0005DE2305FB2008162A059648000005F52F
:10077F003F3F3F00790AA2D5200314300509B91075
:10078F00020404B9080104A2D52006025001042076
:10079F0002689202B51A005034C0E07F203003196E
:1007AF007F30A20272067205500F1207DCC202C21E
:1007BF0006C205C2087F30800F300503E9C0E01282
:1007CF00052B300503D0E0F9D0E0B51ACC30051772
:1007DF007F30B9100C12052B7F583004077F7880BB
:1007EF0003B9080312052B3002057F2D02052B7F5D
:1007FF00202008F87F2B2006F322920280CF286E4C
:10080F00756C6C2900D2011204F03001F8C2017826
:10081F001A30D50108F60205962D50434958120497
:10082F00F02403B405004001E49008289312051C3E
:0D083F00743A12051CD203751A0402067BE0
:101EFE00EFC394414005EF94474016EFC394614001
:101F0E0005EF9467400BEFC394304008EF943A50BE
:061F1E0003D38001C32281
:101FDB00EFC39461400AEF947B5005EF24E0FF229E
:011FEB0022D3
:10172500BB010689828A83E0225002E722BBFE02C2
:09173500E32289828A83E49322F5
:10173E00BB010CE58229F582E5833AF583E0225060
:10174E0006E92582F8E622BBFE06E92582F8E222AA
:0D175E00E58229F582E5833AF583E49322C4
:10176B00BB010689828A83F0225002F722BBFE015D
:02177B00F32257
:10177D00FAE6FB0808E6F925F0F618E6CA3AF6226D
:00000001FF
