:100000000200FE022103000000000002210B00009C
:10001000000000022113000000000002211B00006C
:10002000000000020C7A000000000002212B0000FA
:10003000000000022133000000000002213B00000C
:10004000000000022143000000000002214B0000DC
:10005000000000022153000000000002215B0000AC
:10006000000000022163000000000002216B00007C
:10007000000000022173000000000002217B00004C
:10008000000000022183000000000002218B00001C
:10009000000000022193000000000002219B0000EC
:1000A0000000000221A300000000000221AB0000BC
:1000B0000000000221B300000000000221BB00008C
:1000C0000000000221C300000000000221CB00005C
:1000D0000000000221D300000000000221DB00002C
:1000E0000000000221E300000000000221EB0000FC
:0E00F0000000000221F300000000000221FBCE
:1000FE00C28EC28FE4F58BF58D75891020B0FD3060
:10010E00B0FDD28E30B003308FFA30B0FD30B00378
:10011E00308FFA30B0FDC28E208FD5AF8BAE8DEF03
:10012E002440FFE43EFEEF33EE33FFC3E49FF58D34
:10013E00E4F58B758920D28E43878075985AC298C4
:10014E003098FDE599B411F6020578A29822A2998D
:10015E0022E59922F59922C29922D29922C2982299
:0A016E00C2AC22D2AC222222F02201
:0F0565005407539FF8429F0022E59F540722221C
:1005740042332E307581071205737400120565909D
:100584002008E47806F0A3D8FC7421F0A37400F0EA
:10059400A37407F0A3E4F0F52304F5249020007974
:1005A4000078A51205FD78331205FD78CC1205FDFF
:1005B400E960107A0B7D00120DC9E4F530F5319035
:1005C4002007F01203D21209F9B4110AE523120923
:1005D400EDF4F52380F0B40107E5241209ED80E67B
:1005E4001205E980E1F5251414540E900A29FF93AD
:1005F400CFA3938F83F582E473E4936849F9E8F019
:10060400A32274061209EDE5281209ED902003785F
:1006140004E4931209EDA3D8F874041209ED2275C9
:100624002800120A05F5266027120A05F583120A26
:1006340005F582120A05F527120A05120A88A3D5C0
:1006440027F6120A05E5256003752802120606221C
:10065400120A0590200EF0A3120A05F0120A0512E0
:100664000A05B4FF0280DB90200D541FF080D3757F
:100674002800120A05F526120A05F583120A05F563
:1006840082120A05F527120A05E525600775280276
:10069400120606227525007402120A19E526601254
:1006A400120B39120A19A3D527F6E4C39525120AA9
:1006B40019221206CC120A1990200EE493120A1978
:1006C400A3E493120A1980E2120E16C3E99400E817
:1006D40094A0400890200DE49344802274FF227576
:1006E4002800120A05F529120A05F527120A05F54C
:1006F40026120A05F583120A05F582120A05E52574
:10070400600775280212060622E4B52906120D9424
:1007140002060604B52906120DBC02060604B52914
:1007240006120DB802060604B52906120DC002060B
:1007340006120DED020606752800120A05F52912A7
:100744000A05F527120A05F526120A05F583120A89
:1007540005F582120A05FA120A05F8120A05F912B9
:100764000A05E525600775280212060622E4B52964
:0C0774000C120F1712015950031209F962
:100780002204B529030207A804B52908C211120ED4
:10079000D10207A8C212120ECF20120B12060612A7
:1007A000015950031209F9227525007402120A1921
:1007B0007526047583007582E0120B39120A1975CB
:1007C00082F0120B39120A197582D0752A08120BA1
:1007D000395418F582120B39120A19A3D52AF67565
:1007E0008283120B39120A19758282120B39120A8E
:1007F000191206CCC0E0E8120A19E9120A1975822A
:10080000D0120B39120A19D0E0120A19E4120A198F
:10081000E4120A19E4120A19758281120B39F58261
:10082000120A19752601120B39120A191582D527D9
:10083000F5E4C39525120A1922752800120A05F558
:1008400026120A05F583120A05F582120A0504F537
:1008500029120A0504F527120A05F52A8006E52A59
:10086000120A88A3D527F7D529F4120A05E52560D1
:100870000375280212060622752800120A05E525CE
:10088000600775280212060622C211120ED1120646
:10089000CCFA902003E8F0A3E9F0A3A3EAF0888360
:1008A00089828A26120B39902005F01206062275DD
:1008B0002800120A05F529120A05F527120A05E58E
:1008C000256006752802020606E4B529065324FBB6
:1008D00002060604B5290643240402060604B529C7
:1008E00008E4F530F531020606853082E527600917
:1008F000C3E5309527F5825007E5317003020606FF
:100900007525007402120A1975830BE493120A19F3
:100910000583E493120A190583E493120A190583E7
:10092000E493120A190583E493120A190583E493E8
:10093000120A190583E493120A190583E493120A33
:10094000190583E493120A190583E493120A190521
:1009500083E493120A190583E493120A190583E4C8
:1009600093120A190583E493120A190583E493127A
:100970000A190583E493120A190583E493120A19EC
:100980000583E493120A190583E493120A19058377
:10099000E493120A190583E493120A19E4C3952516
:0609A000120A192275285D
:1009A60000120A05F529120A05E5256006752802D2
:1009B600020606E4B52907902007F002060604B5EC
:1009C6002907902007F0020606780490057479023C
:1009D600E493F7A309D8F978049020037902E7F0A5
:1009E600A309D8FA02060612015C50FB1201651231
:1009F60001622212015950FB12015F12016B221291
:100A0600015950FB12015F12016BC0E02525F52547
:100A1600D0E02212015C50FB12016512016225250D
:100A2600F525220623067306E3073B0839087808EE
:030A3600AF09A461
:100BE3009000237FFF120B396402600B74027FFFB6
:100BF300120A88E5287038A37FFF120B39640C6052
:100C030011640C640C600B740C7FFF120A88E528D6
:100C1300701DA37FFF120B3964AF601164AF647A58
:100C2300600B74AF7FFF120A88E5287002C322D3DA
:100C33002212016E120168E58124FAC886830886B0
:100C430082A3A3A3A68218A683C890200DE49312BF
:100C53000565D0D0D083D082D0E0120C63020300AC
:100C63003212015C50FB12016512017190200AE4FB
:100C730093448045A8F022C0E0C082C083C0D075F1
:100C8300D00012056EC0E07400120565D0E090201C
:100C93000DF0902007E493702E90200DE49312053D
:100CA30065D0D0D083D082D0E0022123C0E0C082BF
:100CB300C083C0D075D00012056EC0E07400120569
:100CC30065D0E090200DF01201594003020CE412AC
:100CD300015F12016BB41103020CE4B41B03020C99
:100CE3003412016590200DE493120565D0D0D083B2
:050CF300D082D0E032C8
:100A3900C3E5829400E58394A022FF120A39500F7E
:100A490074FF120565EF120ACD740012056522784C
:100A590000E8120565EF120ACD08B808F47400120F
:100A69000565221392D5120BBFC0E0120B8C0EAF95
:100A79000613DFFDA2D533DEFDFED0E0020B09AF80
:100A890026BF01028077BF02028067BF030280642C
:100A9900BF04028068BF050280A0BF060280C4BFF0
:100AA900FF028096CF54E0B48016120A39401FE540
:100AB90026541F120565EF120ACD7400120565222E
:100AC9007528FF22120176FFE493B5070A22E5286B
:100AD900701F752809800C7400120565E5287011CE
:100AE900752803C082C083902005D0E0F0A3D0E030
:100AF900F022F022A882F2220989827F01FEE58292
:100B0900B47000400720E715F8EEF622C082C083D2
:100B1900902012120BCFEEF0D083D08222BF0102B7
:100B290080E6C082C083F8EE1203F3D083D082221C
:100B3900AF26BF0102804ABF0202803ABF0302808A
:100B490037BF0402803BBF05028028BFFF02802314
:100B5900BF06028054EF54E0B48014E526541F12F6
:100B69000565120B7CC0E07400120565D0E02275A2
:100B790028FF22E49322E022A882E2228982197FB7
:100B890001E582B47000400620E710F8E622C08231
:100B9900C08390201293D083D08222BF010280EBC0
:100BA900C082C0831203EC80ED120BBF120B8C0EB6
:100BB90013DEFDE43322E582FE5407CE6E20E705FD
:100BC9000303032420222582F582E43583F5832259
:0A0BD9000582D582021583158222E1
:100CF800A3E493F8A3E493F9A322120CF8E493F580
:100D08002622C8C583C8C9C582C922E493FB120D2F
:100D18000A120B39CBC000120A88D000A3120D0AA0
:100D2800EBF0A322120ACDA322F528A882A983906A
:100D38002003E527F0A3E526F0A3E9F0A3E8F022D5
:100D4800EA75F006A490207C120BCFE493227A0077
:100D58000A120D48B50002B322BA0AF422AE83AFD4
:100D6800827A0A120D486020120CF8E493B526180E
:100D7800C3E99FFBE89E70028008C3EF99FBEE98D9
:100D88007006BB0200500122DAD9C322120D657425
:100D98000440967800120D567405508D1A8A2774EF
:100DA80001F0A3EEF0A3EFF0A3E526F0E4020D3185
:100DB8007D0180067D0280027D00E527B480107ADF
:100DC8000A120D486002EDF0DAF722E8020D3178D8
:100DD80007B40A0050F5FA0A120D48780660ECEDDF
:100DE800F0E4020D31E5277807B40A0050DD75F00C
:100DF80006A4FF90208293F5270FEF93F80FEF9347
:100E0800F90FEF93F52688838982E4020D3190204B
:100E18000E020CF9C213EC9004659354FC900E2951
:100E2800730210F200020E8B00020E8500020E8083
:100E380000020E7A00020E6800020E64000210CA58
:100E4800000210CC0074E01203ECF8A3A3A3E4930F
:100E5800F9A3E49328F52CE439F52B22120E683215
:100E68001203EAF9120B85F52B120B85F52CE90212
:100E780003F120111E12044F8D2B8E2C22201113EA
:100E880012044FEC03C45407C52B54F8452BF52B1B
:100E98008D2C22AE2BAF2C7A0B120D48120DA7E524
:100EA8002454046003020EB87A0B12038C02113D1D
:100EB800120606D212C2118003120FF2120EDA7A4B
:100EC8000A120FD650F322D211E5245404600312FB
:100ED8000FF21206CCF526882B892C120D0A120B5C
:100EE80039FCA3120B39FDA3120B39FEEC900465F3
:100EF800935403FA252CF52CE4352BF52B120E1CF4
:100F080090200DE493852C82852B8312037722E5AC
:100F180026600BC000C001120377D001D000120D6B
:100F28000A7D00EA60078A26120D657D017A0B1298
:100F38000D48ED120DA9E52454046003020F5F1259
:100F4800038AE528600D640370091203D2120606AD
:100F5800D2122212113D22120606533B009020079E
:100F6800E4937009120ED1120FD450F822120159CD
:100F780050511209F9F8E53B053B600B1460141455
:100F8800601814601C8039B81B0122B80432120999
:080F9800ED803088261209EDFE
:100FA0008029883C1209ED802288821209ED853C57
:100FB00083E526700D90200EE4931209EDA3E493CF
:100FC0008003120B391209ED533B00120ED1120FA0
:100FD000D450A2227A00120E160ABA0C0122120D67
:100FE00048B401F5A3E493B500EFA3E493B501E998
:100FF000B322902008E493F532A3E493F5339020D4
:101000000BE493F534A3E493F5351206CCF5369052
:10101000200EE493F537A3E493F538A3E493F53970
:10102000A3E493F53AE53354182412F582E434200E
:10103000F583E493F8A3E493F9A3E493FAA3E49388
:10104000FBA3E493FCA3E493FDA3E493FEA3E49346
:10105000FF75830B853082E532F00583E53AF005B4
:1010600083E8F00583E9F00583EAF00583EBF005FA
:1010700083ECF00583EDF00583EEF00583EFF005DA
:1010800083E535F00583E534F00583E538F0058325
:10109000E537F00583E533F00583E539F00583E5B1
:1010A00080F00583E590F00583E5A0F00583E5B0C9
:1010B000F00583E536F00530E53070037531012227
:1010C0007412120D157402020D158D067F00EE309C
:1010D000E7011F252CF52EEF352BF52DD213852B8F
:1010E00083852C82120BD9120D0A9020CD74021226
:1010F0000D15A82BA92C9020CE1210C0892F3013CB
:10110000031210C0121165C0E0A82BA92C9020CEAC
:10111000120D13120D13301318120D13120D138527
:101120002B83852C82120BD9120D0A9020CD120D23
:1011300013D0E0B52F06852E2C852D2B229020076D
:10114000E493601C120BE3500D1203D27464F52873
:10115000120606D21222120606D212120C64800562
:10116000120606D212120165120174902081786F66
:10117000E493C6F00582D5820215831582D8F1E486
:1011800093F8902011E493F5F0902010E493C5813A
:10119000F090200FE493C0E090200EE493C0E09024
:1011A000200CE493C0E090200BE493C0E090200A70
:1011B000E493F5A8902009E493C0E0902008E4931C
:1011C000C0E090200DE493120565D0E0D0D0D0832C
:0311D000D08222A8
:1002000000000000000000000000000000000000EE
:1002100000000000000000000000000000000000DE
:1002200000000000000000000000000000000000CE
:1002300000000000000000000000000000000000BE
:1002400000000000000000000000000000000000AE
:10025000000000000000000000000000000000009E
:10026000000000000000000000000000000000008E
:10027000000000000000000000000000000000007E
:10028000000000000000000000000000000000006E
:10029000000000000000000000000000000000005E
:1002A000000000000000000000000000000000004E
:1002B000000000000000000000000000000000003E
:1002C000000000000000000000000000000000002E
:1002D000000000000000000000000000000000001E
:1002E000000000000000000000000000000000000E
:1002F00000000000000000000000000000000000FE
:10030000C082C083C0D0C0E012056EC0E07400128D
:100310000565D0E090200DF0D0E0902008F0D0E00E
:10032000A3F0E4F5D0C5A8A3F0D0E0A3F0D0E0A3FB
:10033000F0A3D0E0A3F0D0E0A3F0A3E493C581F054
:10034000E5F0A3F0E8A3F0780008A3E493C6F0E892
:10035000B46FF61201751203D2120E16120D0A12A4
:100360000BD9120BD9120BD9120D0A90200EE8F0FE
:10037000A3E9F012016822120D0A90200DB4FF02C9
:100380008001F0A3E8F0A3E9F0227A011206CCFC88
:10039000120E16AE01AD00120D48B40130C083C07C
:1003A00082120D02B50414C3EE99FBED98700CBBDC
:1003B000020050077528087401800DA37412120DF5
:1003C000157402120D157403D082D083F00ABA0C92
:1003D000C6227A0B120D48B4030D7401F0120D02FF
:1003E000A3120D13120D13DAEB227481D210F880D0
:1003F000047881C210902008B8E0028024A3B8D00D
:1004000002801EA3B8A8028018A3B883028012A39A
:10041000B88202800C902010B881028004A3B8F04A
:1004200008201002F022E4932279E5201002798856
:10043000C0E09020C4E9120ACDA982E583C8A312C6
:100440000D2C7422120D2C89828883E4D000731243
:1004500003EAC006F9E52C120B01E52B120B01E9AA
:10046000D0060203F101060F0101020101010101A1
:100470000101010101230A1301010201010101012E
:10048000010101010123061501020201010101011F
:100490000101010101230A19010202010101010107
:1004A00001010101011E0602030202010101010115
:1004B00001010101011E0A02030202010101010101
:1004C00001010101011E06020302020101010101F5
:1004D00001010101011E0A022502030202020202B9
:1004E00002020202021E06020101030202020202CD
:1004F0000202020202030A020102020101010101D9
:1005000001010101010206020101010202020202CF
:100510000202020202020A020123232323232323CD
:100520002323232323020602010102010101010109
:100530000101010101020A0201012301011E1E1E27
:100540001E1E1E1E1E010601010102010101010104
:100550000101010101010A01010102010101010181
:05056000010101010191
:00000001FF
