:020000040000FA
:10210000026E6625733A0A0025303262782020007C
:022110000A00C3
:10211300027A4BE709F608DFFA8046E709F208DF9F
:10212300FA803E88828C83E709F0A3DFFA8032E3EA
:1021330009F608DFFA8078E309F208DFFA8070888D
:10214300828C83E309F0A3DFFA806489828A83E0C7
:10215300A3F608DFFA805889828A83E0A3F208DFB6
:10216300FA804C80D280FA80C680D4806980F28065
:1021730033801080A680EA809A80A880DA80E2808B
:10218300CA803389828A83ECFAE493A3C8C582C8E0
:10219300CCC583CCF0A3C8C582C8CCC583CCDFE94A
:1021A300DEE7800D89828A83E493A3F608DFF9ECE6
:1021B300FAA9F0EDFB2289828A83ECFAE0A3C8C571
:1021C30082C8CCC583CCF0A3C8C582C8CCC583CC98
:1021D300DFEADEE880DB89828A83E493A3F208DF07
:1021E300F980CC88F0EF60010E4E60C388F0ED24D7
:1021F30002B4040050B9F582EB2402B4040050AFDA
:10220300232345822390216673BB010689828A8337
:10221300E0225002E722BBFE02E32289828A83E4A2
:102223009322BB010CE58229F582E5833AF583E02D
:10223300225006E92582F8E622BBFE06E92582F84C
:10224300E222E58229F582E5833AF583E49322BB12
:10225300010989828A83F8E028F022500327F722B4
:10226300BBFE05F8E328F3228A838982F8E49328E6
:1022730022BB010FF8E58229F582E5833AF583E075
:1022830028F0225009C58229F8E58226F622BBFEF2
:1022930009C58229F8E22582F222F8EA2583F5832B
:1022A300E9932822BB010689828A83F0225002F730
:1022B30022BBFE01F322F8BB010DE58229F582E57D
:1022C300833AF583E8F0225006E92582C8F622BB5B
:1022D300FE05E92582C8F222EF8DF0A4A8F0CF8C89
:1022E300F0A428CE8DF0A42EFE22BC000BBE002944
:1022F300EF8DF084FFADF022E4CCF875F008EF2FFA
:10230300FFEE33FEEC33FCEE9DEC984005FCEE9DB6
:10231300FE0FD5F0E9E4CEFD22EDF8F5F0EE8420D2
:10232300D21CFEADF075F008EF2FFFED33FD400733
:10233300985006D5F0F222C398FD0FD5F0EA22C2D9
:10234300D5EC30E709B2D5E4C39DFDE49CFCEE3047
:10235300E715B2D5E4C39FFFE49EFE1222EDC3E46A
:102363009DFDE49CFC80031222ED30D507C3E49F5E
:10237300FFE49EFE22C5F0F8A3E028F0C5F0F8E5DF
:1023830082158270021583E038F022A3F8E0C5F0CD
:1023930025F0F0E582158270021583E0C838F0E875
:1023A30022BB010A89828A83E0F5F0A3E02250066A
:1023B30087F009E71922BBFE07E3F5F009E31922C9
:1023C30089828A83E493F5F074019322BB0110E5BB
:1023D3008229F582E5833AF583E0F5F0A3E0225004
:1023E30009E92582F886F008E622BBFE0AE9258280
:1023F300F8E2F5F008E222E5832AF583E993F5F0A4
:10240300A3E99322BB010789828A83022378500BB5
:1024130009C5F027F7C5F01937F722BBFE0D09F8F8
:10242300E325F0F3C5F019E338F322F889828A83B0
:1024330074019325F0C5F0F8E4933822BB010DC570
:102443008229C582C5833AC5830223785011C58288
:1024530029F808E5F026F618F5F0E58236F622BBF2
:10246300FE11C58229F808E225F0F5F0F218E235ED
:1024730082F222F8E58229F582E5832AF583740145
:102483009325F0F5F0E4933822BB010A89828A830D
:10249300F0E5F0A3F0225006F709A7F01922BBFEDE
:1024A30006F3E5F009F31922F8BB0111E58229F5DA
:1024B30082E5833AF583E8F0E5F0A3F0225009E9D9
:1024C3002582C8F608A6F022BBFE09E92582C8F2D8
:1024D300E5F008F222EF2BFFEE3AFEED39FDEC3882
:1024E300FC22C3EF9BFFEE9AFEED99FDEC98FC22D4
:1024F300E88FF0A4CC8BF0A42CFCE98EF0A42CFC88
:102503008AF0EDA42CFCEA8EF0A4CDA8F08BF0A405
:102513002DCC3825F0FDE98FF0A42CCD35F0FCEB64
:102523008EF0A4FEA9F0EB8FF0A4CFC5F02ECD3929
:10253300FEE43CFCEAA42DCE35F0FDE43CFC227520
:10254300F008758200EF2FFFEE33FECD33CDCC3391
:10255300CCC58233C5829BED9AEC99E58298400CF9
:10256300F582EE9BFEED9AFDEC99FC0FD5F0D6E4D7
:10257300CEFBE4CDFAE4CCF9A88222B800C1B900BD
:1025830059BA002DEC8BF084CFCECDFCE5F0CBF91E
:102593007818EF2FFFEE33FEED33FDEC33FCEB3316
:1025A300FB10D703994004EB99FB0FD8E5E4F9FA44
:1025B300227818EF2FFFEE33FEED33FDEC33FCC929
:1025C30033C910D7059BE99A4007EC9BFCE99AF9BC
:1025D3000FD8E0E4C9FAE4CCFB2275F010EF2FFF2B
:1025E300EE33FEED33FDCC33CCC833C810D7079B95
:1025F300EC9AE899400AED9BFDEC9AFCE899F80FF8
:10260300D5F0DAE4CDFBE4CCFAE4C8F922EF5BFFC2
:10261300EE5AFEED59FDEC58FC22EF4BFFEE4AFE5D
:10262300ED49FDEC48FC22EF6BFFEE6AFEED69FD20
:10263300EC68FC22CFF4CFCEF4CECDF4CDCCF4CCE9
:1026430022C3E49FFFE49EFEE49DFDE49CFC22EB99
:102653009FF5F0EA9E42F0E99D42F0EC6480C86485
:10266300809845F022EB9FF5F0EA9E42F0E99D4207
:10267300F0E89C45F022E8600FECC313FCED13FD7A
:10268300EE13FEEF13FFD8F122E8600FEFC333FF21
:10269300EE33FEED33FDEC33FCD8F122BB010789A9
:1026A300828A8302272D5005E9F8022E44BBFE05DA
:1026B300E9F8022E5089828A83022E5CBB010DE564
:1026C3008229F582E5833AF58302272D5007E92510
:1026D30082F8022E44BBFE07E92582F8022E50E55C
:1026E3008229F582E5833AF583022E5CBB010789D3
:1026F300828A830227CA5005E9F8022E96BBFE059B
:10270300E9F8022EA222BB010DE58229F582E583B9
:102713003AF5830227CA5007E92582F8022E96BBB1
:10272300FE07E92582F8022EA222E0FCA3E0FDA326
:10273300E0FEA3E0FF22E0F8A3E0F9A3E0FAA3E0C0
:10274300FB22BB010789828A830227395005E9F8F6
:10275300022E6CBBFE05E9F8022E7989828A830278
:102763002E86BB010DE58229F582E5833AF58302C6
:1027730027395007E92582F8022E6CBBFE07E925AD
:1027830082F8022E79E58229F582E5833AF5830200
:102793002E867401FF3395E0FEFDFCA3A3A3E0CFD7
:1027A3002FF0E582158270021583E0CE3EF0E582BC
:1027B300158270021583E0CD3DF0E582158270022B
:1027C3001583E0CC3CF022ECF0A3EDF0A3EEF0A3F4
:1027D300EFF022A8828583F0D083D0821227ED12F6
:1027E30027ED1227ED1227EDE473E493A3C583C508
:1027F300F0C583C8C582C8F0A3C583C5F0C583C827
:10280300C582C822BB010DE58229F582E5833AF52D
:10281300830227D65007E92582F8022EAEBBFE07B6
:10282300E92582F8022EC722A42582F582E5F03538
:1028330083F58322E0FBA3E0FAA3E0F922F8E0FBAF
:10284300A3A3E0F925F0F0E582158270021583E079
:10285300FA38F022EBF0A3EAF0A3E9F022E493FBC9
:10286300740193FA740293F922BB010789828A8364
:102873000228375005E9F8022EE0BBFE05E9F8020D
:102883002F0989828A83022860BB011A89828A837D
:10289300D0F0D0E0F8D0E0F9D0E0FAD0E0FBE8C027
:1028A300E0C0F00228575016E9F8D083D082D0E078
:1028B300F9D0E0FAD0E0FBC082C083022EE9BBFE70
:1028C30016E9F8D083D082D0E0F9D0E0FAD0E0FB6B
:1028D300C082C083022F1222BB010DE58229F5823B
:1028E300E5833AF5830228375007E92582F8022E5B
:1028F300E0BBFE07E92582F8022F09E58229F5826C
:10290300E5833AF583022860BB0120E58229F5823D
:10291300E5833AF583D0F0D0E0F8D0E0F9D0E0FADF
:10292300D0E0FBE8C0E0C0F00228575018E9258248
:10293300F8D083D082D0E0F9D0E0FAD0E0FBC082B7
:10294300C083022EE9BBFE18E92582F8D083D0822A
:10295300D0E0F9D0E0FAD0E0FBC082C083022F12AE
:1029630022D083D082F8E4937012740193700DA384
:10297300A393F8740193F5828883E47374029368D4
:1029830060EFA3A3A380DFD083D082F8E493701217
:10299300740193700DA3A393F8740193F582888354
:1029A300E473740293B5F0067403936860E9A3A318
:1029B300A3A380D88A838982E473EC8EF0A4CCC568
:1029C300F0CCCDF8EFA4CEC5F02DFDE43CFCE8A49B
:1029D3002EC8C5F03DFDE43CFCEFA4FFE5F028FE66
:1029E300E43DFDE43CFC22E3F5F009E208B5F06DBB
:1029F300606B80F3E3F5F009E608B5F060605E8094
:102A0300F387F009E608B5F054605280F487F009C3
:102A1300E208B5F048604680F488828C8387F00929
:102A2300E0A3B5F038603680F488828C8387F009A0
:102A3300E493A3B5F027602580F388828C83E3F5C4
:102A4300F009E0A3B5F016601480F388828C83E369
:102A5300F5F009E493A3B5F004600280F2022B15AC
:102A6300808580E7808E80D2803C8015806C807E5C
:102A7300809B80B5808B80A1804F8070803A022B31
:102A83002189828A83ECFAE493F5F0A3C8C582C84E
:102A9300CCC583CCE493A3C8C582C8CCC583CCB5CD
:102AA300F070606E80E189828A83E493F5F0A3E29B
:102AB30008B5F05E605C80F289828A83E0F5F0A35A
:102AC300E608B5F04D604B80F389828A83E0F5F028
:102AD300A3E208B5F03C603A80F389828A83E493E9
:102AE300F5F0A3E608B5F02A602880F280538982C6
:102AF3008A83ECFAE493F5F0A3C8C582C8CCC583F6
:102B0300CCE0A3C8C582C8CCC583CCB5F0046002B1
:102B130080E27FFFB5F0020F2240027F012289820B
:102B23008A83ECFAE0F5F0A3C8C582C8CCC583CC90
:102B3300E0A3C8C582C8CCC583CCB5F0D560D3802B
:102B4300E389828A83ECFAE0F5F0A3C8C582C8CC96
:102B5300C583CCE493A3C8C582C8CCC583CCB5F0E8
:102B6300B160AF80E288F0ED2402B4040050A3F515
:102B730082EB2402B4040050992323458223902A34
:102B83006373E709F60870FA8046E709F20870FAFA
:102B9300803E88828C83E709F0A370FA807EE30984
:102BA300F60870FA8076E309F20870FA806E88827C
:102BB3008C83E309F0A370FA806289828A83E0A39D
:102BC300F60870FA805689828A83E0A3F20870FAC5
:102BD300804A80D280FA80C680D4806580F28031BA
:102BE300801080A680EA809A80A880DA80E280CA7A
:102BF300803189828A83ECFAE493A3C8C582C8CC66
:102C0300C583CCF0A3C8C582C8CCC583CC70E9808A
:102C13000D89828A83E493A3F60870F9ECFAA9F08C
:102C2300EDFB2289828A83ECFAE0A3C8C582C8CC73
:102C3300C583CCF0A3C8C582C8CCC583CC70EA8059
:102C4300DD89828A83E493A3F20870F980CE88F049
:102C5300ED2402B4040050C4F582EB2402B4040052
:102C630050BA2323458223902BD573E3F5F009E271
:102C730008B5F06BDFF58067E3F5F009E608B5F01A
:102C83005EDFF5805A87F009E608B5F052DFF6807B
:102C93004E87F009E208B5F046DFF6804288828C61
:102CA3008387F009E0A3B5F036DFF6803288828CA3
:102CB3008387F009E493A3B5F025DFF580218882AB
:102CC3008C83E3F5F009E0A3B5F014DFF5801088F9
:102CD300828C83E3F5F009E493A3B5F002DFF402F9
:102CE3002D9D808780E9809080D4803E8015806E02
:102CF300807E809D80B7808D80A380518074803CCE
:102D0300022DA989828A83ECFAE493F5F0A3C8C55E
:102D130082C8CCC583CCE493A3C8C582C8CCC58381
:102D2300CCB5F076DFE3DEE1807089828A83E493B9
:102D3300F5F0A3E208B5F062DFF4805E89828A834E
:102D4300E0F5F0A3E608B5F051DFF5804D89828AFE
:102D530083E0F5F0A3E208B5F040DFF5803C89821B
:102D63008A83E493F5F0A3E608B5F02EDFF4802A16
:102D73008002805789828A83ECFAE493F5F0A3C832
:102D8300C582C8CCC583CCE0A3C8C582C8CCC583E3
:102D9300CCB5F006DFE4DEE280007FFFB5F0020F82
:102DA3002240027F012289828A83ECFAE0F5F0A3B4
:102DB300C8C582C8CCC583CCE0A3C8C582C8CCC56E
:102DC30083CCB5F0D5DFE5DEE380CF89828A83EC5F
:102DD300FAE0F5F0A3C8C582C8CCC583CCE493A3BD
:102DE300C8C582C8CCC583CCB5F0AFDFE4DEE280D2
:102DF300A988F0EF60010E4E60ABED2402B404002D
:102E03005098F582EB2402B40400508E23234582AC
:102E130023902CE573EF4E6012EF60010EEDBB01C2
:102E23000B89828A83F0A3DFFCDEFA2289F0500744
:102E3300F709DFFCA9F022BBFEFCF309DFFCA9F0D4
:102E430022E6FC08E6FD08E6FE08E6FF22E2FC08AF
:102E5300E2FD08E2FE08E2FF22E493FC740193FD25
:102E6300740293FE740393FF22E6FB08E6F908E677
:102E7300FA08E6CBF822E2FB08E2F908E2FA08E2F4
:102E8300CBF822E493F8740193F9740293FA740370
:102E930093FB22ECF608EDF608EEF608EFF622ECCB
:102EA300F208EDF208EEF208EFF222D083D082E4CA
:102EB30093F608740193F608740293F60874039367
:102EC300F6740473D083D082E493F208740193F20E
:102ED30008740293F208740393F2740473E6FB0814
:102EE300E6FA08E6F922EBF608EAF608E9F622F82C
:102EF300E0FBA3A3E025F0F9F0E58215827002154B
:102F030083E038FAF022E2FB08E2FA08E2F922EB66
:102F1300F208EAF208E9F222E59F54072323C0E00E
:102F23007473C0E0C082C083027300E59F5407231B
:102F330023C0E07473C0E0C082C083027304E59FC2
:102F430054072323C0E07473C0E0C082C0830273BC
:102F530008E59F54072323C0E07473C0E0C082C018
:102F63008302730CE59F54072323C0E07473C0E00E
:102F7300C082C083027310E59F54072323C0E0740B
:102F830073C0E0C082C083027314E59F54072323F8
:102F9300C0E07473C0E0C082C083027318E59F541D
:102FA300072323C0E07473C0E0C082C08302731C94
:102FB300EF23239073007390C882022FA090CA233B
:102FC300022FA090F5AC022F4190E45D022F4190B7
:102FD300B349022FA090C957022FA090EC48022FAB
:102FE3004190E603022F4190DD48022F8D90E3DBF1
:102FF300022F8D90B400022F7A90EA4E022F7A901E
:10300300D6E1022F8D90EB52022F7A90F42E022FED
:103013008D90A9FA022F7A90F4EA022F8D90E2AAFA
:10302300022F8D90EED3022F8D90B234022F8D900C
:10303300EF9F022F8D90ECB7022F8D90E1CB022FE3
:103043006790CACA022F7A90F0EB022F8D90A000EE
:10305300022F1B90A347022F1B90A39C022F1B90B0
:10306300A352022F1B90A3DC022F1B90A4F1022F6B
:103073001B90AA44022F1B90AA78022F1B90AB87A8
:10308300022F1B90A5C5022F1B90A950022F1B9046
:10309300A9EF022F1B90ABA8022F1B90ABAE022F00
:1030A3001B90A99E022F1B90AB62022F1B90A60AB6
:1030B300022F1B90A915022F1B90ACCB022F1B9044
:1030C300AE1B022F1B90B009022F1B90B055022F8D
:1030D3001B90B072022F1B90A0A8022F1B90B0F17F
:1030E300022F1B900000022F1B90B21A022F1B907D
:1030F300B348022F1B90B37D022F1B90A02F022FEA
:103103001B90B3F2022F1B90B3FA022F1B90B4074C
:10311300022F1B900000022F1B90B412022F1B9052
:10312300B44A022F1B90A56A022F1B90A5ED022F14
:103133001B90B487022F1B90B4A4022F1B90B4BA28
:10314300022F1B90A517022F1B90B4D5022F1B90A3
:10315300B4F1022F1B90B50B022F1B90B517022F52
:103163001B90B569022F1B90A30C022F1B90B5B4C3
:10317300022F1B90AE2D022F1B90B60F022F1B9018
:10318300B67C022F1B90B6DD022F1B90B754022F83
:103193001B90AC4A022F1B90B8D2022F1B90B8D3BE
:1031A300022F1B900000022F1B90B8E5022F1B90EB
:1031B300B8FD022F1B90BB83022F1B90BB9B022FDA
:1031C3001B90BBA9022F1B90BBD2022F1B90BC6389
:1031D300022F1B90BCF5022F1B90BD4A022F1B90A0
:1031E300C088022F1B90B29F022F1B90C129022F70
:1031F3001B90AAAF022F1B90A3F3022F1B90C1D1E8
:10320300022F1B90C243022F1B90AE62022F1B9012
:10321300C27B022F1B90A8D5022F1B90AD5C022FFF
:103223001B90AE8C022F1B90C281022F1B90A817FC
:10323300022F1B90C542022F1B90C592022F1B9099
:10324300B899022F2E90B9AA022F2E90A4F8022F1C
:103253002E90A802022F2E90BBA1022F2E90BC14F9
:10326300022F2E90BCA6022F2E90ADEA022F2E9095
:10327300B119022F2E90A26C022F2E90BD35022F72
:103283002E90A994022F2E90BD57022F2E90BDF49D
:10329300022F2E90BE7E022F2E90A24F022F2E9031
:1032A300A312022F2E90A000022F2E90C822022FCD
:1032B3002E90C867022F2E90C96E022F2E90A6382B
:1032C300022F2E90C883022F2E90C93B022F2E90DF
:1032D300D6A5022F2E90D6B6022F2E90D6C5022F3A
:1032E3002E90C8C9022F2E90C90F022F2E90AA63C9
:1032F300022F2E90D825022F2E90D5B9022F2E9073
:10330300D945022F2E90D9EB022F2E90A233022FF4
:103313002E90D638022F2E90DAFA022F2E90DB351C
:10332300022F2E90DD85022F2E90DC04022F2E908B
:10333300DCA6022F2E90D853022F2E90C12E022FDF
:103343002E90DA13022F2E90DFB5022F2E90DF700E
:10335300022F2E900000022F2E900000022F2E909D
:10336300A319022F2E90CFD8022F2E90D5C3022F50
:103373002E90DFD0022F2E90E03A022F2E90E058AD
:10338300022F2E90E0B1022F2E90AAEF022F2E9043
:10339300E105022F2E90D2C7022F2E900000022F9C
:1033A3002E90C909022F2E90E12C022F2E90C4F9E2
:1033B300022F2E90B400022F2E90E15C022F2E904C
:1033C300ABC5022F2E90B13D022F2E90AC6A022F77
:1033D3002E90DEB1022F2E90E2C5022F2E90E2CB6B
:1033E300022F2E90EE63022F4190EBC3022F4190E8
:1033F300DC24022F4190D8C9022F4190F383022F7E
:103403004190C6D8022F4190EEF4022F4190E3A6DB
:10341300022F4190F84B022F4190A3EC022F4190D1
:10342300C8C4022F4190F9BD022F4190C973022FE6
:103433004190F4EB022F4190CA36022F4190FA3C9F
:10344300022F4190FA9E022F4190F431022F4190B6
:10345300C05B022F4190C391022F4190B7A3022F6B
:103463004190FB33022F4190C251022F4190E24B16
:10347300022F5490E3CF022F5490A03C022F54907C
:10348300DE5D022F5490E6B6022F5490E67F022FA2
:103493005490D10D022F5490DBDB022F5490CB8E2E
:1034A300022F5490E8E7022F5490D7B0022F549084
:1034B300E9D4022F5490E9F6022F5490D0EA022F58
:1034C3005490CFCE022F5490EA8B022F5490CCDA33
:1034D300022F54900000022F5490CDC9022F549014
:1034E300E144022F5490C7B5022F5490DC14022FED
:1034F3005490EA9D022F5490CA6A022F5490B9C780
:10350300022F5490DBD2022F5490E2CE022F54901C
:10351300B393022F5490A000022F5490DB49022F43
:103523005490C3AF022F5490DA2A022F5490E1A68D
:10353300022F5490C3CD022F5490C23C022F5490BB
:10354300C411022F5490E154022F5490C4C1022F8E
:103553006790C7F7022F6790E3B1022F6790CD5CA6
:10356300022F6790E01C022F6790E199022F67906A
:10357300E881022F6790D16E022F6790CC72022FE1
:103583006790DDBF022F6790D98C022F6790E69872
:10359300022F6790E8CB022F6790E87C022F679099
:1035A300CADF022F6790A59E022F6790D2AF022F2A
:1035B3006790E8CC022F6790E62F022F6790EB5BB2
:1035C300022F6790EB81022F6790E3EC022F679045
:1035D300E447022F6790E590022F6790E5B4022F2E
:1035E3006790D671022F6790E5F1022F6790CAE8C2
:1035F300022F7A90C931022F7A90CA97022F7A90BC
:10360300C1A1022F7A90BFD4022F7A90C765022FEF
:103613007A90B7B0022F7A90B5A1022F7A9000006A
:10362300022F7A90CE5A022F7A90C0E2022F7A901C
:10363300CF83022F7A90D0F0022F7A90C388022F83
:103643007A90D108022F7A90A8FC022F7A90D1EEBB
:10365300022F7A90A979022F7A90D4DE022F7A90E2
:10366300D54A022F7A90D808022F7A90D8A5022F34
:103673007A90D423022F7A90D8D2022F7A90D32330
:10368300022F7A90DA55022F7A90DA8D022F7A90F0
:10369300ACF2022F7A90D508022F7A90D53F022FF1
:1036A3007A90E41C022F7A90E440022F7A90E45738
:1036B300022F7A90E0A1022F7A90AF44022F7A90E2
:1036C300D5A9022F7A90A007022F7A90C08E022FDD
:1036D3007A90D572022F7A90C85A022F7A90A22339
:1036E300022F7A90BF2E022F7A90E96D022F7A90E3
:1036F300B5EE022F7A90EA3A022F7A90E02A022F4F
:103703007A90D850022F7A90EA8D022F7A90EAAA03
:10371300022F7A90B5C3022F7A90EBB0022F7A90E2
:10372300D8FD022F7A90DF7E022F7A90CE93022F5C
:103733008D90E68A022F8D90E94F022F8D90E89CA1
:10374300022F8D90BB4C022F8D90BB92022F8D9038
:10375300D2DB022F8D90B6D0022F8D90F105022F70
:103763008D90D289022F8D90F135022F8D90F19497
:10377300022F8D90F1DF022F8D90F1EE022F8D90AD
:10378300C8C1022F8D90C828022F8D90C98E022F99
:103793008D90F223022F8D90C9B6022F8D90D430D5
:1037A300022F8D90C6BD022F8D90BF3C022F8D90AE
:1037B300BBF8022F8D90D422022F8D90EBFB022FAA
:1037C3008D90A000022F8D90E63A022F8D90B3E7E3
:1037D300022F8D90F332022F8D90D8CD022F8D9032
:1037E300E35F022F8D90F373022F8D90E5C1022FBB
:1037F3008D90F414022F8D90E7A3022F8D90E7296B
:10380300022F8D90E994022F8D90E7CB022F8D909C
:10381300E75F022F8D90E974022F8D90E0BD022F98
:103823008D90CED0022F8D90F493022F8D90D52BB7
:10383300022F8D90A041022F8D90A2F8022F8D9020
:10384300F063022F8D90F086022F8D90EBDD022F17
:103853008D90EB8D022F8D90F525022F8D90EAF739
:10386300022F8D90EC50022F8D90F482022FA090A6
:10387300FB53022FA090F25E022FA090BCB5022F43
:10388300A090A113022FA090FB52022FA090F9AB9E
:10389300022FA090F3E6022FA090A1F0022FA041E7
:1038A3003CFA00522105060020020040020080027B
:1038B30001000302000102F643211B0A00CA4C2146
:1038C3001E2800641E00C802020001040041773371
:1038D30000442C00000000004421000000000041CF
:1038E30021040044772E0000000043C1B601051CEB
:1038F30043C14A01051843BCDE01051443C1BC01A1
:10390300051043BD3A01050843C144010520605831
:10391300BCE2000004B000000516000009600000CE
:10392300028B000012C0000001450000258000004A
:1039330000A2000038400000006C00004B000000B3
:103943000051000070800000003600009600000067
:1039530000280000DAC00000001C0000E1000000A5
:10396300001B0001C2000000000D43C1B9000000AC
:1039730043BD3D00000041BCD90142BCDA00004117
:10398300BCDC0041BCD50042DC92CAFE46CBE10060
:10399300112233445546CD9CFFFFFFFFFFFF46CD69
:1039A30092FFFFFFFFFFFF41CBE70041CBE900415F
:1039B300CDAF0141CD980041CD9B0041CBE8004103
:1039C300CD990041CDB00044CBD90000000044CDD7
:1039D300B50000000044CBDD0000000044CDB90079
:1039E30000000044CDBD0000000044CDA200000053
:1039F3000044CDA70000000044CDAB00000000440C
:103A0300CBD50000000041CD9A0041CDA60044CDA6
:103A1300B10000000044CBB80000000044DC730197
:103A230004030243DC8300000044DC77000040020F
:103A33006042D42300045E045F045800FE000101C9
:103A430004620463045800EF001002046604670470
:103A53005900FE000103046A046B045900EF0010CF
:103A6300040E2D0E2D0E2D000800F7050E2D0E2D24
:103A73000E2D001000EF60A8D37B6F6E6F6666009B
:103A8300000000000000000000000101D36E00727E
:103A9300656C61796368310000000000000001017A
:103AA30001D3730072656C617963683200000000B2
:103AB300000000020101D37400726564000000007D
:103AC3000000000000000000030101D36F006772D3
:103AD30065656E00000000000000000000040101A5
:103AE300D37000626C7565000000000000000000E8
:103AF3000000050101D37100776869746500000057
:103B030000000000000000060101D372006E6F6E1A
:103B13006500000000000000000000002500000018
:103B2300000041DBE60041DBE20042DBE300004151
:103B3300DBE5006066D7BE09122448902041820469
:103B43000912244890214306044992E4C881E10004
:103B5300122438705C3070E4C88D1B160A18316269
:103B6300C3460502458AD4A8416100112234684C3A
:103B7300103064C88C191202081122434604004114
:103B830082C48801210A10203060C48102081020F9
:103B93003870200103060C162C680001026020D83F
:103BA300447E4E84818AC49107974A9D8DA3C0AAFF
:103BB30004B047B68ABCCDC300C943CF86D5C9DCA0
:103BC3000D6020D8247C6082A088E08F2095609BC4
:103BD300A0A1E0A820AE60B4A0BAE0C120C760CD28
:103BE300A0D3E0DA2042D864019044D7BAFFFFFFA4
:103BF300FF41D7B90146DC6DFFFFFFFFFFFF41DC4B
:103C0300940041DC860A42DC87000041DBA50144C5
:103C1300CBA10007A12041CB300041CB8A0041CB8F
:103C2300890041CBAB0044CB200000000041CBA571
:103C33000041CBA60041CB8F0144CBB0000CB6E2D0
:103C430044CBAC000CB4EE44CB85000CB30044CBA6
:103C53008B000CBA0044CBB4000000006020CB45BD
:103C630030C104DD319304DD325504DD332604DD38
:103C730033F304DD34C004DD358C04DD365A04DD52
:103C830050CB3540808080C080008140818081C0DE
:103C930081008247CB69112233445566774CCB9020
:103CA30000000000000000000000000041C97F0088
:103CB30041C9800041C9810044C982000000005409
:103CC300DC135A502D56322E32302E31312E372EF0
:103CD3003131000000006028D957536D6172744C74
:103CE300696768740000000000060001D37B4E6F13
:103CF3006E650000000000000000000000000000EE
:103D0300000041D93D0041D93E0041DC95004CDA29
:103D13006500300F110FFF0FFF0FFF0FFF4CDA4C41
:103D230000340F430FFF0FFF0FFF0FFF4CDA590053
:103D3300610C650FFF0FFF0FFF0FFF41DA73005692
:103D4300DA7400010102030405060708090A0B0CD3
:103D53000D0E0F10111213FF56DA8E1F1F1F1613AD
:103D63000E11100F0F110F0F0E0E0000000000199F
:103D73000044DA8A0000000041DA720041DA71017E
:103D830041D9E30044D9E50000000044D9C2000052
:103D9300000041D6380041D639004CDABE00300E5F
:103DA3007F0FFF0FFF0FFF0FFF4CDACA00300BF43A
:103DB3000FFF0FFF0FFF0FFF4CDAA600400080003C
:103DC300C001000EAF0FFF4CDAB20040008000C00C
:103DD30001000C040FFF41DAA50141DAA40141D827
:103DE300EA0044D8EF0000000044D8EB00000000D4
:103DF30041DC890041DC8B0041DC8A004187F6000D
:103E03005587DB0400200200400600960600C40527
:103E1300010000023000040043D92900000041D80A
:103E2300FE0144DC7B0000000048DA1101040101BB
:103E3300010201016020DA1A0101010101010101FE
:103E43000401080201010101020101020102010151
:103E530002010202010101014EDA035D01110104B5
:103E630001040101010108020241DA190850DBFBD8
:103E7300C0C1C2C3C4C5C6C7C8C9CACBCCCDCECFC7
:103E830041DC8E0041DC8C0041DC8D0041788D00EB
:103E93004187DA004478880000000041788C0F44A1
:103EA30087D6000000014487D20000000041983FFC
:103EB3000041D63D0044D6FF0000000041DB330B38
:103EC30044BCD10000000044BCCD0000000047D139
:103ED3003DC92120E843000050D12D2EDCCF9CB0FA
:103EE300955DF8D423B3FAC69895D5005354412071
:103EF30054595045204A4F494E0A005354412054C7
:103F0300595045204144440A00535441204E4554DE
:103F1300574F524B20444953430A005354412055B1
:103F23004E4153534F430A00535441205459504573
:103F330020554E4153534F43205041535349564507
:103F43000A00535441204153534F430A0043434F04
:103F530020554E4153534F430A0043434F2041538F
:103F6300534F430A0043434F2048414E444F564565
:103F7300520A00534E534D3A3E3E44495343204266
:103F8300434E0A00534E534D3A63616E27742067C4
:103F930065742043436F207363620A004541460AF8
:103FA30000534E534D3A3C3C444953432042434E05
:103FB300284C29207465693A202562750A00534EFE
:103FC300534D3A73776974636820746F2062616339
:103FD3006B75702043436F0A00534E534D3A556E31
:103FE3006B6E6F776E20646973632053544120694D
:103FF3006E2042636E0A00534E534D3A3C3C444993
:1040030053432042434E284829207465693A2025AA
:1040130062750A00534E534D3A67657420646973A1
:104023006342636E20736368656428256275290A99
:1040330000534E534D3A53657474696E67206E6531
:104043007453796E63202562750A00534E534D3ABB
:104053003E3E434D5F554E4153534F435F5354418F
:104063002E494E440A00534E534D3A3E3E43435F5E
:10407300444953435F4C4953542E434E460A00412F
:104083007373657274206661696C65643A20286E87
:1040930065774576656E742D3E6275666644657315
:1040A300632E64617461707472203E3D206E657787
:1040B3004576656E742D3E62756666446573632E40
:1040C30062756666292626202020202020202020B5
:1040D30020202028286E65774576656E742D3E6214
:1040E300756666446573632E6461746170747220CF
:1040F3002D206E65774576656E742D3E6275666616
:10410300446573632E62756666202B202020202071
:10411300202020202020202020206E6577457665F2
:104123006E742D3E62756666446573632E646174B6
:10413300616C656E29203C3D206E65774576656E22
:10414300742D3E62756666446573632E627566669A
:104153006C656E29202866696C65202573206C695F
:104163006E65202564290A002E2E5C2E2E5C2E2ED1
:104173005C2E2E5C6669726D776172655C68706730
:10418300705C7372635C6C696E6B5C6E736D5F7392
:1041930074612E63006E736D3A4C494E4B4C5F5302
:1041A30054415F545950455F4E4554444953432C41
:1041B300536574207374610A006E736D3A4C494EF3
:1041C3004B4C5F5354415F545950455F554E4153D7
:1041D300534F430A00534E534D3A53746172742044
:1041E3004153534F43205354410A00534E534D3AC6
:1041F300756E6B6E6F776E20737461207479706562
:10420300282564290A00534E534D3A3C3C434D5FE5
:10421300554E4153534F435F5354412E494E440A25
:10422300006E736D3A4C494E4B4C5F5354415F548F
:104233005950455F554E4153534F4320320A006E48
:10424300736D3A4C494E4B4C5F5354415F54595034
:10425300455F4153534F430A006E736D3A424254D4
:10426300204578700A007377697463682073796EE8
:104273006320736E6964202562750A006E736D3A5C
:1042830042434E5F5352435F43434F0A00534E53DF
:104293004D3A53657474696E672053544120536ECD
:1042A3006964202562750A004556454E545F54598A
:1042B30050455F54494D45525F4A4F494E5F5449FB
:1042C3004D454F55540A0064736C207273740A0091
:1042D30064736C0A000A4253520A00534E534D3A18
:1042E3003C3C3C43435F444953435F4C4953542E46
:1042F300524551287465693A20256275290A00627E
:10430300636E206D6973730A00534E534D207374AB
:1043130061746520636F6E6E656374202562750A30
:1043230000534E534D207374617465202562750AE2
:1043330000534E534D3A4541460A000A496E69748B
:1043430020526F7574654170702028617070206908
:104353006429000A446973632028646C2025627809
:104363002061702025627820706320256275207794
:10437300632025627520706C202562752072612090
:1043830025627529000A312E3020646C2025627560
:104393002075646C2025627520706320256275206A
:1043A3007763202562752072612025627520706114
:1043B300726C20256275000A46505245512052788E
:1043C3002873203078253032782C206420307825EB
:1043D3003032782C206C20256275206C7169202581
:1043E300627529000A465052535020527828732090
:1043F3003078253032782C2064203078253032789C
:104403002C206C20256275206C7169202562752033
:10441300706C202562752C206C71692025627529CA
:10442300000A5352455120527828732030782530A2
:1044330032782C2064203078253032782C206C2080
:1044430025627529000A535253502052782873204D
:104453003078253032782C2064203078253032783B
:104463002C206C2025627529000A46505253502097
:1044730054782873203078253032782C206420300B
:1044830078253032782C206C2025627529000A4665
:104493005052455120547828732030782530327893
:1044A3002C00206428706C2920307825303278293C
:1044B30020636E742025627500206428776C2920A0
:1044C3003078253032782920636E74202562750098
:1044D300206428706C2920307825303278206428B5
:1044E300776C2920307825303278292070636E74F8
:1044F300202562752077636E742025627500206C19
:104503002025627520646C2025627520706C20253F
:104513006275000A5352455120547828732030782D
:10452300253032782C2064203078253032782C20C6
:104533006C2025627529000A505253502054782864
:1045430073203078253032782C2064203078253061
:1045530032782C206C2025627529000A4150617243
:10456300206C20256275206F6C20256275206F6199
:104573002025782061202578000A4E496565653A33
:10458300000A4164644E206A64783A2025627520EB
:1045930072616E6B3A2025752070616464723A20F3
:1045A300257820636820256278206C716920256254
:1045B3007520656431202562782065642025627842
:1045C300206C20256278206120257820727373691E
:1045D3002025627820636E7420256275000A526577
:1045E3006D2861292069647820256275206E6272C6
:1045F30020307825303278206C696E6B2025627804
:104603002069735020256275000A52656D28692957
:104613002069647820256275206E627220307825C7
:10462300303278206C696E6B202562782069735074
:1046330020256275000A52656D286C29696478200B
:10464300256275206E627220307825303278206CB6
:10465300696E6B202562782069735020256275008E
:104663000A425045000A42496565653A000A424ECE
:1046730020706964783A202562752072616E6B3A06
:104683002025752070616464723A20257820636860
:1046930020256278206C716920256275206564206D
:1046A300256278206C20256278206120257820728D
:1046B3007373692025627820636E74202562750008
:1046C3000A506661696C000A4469736353746F70BE
:1046D300000A526F757465205320256275204520AA
:1046E30025627520502025627520432025627520A0
:1046F3004520256275204461202562752053612081
:10470300256275205420256275000A526F75746501
:104713003A2061203078253032782000696565655C
:1047230020000A7061726C202573200057697200A3
:10473300507772000A7220307825303278000A727E
:104743006C202573004243434F004253544100738E
:1047530074617465000A526F757465205320256275
:104763007520452025627500737461747300200001
:1047730000006E76636C65617200FFFFFFFFFFFF51
:10478300256264003D3D2050656572204E6F203ADE
:10479300203D3D202562750A0009204D61632041BB
:1047A3006464726573733A20002530326278202086
:1047B300000A00097465693A202562750A000943F5
:1047C300436F206361703A202562750A00094469CA
:1047D300736320535441206C6973742028256275D8
:1047E300290A000952535349203A28256275290A98
:1047F30000094C514920203A28256275290A0025D1
:1048030073003F006564007364006E73640070643A
:10481300006E706400626D00616D006D6D00656D0A
:104823000065646F6E65006574685478446F6E65E7
:104833003D25627500737461740070656572006470
:104843006973636C697374006E65746C6973740067
:104853000A4E573A202562750A004E49443A0053DE
:104863004E49443A202562750A00536C6F744964BB
:104873003A202562750A0052535349203A20256293
:10488300750A004C5149203A202562750A0062637B
:104893006E436E740A00716400727374737461748E
:1048A300006465666E696400726573657400737491
:1048B3006172746E6574007365746D61630067651E
:1048C300746D61630067766D7367006E6F67766DF5
:1048D30073670076657273696F6E0056455253496C
:1048E3004F4E3A2025730A007478706F7765726DA6
:1048F3006F646500706C63747872657365740070BF
:104903006C63727872657365740061707000256200
:104913007500636F6D6D6974000A436F6D6D697423
:10492300204661696C20312E30006C7770000A409C
:10493300307832333A00256278000A4030783234D6
:104943003A00737973706172616D0053204E49446C
:104953003A20005320534E49443A202562750A00F9
:10496300432043436F4E49443A2000432043436F5F
:10497300534E49443A202562750A007349643A202C
:104983002562750A004C4D3A2041430A004C4D3ACA
:104993002044430A00415374617475733A202562BD
:1049A300750A0041755374617475733A20256275F5
:1049B3000A00444D3A205354410A00444D3A2043DF
:1049C300434F0A00444D3A205043434F0A007A6351
:1049D3000065666C617368007068797265736574ED
:1049E300004D4143416464723A3A004D41432041D2
:1049F3004444523A20003D3D3D3D3D3D3D3D3D3D1E
:104A03003D3D20504C4320527820537461746973A8
:104A130074696373203D3D3D3D3D3D3D3D3D3D3D21
:104A23003D3D3D0A00546F74616C5278476F6F646B
:104A330046726D436E74203D20256C750A005278D2
:104A4300476F6F6444617461436E7420202020209B
:104A53003D20256C750A005278476F6F6442636E80
:104A6300436E742020202020203D20256C750A00F1
:104A73003D3D3D3D3D3D3D3D3D3D3D3D20504C4358
:104A83002054782053746174697374696373203D8F
:104A93003D3D3D3D3D3D3D3D3D3D3D3D3D0A00549C
:104AA3007844617461436E742020202020202020EC
:104AB300203D20256C750A00547842636E436E7462
:104AC300202020202020202020203D20256C750A36
:104AD3000042636E53656E74496E74436E74202096
:104AE3002020203D20256C750A003E2000479618A3
:104AF300DD604C32A45E36875A6F8CBE4E6824410B
:104B03003CA19D0E38343A38663A36393A63383A1E
:104B130037343A3965000000E534244AF582E43439
:104B2300AFF583E005342290AF4730220390AF4ABC
:104B3300E475F00112284002220C201BE97F2ED2DB
:104B43001B8018EF540F2490D43440D4FF301F0B34
:104B5300EF24BFB41A0050032461FFE5356002154A
:104B6300350538E5387002053730220E90AF47E43B
:104B730075F001122840EF0222A70231AC7403D270
:104B8300228003E4C222F53490AF47122857E4F59C
:104B930035F537F538E53560077F20124B5E80F534
:104BA3007536FFC21CC21BC21DC21EC220C221C257
:104BB30023124B2AFF700D3022057F00124B6FAF7B
:104BC30038AE3722B4255FC2D5C21F124B2AFF2449
:104BD300D0B40A00501A75F00A783530D50508B6F6
:104BE300FF0106C6A426F620D5047002D21E80D982
:104BF30024CFB41A00EF5004C2E5D21F024D70D285
:104C03001C80C6D21B80C0D21D80BCD2D580BAD234
:104C13002080B47F20124B5E201D077401B5350040
:104C230040F1124B1BFF124B5E024B98D223D22151
:104C33008095124B1BFB124B1BFA124B1BF94A4B71
:104C4300700679417A4E7BFF201D2EE535602A7E62
:104C5300008E8275830012222560060EEE65367083
:104C6300F0C2D5EBC0E0EAC0E0E9C0E0EE124DB718
:104C7300D0E0F9D0E0FAD0E0FB12220CFF60AAEBFF
:104C8300C0E0EAC0E0E9C0E0124B5ED0E02401F9E5
:104C9300D0E03400FAD0E0FBE5360460DCD536D949
:104CA30080877BFF7A4D79B3D21D809C7910800277
:104CB3007908C221C2238008D2D5790A8004790AEF
:104CC300C2D5E536047002F536E4FAFDFEFF124B59
:104CD3001BFC7B08201C13124B1BFD7B10301B0A93
:104CE300124B1BFE124B1BFF7B20EC3382D592D55C
:104CF3005013C3E4301B069FFFE49EFEE4201C0315
:104D03009DFDE49CFCE4CBF8C21CEC700CCFCECD33
:104D1300CCE824F8F870F38017C3EF33FFEE33FECB
:104D2300ED33FDEC33FCEB33FB994002FB0FD8E989
:104D3300EB301C05F8D0E0C448B21CC0E00AEC4DCF
:104D43004E4F78207B0070C2EAB5360040BCC0E00D
:104D5300124DB9D0F0D0E0201C04C4C0E0C4B21C92
:104D6300C0F0124B47D0F0D5F0EB024B98122964F8
:104D73004C35534CAF584C064C4C02424CB34F4C41
:104D8300BB444CBB494C1B434CC1554CA5464CA59D
:104D9300454CA5474E61504C0A2D4C0E2E4C312BE1
:104DA3004C12234C2F204E4A2A4BCA4800004C2950
:104DB3003F3F3F00790AA2D5201E14302009B910C5
:104DC300020404B9080104A2D520210250010420E1
:104DD3001D68921DB535005034C0E07F20301E1988
:104DE3007F30A21D72217220500F124E10C21DC2BD
:104DF30021C220C2237F30800F302003E9C0E0129C
:104E03004B5E302003D0E0F9D0E0B535CC3020172D
:104E13007F30B9100C124B5E7F58301F077F7880AC
:104E230003B90803124B5E301D057F2D024B5E7FD5
:104E3300202023F87F2B2021F322921D80CF286E80
:104E4300756C6C2900D21C124B1B301CF8C21C78E9
:104E53003530D50108F6024BCA2D50434958124B41
:104E63001B2403B405004001E4904E5C93124B4FA6
:104E7300743A124B4FD21E753504024CAFE53430F1
:104E83001E0104F823282415F582E434AFF58322A8
:104E930090AF12301E0390AF15E475F00112284055
:104EA30002220C60EAC5387002153714C538201E7B
:104EB30004FF02742390AF1274FFF5F0022EF2FF89
:104EC3000273C6E5356006D535037F0022201E0F29
:104ED3001273B2EF60080538E53870020537229087
:104EE300AF1212283712220CFF60E890AF12E4755C
:104EF300F00112284080DC124ED0EFC0E0124EC207
:104F0300D0E040F3809DD21E8002C21E90AF1212E9
:104F13002857E4F536F534F537F538753500C21DF5
:104F2300C21BC21CC21F124E93FF7005AF367E0018
:104F330022B42530124E93FF24D0B40A00500C75CE
:104F4300F00AC535A42535F53580E924CFB41A0018
:104F5300EF5002C2E502516ED21C80D8D21B80D41E
:104F6300D21F80D0EF124EC25008124EFAEF600EDD
:104F730080A9EFC0E0124ED0D0E06F609EEF607466
:104F8300124EA680A7124ED0EF6069E53570070573
:104F9300358003124ED0EF6014201F0E124E80E4B2
:104FA30075F001122840EF1222A7D535E6201F0421
:104FB3000534053680BA124EC6EFC0E0124EC2D099
:104FC300E05004124EA6E4FF201F0E124E80E4753B
:104FD300F001122840EF1222A7EF70DA201F040518
:104FE300340536808BE53560020535124EFA124ED4
:104FF300C6EF70C6301E04E4124EA6E53660030207
:105003004F2F7EFF7FFF22201F1174FFFCFDFEFF49
:10501300124E801228371226EF0534024F1ED0E0BD
:1050230080D27900800A7910800679088002790A93
:10503300D220E53560020535E9C0E0124EFAEF6093
:10504300DD124ED0BF2D04D21D8003BF2B09124E9B
:10505300FAEF60CA124EC6D0E0B40A028033B40835
:1050630002802EBF302770027408C220C0E0124EA7
:10507300C6D0E0BF78028003BF58160535D5350288
:105083008007D53504D220800B7410801970027408
:105093000ABF000AEFF8E4FCFDFEFF025121C0E065
:1050A300EF124EA6D0E0F9E4FCFDFEFFE9C0E0EC10
:1050B300C0E0EDC0E0EEC0E0EFC0E0124EC6EFF896
:1050C300D0E0FFD0E0FED0E0FDD0E0FCD0F0E8601F
:1050D3004DB461004007B47B005002C2E524D050B8
:1050E3003DFA24F6500724F95034240AFAEAB5F0BD
:1050F30000502BCFA9F0A42FFF92D5E9C5F0CEA481
:10510300A2D53EFE92D5E9C5F0CDA4A2D53DFD9230
:10511300D5E9C5F0CCA4A2D53CFCC220808EE8C062
:10512300E0201F2A2020080536301D0312264412D2
:105133004E801228370534201B0B201C0DEE8FF0F8
:1051430012248C80091226EF8004EF1222A7D0E0EC
:10515300124EA6024F1E201F10124E801228370532
:1051630034E5378538F012248C80E81229644FE83F
:10517300535029584F5F4C4F5B424F3748502D4F88
:105183005031444F8843502549503155500A4650B9
:105193000A45500A474F632A51594E00004F67434F
:1051A3004E414D3A3E3E43435F4153534F432E439B
:1051B3004E46287465693A256275290A00434E41B3
:1051C3004D3A3E3E43435F4C454156452E434E4682
:1051D300287465693A256275290A00434E414D3AA0
:1051E3003E3E43435F4C454156452E494E44287449
:1051F30065693A256275290A00434E414D3A3E3EA0
:105203005345545F5445495F4D41502E494E442800
:105213007465693A256275290A00414572720A006C
:10522300434E414D3A3E3E4241434B55505F415000
:10523300504F494E545F5245513A287465693A2597
:105243006275290A00417373657274206661696C23
:1052530065643A20286E65774576656E742D3E62E7
:10526300756666446573632E64617461707472203D
:105273003E3D206E65774576656E742D3E6275669C
:1052830066446573632E6275666629262620202090
:1052930020202020202020202028286E6577457696
:1052A300656E742D3E62756666446573632E646134
:1052B3007461707472202D206E65774576656E7407
:1052C3002D3E62756666446573632E62756666205D
:1052D3002B202020202020202020202020202020C0
:1052E3006E65774576656E742D3E627566664465B8
:1052F30073632E646174616C656E29203C3D206E7E
:1053030065774576656E742D3E6275666644657392
:10531300632E627566666C656E29202866696C6506
:10532300202573206C696E65202564290A002E2EC2
:105333005C2E2E5C2E2E5C2E2E5C6669726D776160
:1053430072655C687067705C7372635C6C696E6BCA
:105353005C6E616D2E6300434E414D3A3C3C4343CA
:105363005F4153534F432E524551287465693A2583
:105373006275290A0045416C6C6F634572720A00BD
:10538300434E414D3A3C3C4C454156452E524551C6
:10539300287465693A256275290A00434E414D3ADE
:1053A30045616C6C6F634572720A00534E414D3A0E
:1053B3003E3E4241434B55505F4150504F494E543E
:1053C3005F434E46287465693A256275290A00537E
:1053D3004E414D3A3E3E43435F4153534F432E525A
:1053E3004551287465693A256275290A00534E416F
:1053F3004D3A3E3E43435F4C454156452E5245513F
:10540300287465693A256275290A00534E414D3A5D
:1054130045416C6C6F634572720A00534E414D3ABD
:1054230063616E277420616464207363620A0053AE
:105433004E414D3A3C3C43435F4C454156455F49E1
:105443004E44287465693A256275290A00534E4112
:105453004D3A3C3C5345545F5445495F4D41502EB2
:10546300494E44287465693A256275290A00534EEA
:10547300414D3A3C3C43435F4153534F432E434ECC
:1054830046287465693A256275290A00534E414DD1
:105493003A3C3C43435F4C454156452E434E4628D8
:1054A3007465693A256275290A00534E534D3A20B3
:1054B30045416C6C6F634572720A000A496E6974E8
:1054C3002052746F706F4170702028617070206972
:1054D300642025627529000A5020757028702025E4
:1054E30062752072732025627520726C20256275A7
:1054F30029000A5720757028702025627520706571
:10550300202562752072732025627520736D202516
:10551300627529000A4E574B2064776E2872662005
:10552300706C63292028707265662025627520706F
:1055330073652025627520777365202562752900C0
:105543000A4E776B2064776E2872662920287020B4
:1055530025627520646C2025627520727320256294
:105563007529000A4E574B2064776E28706C6329A7
:10557300287020256275207065202562752073656B
:105583002025627520646C202562752072732025A6
:10559300627520686D2025627529000A475054788A
:1055A300202873203078253032782C2064203078FE
:1055B300253032782C206C2025627520636E742090
:1055C300256275000A4752782028732030782530E9
:1055D30032782C2064203078253032782C206C20CF
:1055E3002562752C20727320256275000A692025B7
:1055F3006275207273736920256275206C7169204E
:105603002562752062636E7420256C752072616358
:105613007420256275000A4E69643A000A56466989
:10562300656C643A000A5061646472202578000A4C
:1056330053636E46000A53746F7053000A52746FBB
:10564300706F2053202562752045202562752050F8
:10565300202562752043202562752045202562752B
:1056630020446120256275205361202562752054F2
:1056730020256275000A5264776E206C20256275BE
:1056830020722025627520706C2025627520776C4E
:105693002025627520726520256275207765202597
:1056A300627520706520256275000A50726F662846
:1056B30077733A202562752070733A20256275202E
:1056C30072733A202562752C2072763A2025627512
:1056D30020706C3A2025627529000A31302E320081
:1056E3007374617465000A52746F706F20532025C0
:1056F3006275204520256275007374617473000A16
:1057030052746F706F20702025627520707320258E
:1057130062752077732025627520286368202562CF
:10572300782070616E696420257820732025627566
:10573300206D2025627520742025627529006E7600
:10574300636C65617200FFFFFFFFFFFFFF00000056
:1057530000000000000000000000000A000A202AE8
:105763002A2A2A2050524F4752414D20434F4E463A
:10577300494755524154494F4E2044415441202AF0
:105783002A2A2A0A000A202D2D3E2050726F6772A2
:10579300616D6D696E6720636F6E666967757261AF
:1057A30074696F6E206461746120592F4E3F3A20F3
:1057B300000A202D2D3E20457261736520637572AA
:1057C30072656E7420636F6E666967757261746962
:1057D3006F6E206461746120592F4E3F3A20000A96
:1057E3002020202A2A2A2A20436F6E666967757251
:1057F3006174696F6E20646174613A206D61782011
:10580300353038206279746573206F6620415343C5
:105813004949204865782C20656E64656420627967
:1058230020272427202A2A2A2A000A202D2D3E2039
:1058330057616974696E6720666F7220636F6E6665
:10584300696775726174696F6E20646174613A206F
:105853002E000A20436F6E66696775726174696F03
:105863006E206461746120657863656564732035B7
:105873003038206279746573206265696E672074BD
:1058830072756E6361746564210A000A0A202D2D06
:105893003E2041626F72742070726F6772616D6D2A
:1058A300696E6720636F6E66696775726174696F8D
:1058B3006E20646174610A000A204E6F20636F6E6C
:1058C30066696775726174696F6E206461746120C3
:1058D300617661696C61626C650A002E000A0A20B8
:1058E3002D2D3E2046696E6973682070726F677252
:1058F300616D6D696E6720636F6E6669677572614E
:1059030074696F6E2064617461202D202575206297
:10591300797465730A000A202D2D3E2044756D703D
:1059230020636F6E66696775726174696F6E206458
:105933006174610A000A202D2D3E204C6F61646959
:105943006E6720636F6E66696775726174696F6EE7
:10595300206461746120000A2044756D702040301A
:1059630078253033583A203078256278000A20258C
:10597300752062797465287329206F6620636F6EC2
:1059830066696775726174696F6E20646174612002
:1059930072656164202E2E2E2E2E2E2E2E2E2E0A72
:1059A30000534E534D3A4469736320535441204C82
:1059B3006973742069732066756C6C0A00534342E3
:1059C3003A616765206F7574206469736320656E3F
:1059D300747279287465693A20256275290A00452D
:1059E30041460A00434E534D3A3E3E43435F4449CA
:1059F30053435F4C4953542E524551207465693AC1
:105A0300202562750A00434E534D3A3E3E4E4E5F8B
:105A1300494E4C5F524551287465693A2562752990
:105A2300736E69643A2562750A00434E534D3A3EDC
:105A33003E4E4E5F494E4C5F434E46287465693A6D
:105A430025627529736E69643A2562750A00434EAF
:105A5300534D3A3C3C43454E5452414C2F50524FC8
:105A630058592042434E284C290A00434E534D3A7D
:105A73003C3C444953432042434E284C29746569B6
:105A83003A2562750A00434E534D3A544549204D19
:105A93004143206E6F74206D61746368656420698F
:105AA3006E20446973632042434E0A00434E534DB4
:105AB3003A3C3C3C444953432042434E284829281E
:105AC3007465693A256275290A00676F74206363F8
:105AD3006F0A00636E736D3A53657474696E672061
:105AE3006E657453796E63202562750A00636E7365
:105AF3006D3A53657474696E672053544120536E35
:105B03006964202562750A00434E534D3A53636816
:105B1300656420646973632062636E207465693A07
:105B23002562750A00434E534D3A20484F20737740
:105B330069746368284153534F4320535441290ADE
:105B430000434E534D3A63616E27742066696E6459
:105B53002063636F207363620A00434E534D3A48D8
:105B63004F20636E74646F776E282564290A00439F
:105B7300636F20736E6964202562750A0043636F47
:105B830020736C6F74202562750A00434E534D3A9F
:105B93003C3C43435F444953435F4C4953542E4376
:105BA3004E46287465693A256275290A00434E53A7
:105BB3004D3A6E6F207363620A00434E414D5F504E
:105BC300726F634576656E743A454541460A00C275
:105BD300AF80FEC0E0C083C082C0D0C005C006C095
:105BE30007D007D006D005D0D0D082D083D0E03202
:105BF300C0E0E5D0541864087003D0E032D0E0125E
:105C03005BD685D00B75D008FAC28CE58A2469F57A
:105C13008AE58C3451F58CD28CEC243AF8E6BC033B
:105C23000274FFC39581B4140040A47904780F165D
:105C3300E608700BC2AFE630E1034418F6D2AF08B2
:105C4300D9EDEA8BD0D22422C09FE50CFF23241088
:105C5300F80F0808EFB50C06102403438701BF04AF
:105C6300047F007810E630E4E800E50CC39F502081
:105C7300050C7439250CF8E6FDA68108E6AE0CBECA
:105C8300030274FFCDF8E86D60E008E6C0E080F63B
:105C9300E50CD39F4027E50C243AF8E6AE0CBE038F
:105CA3000274FFFD18E6CDF8E5816D6006D0E0F6DD
:105CB3001880F5E50C2439C8F6150C80D3E50C23C0
:105CC3002410F87F04C2AFE630E00310E20C7F003B
:105CD30030E10730E3047F0854F4C2E7C6D2AF547F
:105CE300804207D0E0027332227839A681740360C0
:105CF30006FF0876FFDFFB7F04E4780FF608F6085B
:105D0300DFFA7810763090741B740193C0E0E4934B
:105D1300C0E0438901758A62758C51D28CD2AFC2BF
:105D2300A92203EFD3940340037FFF2274102F2F84
:105D3300F8E620E5F4C2AFE64430F6D2AFAE0CEE9F
:105D4300C39F50240E74392EF8E6F908E618BE03F3
:105D53000274FFFDED69600B09E7191919F70909C9
:105D63000980F116161680D7EED39F4006058105EC
:105D7300810581EED39F402574392EF808E6F9EEAC
:105D8300B50C02A98118060606E6FDED69600B193C
:105D93001919E7090909F71980F11E80D6EF24398B
:105DA300F8E604F8EF2F0490741B93F608EF2F9393
:105DB300F67F0008E59FF622EF232410F8C2AFE632
:105DC3004490F6D2AF025C48667265712025627515
:105DD300200A0053657453575374617452657153A9
:105DE30063616E466C61673A5363616E20456E6111
:105DF300626C650A0053657453575374617452653A
:105E0300715363616E466C61673A5363616E2044FC
:105E1300697361626C650A00536574536E69643A11
:105E23002562750A004E454B0057726F7465204119
:105E330065734C75744164647220647720307825EF
:105E430030386C5820746F207265672330782530A2
:105E5300386C580A0057726F7465206B657941641A
:105E630064722064772020202030782530386C58E5
:105E730020746F207265672330782530386C580A98
:105E83000A0057726F7465204165734C75744164E1
:105E930064722064772020202030782530386C58B5
:105EA30020746F2020207265672330782530386C8A
:105EB300580A00526561646261636B204165734CEB
:105EC3007574446174612064772030782530386CB0
:105ED300582066726F6D20726567233078253038DD
:105EE3006C580A004848414C5F53657442636E49DD
:105EF3006E69740A006C696E654D6F646520256276
:105F0300750A000A666C3A25627520000A3530204E
:105F1300485A2064657465637465640A000A2066E0
:105F230072653D20256275000A363020485A206488
:105F3300657465637465640A000A204E6F204672B7
:105F4300657175656E6379206465746563746564F2
:105F5300000A20737769746368696E6720746F2021
:105F63004443202E2E2E25627520000A2042434EE4
:105F730020353020485A2064657465637465640A6B
:105F8300000A206270203D20256C75000A42434EB2
:105F930020363020485A2064657465637465640A4A
:105FA300004541460A004354524C4C3A2052782053
:105FB3004E45545F444953435F494E442E0A0053B0
:105FC300544120526F6C653A202562752E0A0043B6
:105FD30054524C3A205374617274696E672045566B
:105FE300454E545F545950455F54494D45525F44A3
:105FF3004953435F494E440A005553433A43434F81
:106003005F444953435F494E44206576656E740A85
:10601300005553433A5761697420666F72204143B8
:1060230043205273700A004A4F494E4E45540A00AA
:1060330075734520556E65787000757345204D5511
:106043006E657870006A6F696E200A004153433AA7
:10605300737461727428256275290A004E454B20BA
:106063004661696C656400615345204D556E6578E2
:1060730070004143433A7374617274282562752931
:106083000A004D4354524C3A207472616E73697422
:1060930020746F204E45545F444953432073746109
:1060A30074650A004D4354524C3A727820756E65FC
:1060B30078702065767428256429617420494E49D7
:1060C300542073746174650A004D4354524C3A2052
:1060D30047657420616E206576656E74200A006ED4
:1060E300657869742061736320256275200A004313
:1060F30074726C204541460A004374726C204C61F3
:106103007965723A496E69740A0044423A204661DD
:10611300696C20746F20616C6C6F636174652061BE
:106123002064617461206275666665722E0A00459B
:1061330056454E5442636E3A204541460A00455641
:10614300454E543A454146204D474D540A00475663
:1061530037303178204556454E544150503A204609
:1061630061696C200A004556454E543A4541460A3A
:1061730000417373657274206661696C65643A20CB
:10618300286576656E742D3E627566664465736335
:106193002E64617461707472203E3D206576656E75
:1061A300742D3E62756666446573632E627566661A
:1061B30029262620202020202020202020202028BF
:1061C300286576656E742D3E6275666644657363F5
:1061D3002E64617461707472202D206576656E740F
:1061E3002D3E62756666446573632E62756666202E
:1061F3002B20202020202020202020202020202091
:106203006576656E742D3E62756666446573632EAE
:10621300646174616C656E29203C3D206576656E12
:10622300742D3E62756666446573632E6275666699
:106233006C656E29202866696C65202573206C695E
:106243006E65202564290A002E2E5C2E2E5C2E2ED0
:106253005C2E2E5C6669726D776172655C636F6D2F
:106263006D6F6E5C6576656E742E63000A496E69A8
:106273007420526567697374657241707020286178
:1062830070702069642025627529000A52436E6686
:1062930020547820202873202D2030782530327820
:1062A3002C2064202D203078253032782C206C204F
:1062B3002D20256275000A525273702052782020D7
:1062C3002873202D203078253032782C2064202D1F
:1062D300203078253032782C206C202D20256275D3
:1062E300000A5265676973746572205320256275CD
:1062F30020452025627520502025627520432025E6
:106303006275204520256275204461202562752031
:1063130053612025627520542025627500737461D2
:106323007465000A5265676973746572205320258A
:106333006275204520256275007374617473000AC9
:10634300526567697374657220616464722025788D
:10635300200A726567726571202575207265677200
:10636300737020257520726567636E66202575201E
:106373007265726567726571202575006E76636C50
:1063830065617200FFFFFFFFFFFFFFFFFFFFFFFFDE
:106393000A532F572054582053746174733A0A00D8
:1063A300204E6F41636B3D256C752C204E6F43432C
:1063B300413D25752C2046726D50656E64696E678C
:1063C3003D256C752C20457272733D25750A000AB4
:1063D300532F572052582053746174733A0A005054
:1063E3006B747320727865643D256C75202D204293
:1063F3007974657320727865643D256C750A004471
:10640300656372797074204572723D25752C204442
:10641300656372797074204F6B3D25752C204E6F28
:10642300206275666665723D25752C2046726D2067
:10643300746F6F206269673D25752C20426164206B
:106443004352433D25750A00000000FF2FEAFF2F4A
:10645300F0FF2FF6FF2FFCFF3002FF3008FF300E56
:10646300FF3014FF301AFF3020FF3026000000FFFA
:10647300302CFF3032FF30380000000000000000F5
:106483000000000000000000000000000000000009
:1064930000000000000000000000000000000000F9
:1064A30000000000000000000000000000000000E9
:1064B300000000000A496E6974204C4C5041707012
:1064C30020286170702069642025627529000A55AF
:1064D3007064527370202861637420256275207381
:1064E300202562752073657120257529000A4C4C9F
:1064F3005020537461746520256275204576656E5E
:106503007420256275205020256275204320256262
:10651300752045202562752044612025627520532E
:106523006120256275205420256275000A64657612
:10653300747970652020203D20256275000A64650A
:106543007673756274797065093D20256275000A5A
:10655300757064747265712020203D20256C750070
:106563000A757064747273702020203D20256C7549
:10657300000A6173796E6372737020203D20256C6D
:1065830075000A64726F702020202020203D202592
:106593006C75007374617465000A4C4C7020532051
:1065A300256275204520256275007374617473003C
:1065B3006E76636C65617200FFFFFFFFFFFF0A49A0
:1065C3006E697420536D6172744C696768744170AD
:1065D3007020286170702069642025627529000A83
:1065E300537562747970653A20256275002043689B
:1065F3002562753A2025730050574D0044430047E8
:1066030050494F000A000A7C20454E41424C455FE9
:10661300434820256275207C20000A7C20522025D7
:106623006275207C20000A7C204720256275207C2F
:1066330020000A7C204220256275207C20000A7CF1
:10664300205720256275207C20000A7C2052656C2F
:1066530061793120256275207C20000A7C205265F7
:106663006C61793220256275207C20002573003F00
:1066730000636667002562752025627520256275B3
:106683002025627520256275202562752025627597
:106693000074657374002562752025627520256278
:1066A30075202562752025627520256275006E763A
:1066B300636C6561720025630025782025780020CE
:1066C3002020205350493A202025303358202D2DA7
:1066D3003E205B253032585D0A0A002578000820E9
:1066E30008000A00200A003E2000256C78002020C4
:1066F300202052656752643A20205B307825303879
:106703006C585D202D2D3E2030782530386C580A8A
:106713000A002020202052656752643A20205B3013
:10672300782530386C585D202D2D3E20307825306B
:106733003262580A0A00256C7820256C78002020E4
:10674300202052656757723A20205B307825303815
:106753006C585D203C2D2D2030782530386C580A3C
:106763000A00256C782025627800202020205265BD
:106773006757723A20205B30782530386C585D209B
:106783003C2D2D20307825303262580A0A000A55F4
:106793007365722061626F727465642074657374CB
:1067A3000090AB3AEBF0A3EAF0A3E9F090AB3AE048
:1067B300FBA3E0FAA3E04A4B701590DC8FE0F9A34A
:1067C300E0FAA3E090AB3AC9F0A3EAF0A3E9F090B2
:1067D300AB3AE0FBA3E0FAA3E04A4B7004FBFAF9FF
:1067E3002290AB3DE0F9A3E0FAA3E090AB43C9F0FC
:1067F300A3EAF0A3E9F090AB3AE0FBA3E0FAA3E04D
:10680300F912709A90AB3BEE8FF012237890AB3A6B
:10681300E0FBA3E0FAA3E0F912220C7012F990DC7A
:106823008FC9F0A3F0A3E9F07B007A0079002290EE
:10683300AB3DE0F9A3E0FAA3E090AB43C9F0A3EAD0
:10684300F0A3E9F090AB3AE0FBA3E0FAA3E0F9127E
:10685300711E90DC8FEBF0A3EAF0A3E9F04A4B60E2
:106863001890DC8FE0FBA3E0FAA3E0F9E41222A77F
:1068730090DC9075F00112237890AB3AE0FBA3E033
:10688300FAA3E0F9220A4572726F72202D20436148
:106893006E6E6F7420616C6C6F6361746520525807
:1068A30020627566666572000A6261312E30000AE5
:1068B3006261312E31000A62613A68616C46000AF6
:1068C3007278513A20256275000A4261642043526E
:1068D300430A0053726320536872744164647220E4
:1068E30054620A002562752D2530347820282562EC
:1068F30075290A00537263204578744164647220D9
:1069030054620A002562752D2530386C782D2530A8
:10691300386C782028256275290A000A4473746E3E
:106923002053687274416464722054620A00447391
:10693300746E20457874416464722054620A000ABC
:1069430050726F6D41636B202D2053743A2562752D
:106953002C204D3A2562750A005630782530386C64
:106963005800696E76616C696420636D640A000A7D
:1069730072666320256275000A20496E76616C6930
:1069830064206870677020636F6D6D616E64206949
:10699300642072656365697665642066726F6D2035
:1069A300686F7374202825627829000A20496E765F
:1069B300616C69642070486F73744864722D3E740F
:1069C3007970650A000A20496E76616C6964207AE1
:1069D3006220636F6D6D616E64206964207265630C
:1069E30065697665642066726F6D20686F737420C5
:1069F3002825627829000A20496E76616C69642033
:106A030061707020636F6D6D616E642069642072C4
:106A1300656365697665642066726F6D20686F7360
:106A23007420282562782900636C20256275200A6A
:106A330000747900626400657600444D4D3A446900
:106A43007370206D656D2075736167653A0A004444
:106A53004D4D3A536C6162202562750A00444D4DD9
:106A63003A6D656D2073656720746F74616C2020C7
:106A73002562750A00444D4D3A6D656D2073656757
:106A830020757365202562750A00444D4D3A69737C
:106A9300456D707479202562750A00506F6F6C2004
:106AA30046756C6C3A2025750A00444D4D3A6D6568
:106AB3006D20706F6F6C20736D616C6C0A00444DB8
:106AC3004D3A6D656D20706F6F6C20696E6974202F
:106AD300646F6E650A00706F6F6C6572726F7220FF
:106AE3002562750A0066726565506F6F6C202562BA
:106AF300750A0020706C63207478446F6E6520748F
:106B03003A2562750A007120696420256275206642
:106B1300756C6C0A006820256275200A20007420B9
:106B2300256275200A20006672203D202562750AC1
:106B33000048204350206C696D0A00702072780A67
:106B4300005350493A200000727820656E640A00B1
:106B53006D6178206370202562750A00706F73740D
:106B63002070726F632064726F700A007074780A09
:106B7300000A20686F73742072780A003078253019
:106B830032625820000A20656E64200A000A737579
:106B930044007120660A0064726F70206672616D32
:106BA300650A0064726F700A00FFFFFFFFFFFF0AB0
:106BB300496E6974204E776B417070202861707044
:106BC3002069642025627529000A4E776B205320C3
:106BD3002562752045202562752050202562752089
:106BE30043202562752045202562752044612025B8
:106BF300627520536120256275205420256275003B
:106C03007374617465000A4E776B20532025627597
:106C130020452025627520706C2025627520776CD5
:106C23003A20256275007374617473000A4E776BA2
:106C330020702866772920256275207728667729B2
:106C43002025627520706C2025627520776C2025C5
:106C53006275207061202578207761202578006E89
:106C630076636C656172004D55584C3A20446174EB
:106C7300612062756666657220697320736D616C4D
:106C83006C0A004D55584C3A206E656564206D734F
:106C93006720667261676D656E746174696F6E2ECD
:106CA3000A004D55583A206572726F7220696E2042
:106CB30072782066726167656D656E742E0A004D89
:106CC30055583A2064656C697665722061206D675A
:106CD3006D74206D73672E0A004D55583A4D7367D6
:106CE300207265617373656D626C79206E6F7420B9
:106CF300737570706F727465640A004D5558204C3B
:106D0300617965723A20496E697469616C697A6563
:106D1300642E0A000A496E6974204C727770616EA2
:106D230020286170702069642025627529000A4C4F
:106D3300727770616E20532025627520452025628D
:106D43007820502025627520432025627520452038
:106D530025627520446120256275205361202562D8
:106D630075205420256275206120256275207020CE
:106D7300256275007374617465000A4C72777061E3
:106D83006E2053202562752045202562750073749B
:106D9300617473000A4C727770616E2070616E20AB
:106DA3002578206368202562782063686D61736BA2
:106DB30020256C78006E76636C656172000A496EFB
:106DC30069742048504750447276202861707020BF
:106DD30069642025627529000A4870677020532072
:106DE3002562752045202562752050202562752077
:106DF30043202562752045202562752044612025A6
:106E03006275205361202562752054202562750028
:106E13007374617465000A4870677020532025629B
:106E230075204520256275007374617473000A48E8
:106E33007067703A20726F6C652025730043434F6F
:106E430000535441000A6E69643A20000D6E6D6B65
:106E53003A20000D6F7569643A20006E76636C65A5
:106E6300617200787FE4F6D8FD750DE0750E00754C
:106E7300813C026EB3025CECE493A3F8E493A34079
:106E830003F68001F208DFF48029E493A3F85407A2
:106E9300240CC8C333C4540F4420C8834004F4569D
:106EA300800146F6DFE4800B0102040810204080D5
:106EB3009038A2E47E019360BCA3FF543F30E50900
:106EC300541FFEE493A360010ECF54C025E060A8D5
:106ED30040B8E493A3FAE493A3F8E493A3C8C58268
:106EE300C8CAC583CAF0A3C8C582C8CAC583CADFD6
:106EF300E9DEE780BE0A496E697420446576496E0F
:106F030074662028617070206964202562752900E9
:106F13007374617465000A446576696E7466205300
:106F230020256275204520256275200073746174E5
:106F3300730020000000256275000A646576747989
:106F430070655B2562755D2025627520000A204906
:106F53004F5B2562755D202573207479706520254C
:106F63006275206C656E202562752074726967678F
:106F7300657220256275000A76616C3A20006E7690
:106F8300636C656172004C494E4B3A4E49443A2555
:106F93003278202532782025327820253278202532
:106FA300327820253278202532780A004C494E4B1E
:106FB3003A4E4D4B005343204D69736D61746368C2
:106FC3000A004541460A004C696E6B6C3A454146DE
:106FD3000A0043616E277420616C6C6F6320534316
:106FE3004220666F722043436F0A004C696E6B3A0E
:106FF3005363616E2074696D6572206661696C0A02
:107003000008856DAF7CF5818508856DAF7CF581C2
:1070130085494E495449414C4953494E472E0A002C
:1070230056455253494F4E3A2025730A004772651D
:10703300656E766974792048504750004D4143206E
:10704300414444523A000A5744540A000A53572011
:107053005359530A000A5357204350550A000A5004
:107063004F52202562750A000A4C31520A000A4C1D
:1070730032520A000A4C33520A000011223344559B
:10708300B0F2E695666B0350D3E4933F855B7040A3
:10709300784DF815AA8DB790AB40EBF0A3EAF0A3B7
:1070A300E9F0E490AB46F0A3F0E4FEFF90AB43E0DD
:1070B300FBA3E0FAA3E0F98F828E83122225FD6001
:1070C3001890AB40E0FBA3E0FAA3E0F912220C6DA9
:1070D30060070FBF00010E80D390AB43E0FBA3E03A
:1070E300FAA3E0F98F828E83122225700280239007
:1070F300AB47E004F0700690AB46E004F090AB4081
:10710300E0FBA3E475F001122378A9F0FA12220C34
:10711300709790AB46E0FEA3E0FF2290AB40EBF00C
:10712300A3EAF0A3E9F090AB43E0F9A3E0FAA3E00C
:10713300A3C9F0A3EAF0A3E9F090AB46E0FBA3E018
:10714300FAA3E0F912220CFF601D90AB40E0FBA311
:10715300E0FAA3E0F912220C6F600C90AB47E475E0
:10716300F00112237880D290AB46E0FBA3E0FAA3B0
:10717300E0F912220C600C90AB40E0FBA3E0FAA311
:10718300E0F92290AB40E0FBA3E475F00112238EFB
:10719300A9F0FA12220C708EFBFAF92290DC7F120E
:1071A300272D7810EC4D4E4F70047CA57DA5C3ECC4
:1071B30013FCED13FDEE13FEEF13FF5010EC64CC44
:1071C300FCED644CFDEE644EFEEF64CEFFD8DF9021
:1071D300DC7F1227CAEE547FFE2290DC7FEEF0EFB5
:1071E300A3F0A374A5F0A3F0225354412068617364
:1071F30068207461626C652066756C6C0A0043528A
:107203004D3A54454920616C6C6F63206572720A74
:107213000043524D3A73636220616C726561647915
:1072230020667265650A006275636B657473282551
:1072330064290A0090AF44E0CBF0A3E0CAF0A3E0D6
:10724300C9F07F2590AF4AAD82AC8312220C8D82A8
:107253008C83F0A309E970010ADFEC90AF44E0FBF3
:10726300A3E0FAA3E0F9024B8670207478200A00A9
:107273003078253032625820000A000A20656E6497
:10728300200A00706C63207478526479536574200B
:107293000A000A62613A6D70647546000A62613AD7
:1072A30070616E46000A5061727365204661696CB5
:1072B300000A62613A747846000A6261312E322014
:1072C300256275000A6261312E3320256275000A3A
:1072D3006261312E343A2562750044726F700A0080
:1072E30048414C3A4541460A004D474D542064728B
:0A72F3006F700A00424572720A0033
:1073000078F8801A78F9801678FA801278FB800E67
:1073100078FC800A78FD800678FE800278FFC8102D
:10732000AF07439F07529FE822439F07529FE8D22F
:10733000AF2244F880E90A50616E69643A2578000A
:107340000A5368617274616464723A2578000A4372
:10735000483A256278000A716D6D204661696C6556
:107360006420746F2073746172742074696D657227
:10737000000A496E697420493243202861707020E8
:1073800069642025627529000A62613A7363616E3F
:107390003246000A62613A7363616E4600E4FFFEA2
:1073A00012220C600C0FEF70010E09E970F20A80D6
:1073B000EF2210250B1231A0BF0D027F0A0231AC63
:1073C00090DC96E0FF22EFC394094005EF940E4055
:1073D00004EFB42003D38001C3220A435020616C20
:1073E0006C6F63206661696C00EE30E707C3E49F51
:1073F000FFE49EFE220A62613A7363616E46000AF0
:107400007266637220256275000A2562782F2562F4
:10741000780048414C3A4541460A0074B7303E3046
:1074200044304A90DC96EFF0D225220000000000A4
:10743000000001FF2FBA01D14502FF2FC001D47413
:1074400003FF2FC601DB3504FF2FD201DB0705FF49
:107450002FD801BA4306FF2FCC01DAF207FF2FDE47
:1074600001D9AC08FF2FE401D94009000000000059
:10747000000AFF323C01DBE80BFF322A01D3750C16
:107480000000000000000D0000000000000E0000E1
:10749000000000000F0000000000000000000000DD
:1074A00000000000000000000000000000000000DC
:1074B000000000000000007E0A7FD27D007B017A80
:1074C00021792E122E187E017F907D00F1E6122E7A
:1074D0001812319A7BFF7A7079147F007E40F19107
:1074E0001233E0128D297A7079237F007E40F1916A
:1074F000F1B9C2A9D28C7F01F1987410F0A374F68F
:10750000F07B017A217905F1A67406F07A2C7904D2
:107510007F011231DC7F03F1987408F0A37448F006
:107520007B017A21791BF1A67401F07A3C79FB7F0B
:10753000031231DC7F04F1987431F0A374EAF07B1C
:10754000017A21791EF1A67404F07A457943FF127D
:1075500031DC12309EF1D412331412327EEF700EF1
:107560007ED77F037BB6FAFDFC12328AC14A784887
:107570007CA47D017BFF7A70797DF1B1784E7CA48B
:107580007D017BFF7A7079837E007F071221E67888
:10759000557CA47D017BFF7A70798A7E007F101272
:1075A00021E690A454E0540FF0F0787A7CD77D0166
:1075B0007B017AA4794E7E007F071221E6786A7CEF
:1075C000D77D017B017AA479557E007F101221E6D8
:1075D00078037CD77D017BFF7A7079301288AB907D
:1075E000D73DE04404F054F7F090D743E054FCF06A
:1075F00054F7F054FBF0A37401F0E490D747F090F7
:10760000D745F0A3F090D748F090D73EF0F1CE31B7
:10761000DD319FEF90A44DF078E87C2B7D01F19F48
:10762000F1B178237CD77D01F19FF1B1F19F1292E6
:10763000D6E4F0A37406F07BFF7A70793F128701DD
:1076400012321E129185FC1232841234A012362C92
:107650007B017A21796612320690C991E0FF1233DC
:10766000681233DA7B017A21793012375E12348E58
:107670007F201234887B017A21792E1235C0128343
:10768000B91235F090CD997403F090CDB07401F03B
:1076900012886A12312290A4491227CA90A449F193
:1076A000F5600312341612315290A448EFF0BF0275
:1076B000177BFF7A7079497F007E40F19190003806
:1076C0007402F0123416804390A448E0B404147B92
:1076D000FF7A70794F7F007E40F1919000387404FA
:1076E000F0802890A448E07BFFB408127A707958A3
:1076F0007F007E40F1919000387408F0800D7A7020
:10770000796190A448F1ED7E40F191128FA612317B
:107710005E90CDAFE0640260057F0312376AF1C06E
:107720007F02125DBB125C4BF1B9D28CC2A91278F8
:107730009412780490C150E07002A3E070031280AC
:10774000A7907733E07030D3902118E094E890212F
:1077500017E09403401B90CDB0E0B4010890CD99A0
:10776000E06401600AE490CD99F090773304F0F181
:10777000C0902117E4F1C81230BC123494125C4B53
:107780001230BC125C4B80A6E090AF19F07F407EB7
:10779000007D007C000232181231D690A46C227B4E
:1077A000017AA4794822A312285790A471221228A2
:1077B000377E007F060221E6F0758A9E758CAE2228
:1077C000E4902117F0A3F02275F001022378900DC8
:1077D000BC02272D7B017A2B79E12212285780F4F5
:1077E000E41222B980F87B017AC9798F22E090AF48
:1077F00019F07F002212272DEC4D4E4F227B017A8B
:1078000021793022C2AF308D74E490A8ECF0C28DA3
:10781000D1FE7012D1CF20E0027F01D1EC1227D629
:1078200000000000800790B7DF1183D1D9F1C94073
:107830002CF19D90A8ECD1FC7012D1CF20E0027FFA
:1078400001D1EC1227D600000000800D90B7DF12A6
:10785000273990A8ECF155D1D6F1FC8007E490A827
:10786000EC1277B8D28C90C193E0B40110F163C0F0
:10787000E090A8ECE0F177F188D0E0F17ED2AF2281
:1078800090CA5A12272DEF2401FFE43EFEE43DFD8D
:10789000E43CFC2212886A12312212888A703E90DF
:1078A000CBD91227D60000000090CDB51227D60004
:1078B00000000090CBDD1227D60000000090CDB96B
:1078C0001227D60000000090CDBD1227D600000080
:1078D0000090772E1227D6000000002189E47F0552
:1078E000FEFDFC90CDB55144403E513B503A123222
:1078F000B41232D21232D81232DE1232E41232BA5A
:10790000D1AE12314C90CDB9118390CDB91227CAA6
:1079100090CDA2118390CDA21227CA7BFF7A7079F5
:107920006B7F007E40127791513B4034F13190CD16
:10793000BD5144502B123416D1AB12314C90CDBDF9
:10794000118390CDBD1227CA90CDA7118390CDA7EA
:107950001227CA7BFF7A7079717F007E401277917F
:10796000F13190CDBD51444020123416D1AB1231CB
:107970004C90CDAB118390CDAB1227CA7BFF7A70B0
:1079800079777F007E4012779190C99FE060024135
:1079900021902104E07017FFFEFDFC90CA2D514498
:1079A000400CF1381227CA9021047401412FF1389C
:1079B000F107601BF1381227CA9021001227D60068
:1079C00000000090772E1227D600000000800B9058
:1079D000210011839021001227CAE47F107E27FD29
:1079E000FC902100514440521232C090CBD51183FB
:1079F00090CBD51227CAD1AE12314C90772E11837D
:107A000090772E1227CAF13190772E5144402B12D5
:107A1000341690772E1227D600000000D1AB023129
:107A20004C902C001227D600000000E4902104F0B6
:107A30009021001227D60000000022E47F14FEFDF2
:107A4000FC90CDB9122739D3022668C0E0C0F0C03F
:107A500083C082C0D075D018C2AF90050CE090BC36
:107A6000DCF0308D6FC28DD1FE7012D1CF20E002DC
:107A70007F01D1EC1227D600000000800790B7DF0D
:107A80001183D1D9F1C9402CF19D90BCD5D1FC70A6
:107A900012D1CF20E0027F01D1EC1227D6000000E6
:107AA00000800D90B7DF12273990BCD5F155D1D6A3
:107AB000F1FC800790BCD5E41277B8D28C90C193CA
:107AC000E0B40110F163C0E090BCD5E0F177F1883B
:107AD000D0E0F17E900520E090BCE1F0E070026122
:107AE000AAE020E004E030E42890BCE1E030E00DC2
:107AF000E030E40990C143E04401F0801290BCE121
:107B0000E030E00BE020E40790C143E054FEF0F1E8
:107B10002890BCE1E020E104E030E52890BCE1E001
:107B200030E10DE030E50990C143E04402F08012FD
:107B300090BCE1E030E10BE020E50790C143E05468
:107B4000FDF0F12890BCE1E020E304E030E728906C
:107B5000BCE1E030E30DE030E70990C143E04404CC
:107B6000F0801290BCE1E030E30BE020E70790C129
:107B700043E054FBF0F12890BCE1E020E204E03067
:107B8000E62890BCE1E030E20DE030E60990C14328
:107B9000E04408F0801290BCE1E030E20BE020E627
:107BA0000790C143E054F7F0F12890C1B6F11CFFF3
:107BB000C413540720E002814C90C1ADE07002A3D1
:107BC000E07002814C90BD41E4F090BCD9E06401CA
:107BD0007F1060027F0890BD41E0C39F503890C184
